:020000040000fa
:080000000002040000000000f2
:020000040000fa
:04000800c20300002f
:020000040000fa
:04000c00c803000025
:020000040000fa
:04001000e403000005
:020000040000fa
:04001400ce03000017
:020000040000fa
:04001800d40300000d
:020000040000fa
:04001c00da03000003
:020000040000fa
:04002000e8030000f1
:020000040000fa
:04002400e0030000f5
:020000040000fa
:04002800e0030000f1
:020000040000fa
:04002c00e0030000ed
:020000040000fa
:04003000e0030000e9
:020000040000fa
:04003400fe020000c8
:020000040000fa
:04003800e0030000e1
:020000040000fa
:04003c00e0030000dd
:020000040000fa
:04004000e0030000d9
:020000040000fa
:04004400e0030000d5
:020000040000fa
:04004800e0030000d1
:020000040000fa
:04004c00e0030000cd
:020000040000fa
:04005000e0030000c9
:020000040000fa
:040054007a0300002b
:020000040000fa
:040058004803000059
:020000040000fa
:04005c00e0030000bd
:020000040000fa
:04006000e0030000b9
:020000040000fa
:04006400e0030000b5
:020000040000fa
:04006800e0030000b1
:020000040000fa
:04006c00e0030000ad
:020000040000fa
:04007000e0030000a9
:020000040000fa
:04007400e0030000a5
:020000040000fa
:04007800e0030000a1
:020000040000fa
:04007c00e00300009d
:020000040000fa
:04008000e003000099
:020000040000fa
:04008400e003000095
:020000040000fa
:04008800e003000091
:020000040000fa
:04008c00e00300008d
:020000040000fa
:04009000e003000089
:020000040000fa
:04009400e003000085
:020000040000fa
:04009800e003000081
:020000040000fa
:04009c00e00300007d
:020000040000fa
:0400a000e003000079
:020000040000fa
:0400a400e003000075
:020000040000fa
:0400a800e003000071
:020000040000fa
:0400ac00e00300006d
:020000040000fa
:0400b000e003000069
:020000040000fa
:0400b400e003000065
:020000040000fa
:0400b800e003000061
:020000040000fa
:0400bc00e00300005d
:020000040000fa
:0400c000e003000059
:020000040000fa
:0400c400e003000055
:020000040000fa
:0400c800e003000051
:020000040000fa
:0400cc00e00300004d
:020000040000fa
:0400d000e003000049
:020000040000fa
:0400d400e003000045
:020000040000fa
:0400d800e003000041
:020000040000fa
:0400dc00e00300003d
:020000040000fa
:0400e000e003000039
:020000040000fa
:0400e400e003000035
:020000040000fa
:0400e800e003000031
:020000040000fa
:0400ec00e00300002d
:020000040000fa
:0400f000e003000029
:020000040000fa
:0400f400e003000025
:020000040000fa
:0400f800e003000021
:020000040000fa
:0400fc00e00300001d
:020000040000fa
:04010000e003000018
:020000040000fa
:04010400e003000014
:020000040000fa
:04010800e003000010
:020000040000fa
:04010c00e00300000c
:020000040000fa
:04011000e003000008
:020000040000fa
:04011400e003000004
:020000040000fa
:04011800e003000000
:020000040000fa
:04011c00e0030000fc
:020000040000fa
:04012000e0030000f8
:020000040000fa
:04012400e0030000f4
:020000040000fa
:04012800e0030000f0
:020000040000fa
:04012c00e0030000ec
:020000040000fa
:04013000e0030000e8
:020000040000fa
:04013400e0030000e4
:020000040000fa
:04013800e0030000e0
:020000040000fa
:04013c00e0030000dc
:020000040000fa
:04014000e0030000d8
:020000040000fa
:04014400e0030000d4
:020000040000fa
:04014800e0030000d0
:020000040000fa
:04014c00e0030000cc
:020000040000fa
:04015000e0030000c8
:020000040000fa
:04015400e0030000c4
:020000040000fa
:04015800e0030000c0
:020000040000fa
:04015c00e0030000bc
:020000040000fa
:04016000e0030000b8
:020000040000fa
:04016400e0030000b4
:020000040000fa
:04016800e0030000b0
:020000040000fa
:04016c00e0030000ac
:020000040000fa
:04017000e0030000a8
:020000040000fa
:04017400e0030000a4
:020000040000fa
:04017800e0030000a0
:020000040000fa
:04017c00e00300009c
:020000040000fa
:04018000e003000098
:020000040000fa
:04018400e003000094
:020000040000fa
:04018800e003000090
:020000040000fa
:04018c00e00300008c
:020000040000fa
:04019000e003000088
:020000040000fa
:04019400e003000084
:020000040000fa
:04019800e003000080
:020000040000fa
:04019c00e00300007c
:020000040000fa
:0401a000e003000078
:020000040000fa
:0401a400e003000074
:020000040000fa
:0401a800e003000070
:020000040000fa
:0401ac00e00300006c
:020000040000fa
:0401b000e003000068
:020000040000fa
:0401b400e003000064
:020000040000fa
:0401b800e003000060
:020000040000fa
:0401bc00e00300005c
:020000040000fa
:0401c000e003000058
:020000040000fa
:0401c400e003000054
:020000040000fa
:0401c800e003000050
:020000040000fa
:0401cc00e00300004c
:020000040000fa
:0401d000e003000048
:020000040000fa
:0401d400e003000044
:020000040000fa
:0401d800e003000040
:020000040000fa
:0401dc00e00300003c
:020000040000fa
:0401e000e003000038
:020000040000fa
:0401e400e003000034
:020000040000fa
:0401e800e003000030
:020000040000fa
:0401ec00e00300002c
:020000040000fa
:0401f000e003000028
:020000040000fa
:0401f400e003000024
:020000040000fa
:0401f800e003000020
:020000040000fa
:0401fc00e00300001c
:020000040000fa
:04020000e003000017
:020000040000fa
:04020400e003000013
:020000040000fa
:04020800e00300000f
:020000040000fa
:04020c00e00300000b
:020000040000fa
:04021000e003000007
:020000040000fa
:04021400e003000003
:020000040000fa
:04021800e0030000ff
:020000040000fa
:04021c00e0030000fb
:020000040000fa
:04022000e0030000f7
:020000040000fa
:04022400e0030000f3
:020000040000fa
:04022800e0030000ef
:020000040000fa
:04022c00e0030000eb
:020000040000fa
:04023000e0030000e7
:020000040000fa
:04023400e0030000e3
:020000040000fa
:04023800e0030000df
:020000040000fa
:04023c00e0030000db
:020000040000fa
:04024000e0030000d7
:020000040000fa
:04024400e0030000d3
:020000040000fa
:04024800e0030000cf
:020000040000fa
:04024c00e0030000cb
:020000040000fa
:04025000e0030000c7
:020000040000fa
:04025400e0030000c3
:020000040000fa
:04025800e0030000bf
:020000040000fa
:04025c00e0030000bb
:020000040000fa
:04026000e0030000b7
:020000040000fa
:04026400e0030000b3
:020000040000fa
:10040000cf3521000eff27000e01880000000000fc
:10041000000020000000e000020032000001200087
:1004200020028800140007002d0107000000e000f2
:1004300003003a002048220001002000020037009b
:100440000000200001002000810f70000100320038
:100450000f000700000020000000e0000200320052
:100460000000020000000000c6230200000000009f
:100470000040da000000fe00200420000000e00040
:1004800002003200002020009001880000000600d9
:10049000a1028800800478000000eb001f003700f4
:1004a000e284440054a0b4009905ba00e2844400f8
:1004b00054a0b4009906ba00e284440054a0b400e9
:1004c0000006eb00476fde00fd07b200ae018800ba
:1004d000636ce10003003a000ad801000000eb0061
:1004e0000e003700606ce10008003a00004deb00a0
:1004f0000a05e800020039003420ec000af0a000f0
:100500008b05e900f9ff3e00040037006168e10057
:10051000010032000086eb000b00070019c7ba008b
:100520000e04e0001905ba0003003a000a00e000da
:10053000dbff3a0000000600fe07b200ae028800b2
:100540008a047800f5ff37000cd0a300e20f4d00bd
:100550001c00390089027800354dba000a05e80010
:10056000020039003420ec000af0a0008b05e900fd
:100570000f003200254dba000a05e80002003900dc
:100580003420ec000af0a0008b05e90008003200de
:100590000c00e0000600320015cdba000a05e800a4
:1005a000020039003420ec000af0a0008b05e900bd
:1005b0008984e80054a0b4000b00e000e2ff3a0098
:1005c000000006009902ba00055d78008b05e9007d
:1005d000f7ff3200c82ade00055d78008b05e900d0
:1005e000f3ff32000c00e000f1ff320019ddba0029
:1005f000eeff3700a0200400000000003600f800e5
:10060000809fbe00829fbe00849fbe00869fbe006a
:100610001400fa000068a9000080800011808000aa
:1006200061004000e0804800008088001180880060
:10063000a50c0700008fbe00640147001e00780073
:100640009e009000809fbe00e09d2900801f7800e2
:1006500002007800fb010700e6875700209e290072
:10066000530e070064004700510e0700109f290039
:100670004f0e07000080fa004f03be004f02be007d
:100680004f01be004f00be003600f90000400600da
:100690003600f800809fbe00829fbe00849fbe008f
:1006a000869fbe003200f8003400f80010002000e1
:1006b000a0018800002020009001880000000000b8
:1006c0000000fa000188a90040222000e70d070081
:1006d0000080fa003400f9003200f9004f03be0038
:1006e0004f02be004f01be004f00be003600f900b1
:1006f000004006003600f800809fbe00829fbe00ca
:10070000849fbe00869fbe003200f8003400f800cf
:1007100010002000a0018800002020009001880027
:10072000000000000200fa000168a900e0808000db
:100730000000e00006003200301180000040780028
:100740009d0d0700000a2200000001000200370092
:1007500030118000004f780010002000e0808800f9
:100760000080fa003400f9003200f9004f03be00a7
:100770004f02be004f01be004f00be003600f90020
:10078000004006000000fa00c028a900ffff370063
:100790000000fa00c068a900ffff37000000fa005f
:1007a000c048a900ffff37000000fa00c088a90078
:1007b000ffff37000000fa00c0a8a900ffff3700c4
:1007c0000000fa00ffff37000000fa00ffff3700cb
:1007d0000000fa00ffff37000a00fa00e20f5000a5
:1007e00034003e00d09a8000e10f50000300320038
:1007f000e20f500011003a000c00370003222000e5
:100800000300e00001003a000040da002002e200ac
:10081000020035002822ef0021e2a8002342ab00ad
:100820000d003a002342a8000b00370003232000ec
:100830000300e00001003a000040da003002e2006c
:10084000020035003822ef0031e2a8003342ab004d
:1008500001003a003342a800820178000b00370003
:100860003102fb00e10f500004003a002322ab00ec
:10087000feff3a0024118800030037003322ab004a
:10088000feff3a00a41188008301e9000300e000a4
:10089000f3ff3a00e10f500003003a002302ab00df
:1008a000feff32000b0037003302ab00feff3200c8
:1008b0000800370033002000b3bf9f00c0bf9f0077
:1008c000d1bf9f00e2bf9f006a805700ef0707007b
:1008d0006fb99700020078000080fa00000006005f
:1008e0000000050003f0a200889fbe008a9fbe00a2
:1008f0008c1f7800c3000700ca0033006450e10079
:100900004f0032006420e1005200320003826c008c
:1009100007003b000905d0000306d000820f5400f9
:100920000c065d00020039000200320089017800e7
:10093000030678008582550004003d000003fd0099
:100940008103fd008502ea008b854200840f72005e
:1009500002003b0060001000e08018006011b80049
:100960000005eb007a28e1000a0039000600780053
:10097000c75ddd00f707b200878075002d003700e6
:10098000828171000a017800610560008180d100d8
:100990000080d3008502e900f9ff3b000604400017
:1009a0008784480002003b0060041400e0841c00bf
:1009b0000988a300070032008a81710082817100da
:1009c000610164008904d1000884d3008b05e8002c
:1009d000170037000978a30013003a000b00e0006d
:1009e000130034008b05e9000804440089844c009e
:1009f0000a4474000978a3000d003a000b00e000df
:100a0000070034008b05e9000804440089844c0089
:100a100001003a000b0020000978a300f7ff320024
:100a20000001eb0002003700828171000a017800aa
:100a30004e0007000cf0a70001f0a0008200370074
:100a40006420e10002003a00838f6c0082003300d2
:100a50000801be000200be007b003700889fbe0078
:100a60008a9fbe008c1f7800660007006d0033006f
:100a700003866c006450e1002e0032006420e10027
:100a8000330032006150e1002f0032006120e100ac
:100a90003100320085855500eb07b00009002000c9
:100aa00008042000050037000804440089844c0035
:100ab0000a0031000603430087834b000001530006
:100ac00081815b00f8ff33000203be000800a00034
:100ad0000804440089844c00f6ff3900c639dd0063
:100ae0008301730001003200130020008904d1004b
:100af0000884d3000998a300050032000800a7006d
:100b00000300a0008904d1000884d3008b05e8000d
:100b10008904d1000884d3000001eb000281d200d7
:100b20001200070001f0a1000cf0a70001f0a000e6
:100b3000450037006420e100470032000801be0094
:100b40000200be00f7ff37006120e10042003200e2
:100b50006000b800f3ff37000000200001f8270014
:100b6000f0ff37006011b8007200370081002000ec
:100b7000618055000b003d000b00200061fe2f003e
:100b80000100e1001d0034008281710061016400f8
:100b90008904d1000884d3000000e800faff3a007d
:100ba000710020006100640003007000020060001a
:100bb0000900320061044400e0844c000988a5006b
:100bc000050032008b05e8006808e10002003a00e9
:100bd0008904d1000884d300f20f20000258e100fc
:100be00005003d00c75ddd00f907b2008980750092
:100bf00008007800000006000bf827008b00780042
:100c0000000005000004be00790007000003be00dc
:100c10000405be000200be0075000700844f750089
:100c2000000006000200be006450e100050036002e
:100c30006420e100020036000968a30001003a00c8
:100c40000800be000160a0004f0678004f05be00fe
:100c50004f04be0000000600f0ff2f00f1ff270048
:100c6000f9ff3700889fbe008a9fbe008c1f780066
:100c7000e4ff0700ebff330003866c006450e100e3
:100c8000240032006420e100270032006150e100be
:100c9000220032006120e100210032008b854200f9
:100ca000eb07b1000134b800003ab8000804420074
:100cb00089844a00013ab8000030b80088804000ba
:100cc00009014a0004003300000040008180480010
:100cd000020149008b05e900c909dd0083017000ac
:100ce0000100320013002000c814de004814dd00ab
:100cf0004709de001200b200c808de000884700058
:100d00009aff070001f0a1000cf0a70001f0a0007d
:100d1000cdff37006120e100cfff32000801be00a7
:100d20000200be00f7ff37006150e100fcff3a000f
:100d3000c9ff3700889fbe008a9fbe0000827000f6
:100d40000402710004827100260032000004be001b
:100d50000200be006011b8006b092000950220005f
:100d60000182cf000a0039000541b1000082cf00a6
:100d7000070039000541b1000982cf0004003900a5
:100d80000541b1000882cf00010039000541b100e2
:100d900005425200120032000a003b0082817100bd
:100da000610164008100d1000080d3008984d300f8
:100db0000884d3008b05e8000442e800f7ff3a00fe
:100dc000070037000804440089844c0000004800f4
:100dd000818048008b05e9000442e900f9ff3a00f0
:100de00062ff07004f05be004f04be000000060072
:100df000c70ade00f107b200f50fb20008003200aa
:100e0000e1cf4200020032000170a0002400050082
:100e1000810f700001003200040805004400050045
:100e2000810f700002003a00140005008502e900fd
:100e30000000400081c04800fcff3b000170a000a2
:100e4000240005000c00fa00889fbe000004780012
:100e5000f0ff2700d0bf9f008004eb0099bf9f00e8
:100e600088bf9f00a8bf9f00200c2000b0bf9f003c
:100e700078815700cfb0970070805700e7000700d7
:100e80000fb89700094878008fb897000880500085
:100e90004f04be000080fa00000006000800fa00bf
:100ea000889fbe008a9fbe000084fb00d1c6b300ad
:100eb000814f50003a0036004b0620001100090017
:100ec0000b84d80081057800720040004300dd00eb
:100ed000890e2100008044006022b8000600200036
:100ee00007fe23009000900020019000b0019000c8
:100ef00010007800040807000002be000203be00d4
:100f000084bf9f0095bf9f00a6bf9f00b7bf9f00f3
:100f1000aa002000110009008a85d8008005780009
:100f2000e9854500c35ddd008b8544001b02780028
:100f30009b0290002b039000bb0390000fb897001a
:100f40009fb897002fb99700bfb99700ee07070029
:100f50000002be000203be0084bf9f0095bf9f0039
:100f6000a6bf9f00b7bf9f00110009000a84d800e8
:100f7000010478004344dd008884440019027800ad
:100f80009902900029039000b90390000fb89700d0
:100f90009fb897002fb99700bfb99700230037007b
:100fa000ea4f500017003600aa0020001100090087
:100fb0000a84d80001057800690440004344dd003c
:100fc000890e2100088444006022b8000600200039
:100fd00007fe230018007800980090002801900078
:100fe000b8019000c80707004355dd008a8444001b
:100ff000190278009902900029039000b90390002b
:101000000a0037004344dd00800e21000804400040
:101010006022b8000600200007fe230018007800b8
:101020009800900028019000b8019000b6070700d2
:101030004f05be004f04be000080fa00000006000d
:101040000800fa00889fbe008a9fbe00d1c6b30088
:101050000004e00027003d000040ea000004fb001f
:10106000814f50000a0034004206200011000900a0
:101070000204d800a9002000110009008900d8004e
:10108000e9004000c308dd008a0e2100250037007a
:10109000ea4f500014003400a200200011000900a3
:1010a0000204d80001017800690040004300dd001f
:1010b000810e2100008040004311dd00828040004d
:1010c000110278009102900021039000b10390007a
:1010d0009000900020019000b00190001000780076
:1010e00089070700400037004344dd00800e2100df
:1010f000380037000004fb00814f50002900340005
:1011000042062000110009000204d800a9002000b6
:10111000110009008900d800e9004000c308dd0083
:101120008a0321008100450011027800910290009d
:1011300021039000b10390008b0920008a854500af
:101140001b0078009b0090002b019000bb019000d9
:101150006d0707000002be000203be0084bf9f00af
:1011600095bf9f00a6bf9f00b7bf9f001100090059
:101170000904d800010478004344dd000805450057
:101180001a0278009a0290002a039000ba03900095
:101190000fb897009fb897002fb99700bfb9970075
:1011a000cfff3700ea4f500008003400a2002000b3
:1011b000110009000204d800010178006900400014
:1011c0004300dd0081032100baff37004344dd0006
:1011d0008003210008044000180078009800900067
:1011e00028019000b80190004f05be004f04be00da
:1011f0000080fa0000000600d0019000028151003a
:101200004240a90003003400100178000149780031
:101210000208e80001007800000006006f02b0003c
:10122000889fbe008a9fbe008c9fbe008e1f7800e4
:1012300000067800b1af9f0092b79f006000b80031
:101240006011b800d0af9f00e1af9f00f2af9f00e8
:1012500083b79f008006eb00d2043700bfa8970039
:101260008100e800b1af9f0051c2b300814f500030
:1012700003003a00bfa897000007eb0011003700f9
:10128000bc0090000000fb000168a30007003200d2
:101290000d017800800078000c007800d6ff070070
:1012a0000000e00005003a00be0437008c00780022
:1012b000e7040700e10f4000ba0432008d06e800a1
:1012c000b80437000101780031407800d3c2b30080
:1012d000834f50000c00320007003c00edc151006c
:1012e000834f50000a003200ebc14100834f500091
:1012f0000d003a000800370003c3b300834f5000cd
:1013000009003a00060037000e30a000edff37005c
:101310000e00a000ebff37000e10a000e9ff370021
:101320000e20a000e7ff37000e18a30001003200d6
:101330000e00a1000e38a300010032000e20a10013
:101340008000fb000103b100e98f50000c003e005b
:10135000020078008005eb00ea59b900b005fb00f7
:101360000b03b10082854500000178009000fb006e
:101370000103b100e98f5000f7ff36000800370085
:101380008005eb00a1c2b300814f500004003a0079
:101390009fb19700c305780093b79f000201e80052
:1013a000e0c2b300924f100016003a000ee0a00019
:1013b00064405000d24f1000030032000200780059
:1013c0008001eb00080037009fb2970045037800ca
:1013d00095b79f00e6b79f000201e8000c003700b8
:1013e000ea19b9008281400000017800b000fb00da
:1013f0000103b100e98f5000f9ff3600e3b79f0009
:10140000030037000ec0a0008003eb00e7b79f0089
:10141000820178003340780003017800c1c6b30030
:10142000814f50002b003200b3af9f0014003c00ee
:10143000e8c05000814f50002400320009003c00f9
:10144000ecc05000814f50002a003200ebc0400039
:10145000814f50008c0032000004e000560432003e
:10146000a200370061c6b300814f50001b0032005c
:10147000e3c04000814f50009c003a001300370049
:1014800031c7b300814f50001e00320007003c00fe
:10149000e4c05000814f5000130032008140e8004a
:1014a000814f500091003a001200370051c7b3003d
:1014b000814f500092003200e3c04000814f500045
:1014c0008a003a00e0cf9f000c003700e0cf9f0079
:1014d0008d0037000e40a000cdff3700e0cf9f0009
:1014e0000ea0a00088003700e0cf9f000e60a00093
:1014f00085003700e0cf9f000e50a0000e70a000c6
:1015000081003700e0cf9f009fb097004100780036
:1015100091b79f00000478000000e00001003a004d
:10152000e82f2100880078000000eb000100370060
:101530000000e800008140001204e000fcff3a00d7
:10154000800478006fb197000200e00003003200d1
:10155000890f510001003100820478000005eb0082
:10156000898f55000100360009855500680767001e
:101570002a003a00110037003c0090000068a300e8
:10158000070032000d017800010220000c007800f5
:1015900019ff07000000e00006003a0006003700cf
:1015a0008c0078000002200029040700e10f4000b1
:1015b000010032008d06e8000a05e9000a00e0009b
:1015c000edff3a000085eb00140037003c0090006e
:1015d0000068a3000900320008007800b000fb009a
:1015e000000478000d0178000c00780002ff07006d
:1015f0000000e00008003a0008003700880078008a
:101600003100fb00010478008c0078001004070012
:10161000e10f4000010032008d06e800090078006b
:101620008004e9000000e000e8ff3a000e00e0005e
:10163000dc033200110037003c0090000068a3007a
:10164000070032000d017800010220000c00780034
:10165000e9fe07000000e00006003a00060037003f
:101660008c00780000022000f9030700e10f400021
:10167000010032008d06e8000a05e9000a00e000da
:10168000edff3a00c70337009fb19700430278008f
:1016900093b79f00cfa2de00482bdd004820de007c
:1016a00000007300c828de00e0cf9f000e48a300b2
:1016b000080032000004e00006003200e14f400064
:1016c00004003200f0cf9f0084d79f002900200043
:1016d00002003700f4cf9f0019002000e7fc2f0024
:1016e0008f8343000704e80096ff3700e0cf9f0098
:1016f000e8fc2f000f0444001900200091ff370080
:10170000e0cf9f000e0cb300017020008100670045
:10171000700067000100e000220232000ec8a30042
:101720000200320061002000e1b79f000000e000ed
:10173000080032001fb097006800500010027800c7
:101740009002900020039000b003900090b79f009b
:10175000080037001fb197006401510012007800a3
:101760009200900092b79f00770507000002be002c
:101770000203be00a4b79f00b5b79f00c6b79f0085
:10178000d7b79f006022b8006033b8002fb0970031
:10179000bfb097004fb19700dfb19700bc040700be
:1017a0000000e0000a003d002fb09700bfb0970096
:1017b0004fb19700dfb1970003f0a200a0b79f00e0
:1017c000b1b79f00c2b79f00d3b79f003e00b300e0
:1017d0000000eb0090af9f006022b8006033b800bb
:1017e0002fb09700bfb097004fb19700dfb19700bf
:1017f0000b0507000000e0003400320024fd2f003c
:101800000f0242002fb09700bfb097004fb1970072
:10181000dfb197009e0507001fa897000000e900b0
:10182000e300b900a2002000110009000200d80066
:1018300090af9f000000e00002003d000000e900c2
:1018400090af9f001fac97000840ea00fcfd070026
:101850002fb29700bfb297004fb39700dfb3970046
:10186000a90507000002be000203be00d4af9f001e
:10187000e5af9f00f6af9f0087b79f006022b800da
:101880000600200007ff2300810407000000e0009d
:1018900002003d000804e9000b0037006022b80098
:1018a00006002000470224005fa89700efa89700d9
:1018b0007fa997008fb197007a0407000000e0002d
:1018c000020035000804e80098af9f00efb29700cf
:1018d000ec8f52000f003c00054078006ffd0700c0
:1018e0000002be000203be002fb09700bfb09700f9
:1018f0004fb19700dfb19700e70307000002be0079
:101900000203be00a4b79f00b5b79f00c6b79f00f3
:10191000d7b79f001fac9700e90f540015003c009b
:101920006022b8006033b8002fb09700bfb09700b6
:101930004fb19700dfb19700b90407000000e00045
:10194000310032002fb09700bfb097004fb1970021
:10195000dfb197001b050700e00f5000e08f580033
:10196000e00f5900e08f590027003a00e10f5400c2
:10197000250034000400200005002e00b6e02200ff
:10198000170124005fa89700efa897007fa9970090
:101990008fb197003e0407000000e00002003d0008
:1019a00069045400010037006804540098af9f0098
:1019b0002fd09700a2fd07000002be000203be0068
:1019c000d4af9f00e5af9f00f6af9f0087b79f00a1
:1019d0002fb09700bfb097004fb19700dfb19700cd
:1019e00035040700f70407000004be006000b800db
:1019f0006011b800a0b79f00b1b79f00c2b79f00a9
:101a0000d3b79f00160037002fb09700bfb09700e4
:101a10004fb19700dfb19700ea0407000004be0051
:101a2000190507000002be000203be002fb0970098
:101a3000bfb097004fb19700dfb19700a80507002e
:101a40000002be000203be00a4b79f00b5b79f000e
:101a5000c6b79f00d7b79f000000eb0090af9f0074
:101a60006130210010c0b30005003700e480400061
:101a7000b10f5400a18f5c00030039000040e80062
:101a8000ea4f5000f9ff3a00e0cf9f009fa897006f
:101a900081805500efb29700858050000000fb0068
:101aa000008550000500e000010032000a05e90051
:101ab00063006700010032000a05e9000e28a30058
:101ac00039003200610167000e18a3000f003200d8
:101ad0003c0090000068a30006003200b102200024
:101ae0000200e000010032008180e8000d01780072
:101af0000d003700b00220000200e00001003200bb
:101b00000080e8008c0078000e0037000200e00042
:101b1000220032003c0090000068a3000700320061
:101b20000d017800010220000c007800b2fd0700d2
:101b30000000e00006003a00180037008c00780032
:101b400000022000c2020700e10f40001300320033
:101b50008d06e800110037003c0090000068a300eb
:101b6000070032000d017800010320000c0078000e
:101b7000a1fd07000000e00006003a000600370063
:101b80008c00780000032000b1020700e10f400044
:101b9000010032008d06e8000a05e9000a00e000b5
:101ba000edff3c00590037000e38a30014003a0046
:101bb000110037003c0090000068a30007003200cd
:101bc0000d017800010220000c0078008afd07005a
:101bd0000000e00006003a00060037008c007800a4
:101be000000220009a020700e10f400001003200cd
:101bf0008d06e8000a05e9000a00e000edff3c0060
:101c0000610167000e18a3000e0032003c00900036
:101c10000068a30005003200b10220000200e000cd
:101c2000230032008180e80021003700b00220004c
:101c30000200e000010032000080e8008c00780023
:101c40002e0037000200e000300032003c0090001f
:101c50000068a300030032000d017800010220009b
:101c6000140037008c0078000002200023003700a9
:101c70003c019000603021008100fb000268a3005d
:101c800011003200c208dd0081004000110178001f
:101c9000910190000800be0013050700a20020007b
:101ca0000300200020050700010320008080400081
:101cb0000d0178000c0078004ffd07000000e000e7
:101cc00011003a0011003700c208dd008100400019
:101cd00011017800910190000800be000205070084
:101ce000a2002000030020000f05070002032000cf
:101cf000000141008c0078000200780054020700c7
:101d0000e10f4000010032008d06e8006fc8970027
:101d10008040e900e1cf9f000004e000d4ff3a00da
:101d2000130037003c0090000068a3000700320059
:101d30000d017800010320000c0078002efd070043
:101d40000000e00006003a00060037008c00780032
:101d5000000320003e020700e10f400001003200b6
:101d60008d06e8001fa897000000e90090af9f00d3
:101d70001fa897000000e000eaff3c006fb3970047
:101d8000e80f53000300340080c0b300e0cf9f0091
:101d900002003700cfeb9700e7cf9f006fc8970096
:101da0008005fb00efb097008b8550000004e00039
:101db000100032003c0090000068a30007003200d1
:101dc0000d017800e10220000c0078000afd0700f8
:101dd0000000e00006003a00060037008c007800a2
:101de000e00220001a020700e10f4000010032006b
:101df0008d06e8006fc8970091fc07000002be0046
:101e00000203be002fb09700bfb097004fb19700fc
:101e1000dfb197003c040700ea03070030003700f9
:101e20003c019000613021000000fb000268a3002b
:101e3000110032004200dd00808040001101780076
:101e4000910190000800be00a7040700a200200036
:101e500003002000b404070001032000808040003c
:101e60000d0178000c007800e3fc07000000e000a2
:101e700011003a00110037004200dd008080400070
:101e800011017800910190000800be00960407003f
:101e9000a200200003002000a3040700020320008a
:101ea000000141008c00780002007800e801070082
:101eb000e10f4000010032008d06e8006fc9970075
:101ec0000200fb004200dd00613021000080400084
:101ed00010017800900190000800be0092040700f5
:101ee0000004be00efc897000140e900e0cf9f006a
:101ef0000104e000caff3a00110037003c009000e6
:101f00000068a300070032000d01780001032000e3
:101f10000c007800b8fc07000000e00006003a0062
:101f2000060037008c00780000032000c80107007d
:101f3000e10f4000010032008d06e8008b05e9004a
:101f40000b00e000edff3a000e38a30095013200cf
:101f50000a00e000930134003c0090000068a300f8
:101f6000070032000d017800010220000c0078000b
:101f7000a1fc07000000e00006003a000600370060
:101f80008c00780000022000b1010700e10f400042
:101f9000010032008d06e8000a05e900eeff3a0074
:101fa000800137008e007800010cb20013003a0067
:101fb0000000e000060032009fb19700e48151006c
:101fc000130478009304900093b79f000400370037
:101fd0001fb297004404780094b79f00cfc4de007e
:101fe000e00f5400e08f5c0010003d003e00b300a5
:101ff00060041400e0841c000c0037000000e000c6
:10200000060032009fb29700e48252001504780067
:102010009504900095b79f00040037001fb3970008
:102020004604780096b79f008004eb00efb397005a
:102030000700e00006003a000880740000f0a700e6
:102040000000ea000000e9004f00de00e0b79f005a
:102050000e007800000cb200c0af9f00000420000a
:10206000cfa89700808f50002300320003003c006f
:102070000100e000080032002d00370000082000b9
:102080004fa99700800f51000d003200000c200076
:10209000800f510026003a006130210010c0b300cb
:1020a000e4804000b10f5400a18f5c001f00390094
:1020b0000040e800ea4f5000f9ff3a001b003700eb
:1020c00010c0b3000201200003002000820f540062
:1020d000838f5c0015003900441add00cc11de004e
:1020e000830172004411dd000040e800e84f500019
:1020f000f6ff3a000d00370010c0b3008200200048
:1021000003002000820f5400838f5c000700390019
:10211000c31add00cd11de00838172004311dd00a2
:102120000040e800eb4f5000f6ff3a00e0cf9f0080
:102130006fcb97000600fb00efb39700870f5000ae
:1021400002003d00e7cf9f0004003700efb097008a
:10215000808f500001003d00e0b79f000b00e000c1
:102160000300320063006700010032008b05e900c4
:102170000ee8a300060032006fb19700828f550071
:102180000200340082855500010037008005eb0015
:10219000efc997000300fb000002eb00a4b79f000b
:1021a000808f55000200340000805500a0b79f00ca
:1021b0000e28a3003c003200610167000e18a30046
:1021c0000f0032003c0090000068a30006003200bf
:1021d000b10220000200e000010032008180e8002e
:1021e0000d0178000d003700b00220000200e00071
:1021f000010032000080e8008c0078000e003700fb
:102200000200e000100032003c0090000068a300d3
:10221000070032000d017800010220000c00780058
:10222000f5fb07000000e00006003a00060037005a
:102230008c0078000002200005010700e10f40003b
:10224000010032008d06e800afb297000500e00003
:1022500052003200050578003c0090000068a300a1
:10226000070032000d017800010320000c00780007
:10227000e1fb07000000e00006003a00060037001e
:102280008c00780000032000f1000700e10f4000ff
:10229000010032008d06e8000a05e900eeff3a0071
:1022a000aab79f003d0037002fb397000600e0005b
:1022b000160032000e38a30014003a00060578001c
:1022c0003c0090000068a300070032000d01780078
:1022d000010220000c007800c7fb07000000e000ae
:1022e00006003a00060037008c007800000220004b
:1022f000d7000700e10f4000010032008d06e80022
:102300000a05e900eeff3a00aab79f0061016700e5
:102310000e18a3000f0032003c0090000068a300dc
:1023200006003200b10220000200e000010032008d
:102330008180e8000d0178000d003700b002200018
:102340000200e000010032000080e8008c0078000c
:102350000e0037000200e000100032003c00900048
:102360000068a300070032000d0178000102200080
:102370000c007800a0fb07000000e00006003a0017
:10238000060037008c00780000022000b000070033
:10239000e10f4000010032008d06e800efb3970026
:1023a0000702e900e320b900a0af9f004222dd0050
:1023b000603021000002420004057800cfad970094
:1023c0005d003700efb097008100e900e1b79f00a2
:1023d00000042000808f55003800320003003c00cc
:1023e0000b00e000070032003e003700000820002c
:1023f000808f550020003200000c2000808f550097
:1024000038003a000e48a300110032001a0278008a
:102410009a0290000401be000800be00f4b79f00bd
:1024200085bf9f0030030700e0cf9f000000fb0046
:10243000cf80de007fb297008fba97000401be0004
:102440003c0307000004540081845c00070037004f
:102450001a017800110009000284d800a2002000af
:10246000110009000280d800e1cf9f006fc99700da
:102470000243b0000f003700d02e21000e58a300f9
:1024800001003200c02d2100613021008100550083
:102490000801be008100e900030033008301d10080
:1024a0000281d300fbff37006f0161000201400091
:1024b00012417800e2cf9f000a0037000800be00fa
:1024c0002faa97000402e900030033008100d10025
:1024d0000080d300fbff3700674060000043b0007e
:1024e000e0cf9f00bc009000efca97000500fb0002
:1024f0000168a300070032000d0178008000780019
:102500000c0078003cfb07000000e00005003a00ea
:10251000050037008c0078004d000700e10f4000f7
:10252000010032008d06e8002fab970063035300d3
:10253000a6af9f0064055500efb397000700e000c9
:10254000a0ff3a000e38a300160032002fb097000b
:102550000000e00013003400000578003c0090000b
:102560000068a300070032000d017800010220007e
:102570000c00780020fb07000000e00006003a0095
:10258000060037008c0078000002200030000700b1
:10259000e10f4000010032008d06e8000a05e90065
:1025a000eeff3a00bfa8970011407800e0cf9f00ef
:1025b0000004e00029fb3a000d0078004f07780086
:1025c0004f06be004f05be004f04be006f02b100b3
:1025d000000006008000780001007800304178009b
:1025e00003c2b300834f5100faff3200e94f51009c
:1025f000f8ff3200edc14100834f510003003a0063
:102600008000780013c0b300050037008041eb0064
:10261000b4c2b300844f510001003a00800078003a
:102620000000eb0002003700ea00b90000004100a2
:102630003101fb000203b100e90f5100faff36003f
:102640000304e000010032000000ea000000060080
:10265000889fbe0001047800b80090008084eb00e1
:102660000118a3003a003200180190000198a3005d
:1026700002003a000200e00035003a000190a0009c
:102680003104980080047800f90fb2000200e000e5
:1026900002003a0028009000000c7800ea8f5400f5
:1026a00005003a000178a30003003a008800780092
:1026b000d0002000e6ff070018009000d80090002e
:1026c000810f50000b0032000000e8001004980059
:1026d0001800780009487800000ce80011c0b30029
:1026e0004035210001487800ea8f540018003a0074
:1026f00005003700880078000940780024000700b2
:102700008004780012003700380090000088a30091
:102710000f00320018019000a800900048009000bf
:102720002df8070098009000810f5000040032003f
:10273000380090000003b300300498008084eb0060
:102740000000eb001004980028009000000c7800b6
:10275000090078004f04be000000060080017800e8
:1027600002003700815978000201e9000200e00010
:10277000fcff3a0000000600800078003104e00011
:10278000feff3a000080ea000080400000000600e2
:102790000200fa00889fbe00a0ff9f00010478009d
:1027a000380090000068a30033003a00e2006000a7
:1027b00005003a000003b3003004980011049800ab
:1027c0000080eb002e003700d80490000900e000e4
:1027d00006003a0012002000e680570048009000f2
:1027e000fdf707001904980023003700a8009000a7
:1027f0000100e00008003a00713521002104980032
:10280000010c780021002000510498001104980068
:102810000030a0003004980018019000a80090003b
:1028200048009000ecf70700280090008080eb0043
:1028300011049800aff8970001487800000ce800f8
:102840002ff89700ea4f50000b003a003800900034
:102850000088a3000800320018019000a800900032
:1028600048009000dcf707000000eb00100498001f
:10287000a8009000010c7800aff897000100fb0061
:102880004f04be000080fa000000060000c0da001d
:1028900000000600000000002800fa00889fbe002b
:1028a0008a9fbe008c9fbe0007067800878669005d
:1028b0000c003b00030478008704780008f0a100b6
:1028c00009f0a100840f5000858f5800860f590031
:1028d000890f5c00030033000cf0a20001003a00f5
:1028e0000cf0a100ff0007006400e1005f0032006f
:1028f000780147006408e100610032006c01470084
:10290000748557003200be001201be003a04be00ba
:102910001a05be001e039000be0a900085035300f6
:1029200006003d000004fd008104fd000205fd00dd
:102930008305fd008703ea00050378000df8a30076
:102940000400320060041400e0841c0060051d00d7
:10295000e0851d006022b8007d0320000d38e100f5
:102960008006eb000b0039004433dd00f300b200b9
:102970008301730039003700848272000d027800f1
:10298000e10664008b85d1000a85d3008984d300d9
:102990000884d3008703e900f7ff3b0008004000ec
:1029a000898048000a0149008b81490004003b00ee
:1029b00060001000e080180060011900e08119003b
:1029c0000358a300090032008d82720084827200d5
:1029d000610260008301d1000281d3008180d300b5
:1029e0000080d3000603e8001b0037000348a30063
:1029f00017003a000600e000170034000603e90063
:102a00000d00a30000004800818048000201490039
:102a1000838149000348a3000f003a000600e0004c
:102a2000090034000603e9000000400081804800ee
:102a3000020149008381490001003a000003eb00d4
:102a40000348a300f5ff32006022b80002003700ff
:102a500084827200618266007600070003f0a100a4
:102a60000cf0a70003f0a000b2003700640147009b
:102a70006408e10002003a000df8a300aa003a0041
:102a800032007800b20078001201be00a9003700c1
:102a90008f1fd100ad0107008f87e9000000e00023
:102aa00000000600809feb00a80107008f87e90067
:102ab0000000e000000006002800fa00889fbe0029
:102ac0008a9fbe008c9fbe0003866b0085000700b6
:102ad0006400e100440032006408e1004a00320072
:102ae0006100e100460032006108e1004900320067
:102af000ec0647006000b8003d02be003d03be008a
:102b0000f48657006011b8003d04be003d05be00cc
:102b10007d0320000b0037000000a0008d06e900b7
:102b2000130032000402420085824a0006034b0073
:102b300087834b000000400081804800020149006b
:102b4000838149000802520089825a000a035b000f
:102b50008b835b00f0ff3b000802420089824a0041
:102b60000a034b008b834b008d06e900edff3a0012
:102b70008482720086827200f707b2008782720038
:102b800001003200150020001e0490003e0b900052
:102b900006035400e63fb0000368a30007003200bc
:102ba0000000a7000500a0008301d1000281d3002e
:102bb0008180d3000080d3000603e8008301d100a8
:102bc0000281d3008180d3000080d3000002eb009b
:102bd0000482d2001700070003f0a1000cf0a70048
:102be00003f0a00053003700640247006408e100ce
:102bf0004d0032003400be003401be00f6ff370045
:102c00006108e100480032006011b8006000b800bf
:102c1000f1ff370003ff270002002000fbff370011
:102c2000801feb00490107008f87e9000000e000ea
:102c30000000060018002000570020000804530080
:102c40000d003d000600200097fc2f000740e1002a
:102c50001e00340084827200610260008301d10092
:102c60000281d3008180d3000080d3000804e800f3
:102c7000f8ff3a004700200061046000050474007a
:102c8000040464000d00320061004000e080480050
:102c900060014900e081490003b8a5000700320047
:102ca0000603e8006538e10004003a008301d10022
:102cb0000281d3008180d3000080d300f87f200000
:102cc0000830e10003003500080378006000b80018
:102cd0006011b8004433dd00f300b20083017300db
:102ce00000000600680447000294be000094be0085
:102cf000fc0447008694be008494be00090078005e
:102d00005c010700080078005a010700990078006c
:102d1000814f70000b003b000800be00340107002b
:102d20004f00b10003003700f3ff2700f2ff2f0030
:102d30006110b9004f06be004f05be004f04be0033
:102d40000080fa00000006008103780028f80700e0
:102d50000001be006000b8000478a30013003a0030
:102d60006220e10015003e000d0039008301d10012
:102d70000281d3008180d3008301d1000281d3007e
:102d80008180d3008301d1000281d3008180d300f0
:102d90000538b000c42add00f300b2008381720060
:102da00007f0a70003f0a00000000600f3ff2700d3
:102db000f2ff2f006110b900fbff370003ff27006f
:102dc000f7ff37001400fa00889fbe008a9fbe00fc
:102dd0008c9fbe000004be000205be0068004700d4
:102de0000a90be000890be00220107000070a700f4
:102df0000bf0a1000bf8a30020003a009e09900000
:102e00000e099000fe0090006e0090009e0290005f
:102e10003443200084825200c6ff32000a003c0086
:102e2000b4fc2f000428e100140034008301d10019
:102e30000281d3008180d3000080d3008502e800a6
:102e4000faff3a00bbff3700b40020000428e1007d
:102e500007003c000000400081804800020149005a
:102e6000838149008502e900faff3a00b1ff37008b
:102e70000300280002002000010037006011b800a4
:102e80006000b800abff37006011b80020013700c8
:102e90001400fa00889fbe008a9fbe008c9fbe006f
:102ea000040678000004be000205be00680047006a
:102eb0000a90be000890be00ee0007006200e1002c
:102ec0000800be000a01be00040020000b003a000a
:102ed0001e029000e43fb1006e009000fe009000e2
:102ee0000e0990009e099000f300b20005fe230039
:102ef000858171000bf0a70003f0a000040e78009c
:102f00008cff3700000000002800fa00889fbe00f8
:102f10008a9fbe008c9fbe0003866b0071ff070076
:102f20000028a30064003a000128a30068003a00ca
:102f30000008a30062003a000108a30066003a00fe
:102f40001e009000be08900081064000ed3fb100d9
:102f5000f4805700ee019000111ab8008e0990001d
:102f6000311bb8009e099000311cb800511db800fb
:102f7000f485570046000700fe0190003a00070064
:102f80008b85e8003e0007008e0990004000070096
:102f9000ee019000340007008b85e8003800070040
:102fa0008e099000400007009e0990001b18b80091
:102fb000890440000a854800fe01900034000700a3
:102fc0008b85e80038000700ee0190003000070014
:102fd0008e0990001b18b800890440000a8548003b
:102fe0000a98a30008003a000402420085824a00c1
:102ff00006034b0087834b0008044c0089844c0077
:103000000a054d008d06e900848272008502730076
:103010004c3add00850272000100320015002000ec
:10302000443ade001400b2004538de00cb45dd0036
:103030000b007000c540de00cb4ddd008b807000c2
:103040004549de00cb55dd000b017100c551de00a6
:103050000d037800f7fe070003f0a1000cf0a700b5
:1030600003f0a00033ff37001b18b80085024000b2
:1030700006834800e0834b0060044c0007003700e3
:103080001b18b8000603400087834800faff37008a
:103090001b18b8008703400008844800e0844c00f7
:1030a00060054d00000006001b18b8000804400031
:1030b00089844800faff37000108a3001aff3a008c
:1030c0005800be00000000005801be00e2ff3700bb
:1030d0000008a30014ff3a0009047800f8ff370045
:1030e00007f0a200ecfd37006022b80006022000c5
:1030f0000000d0008180d2000482d2008582d200fc
:103100000000a0000202520083825a000300310036
:103110000202420083824a000000a1000603e90087
:10312000f3ff3a0000000600efff07000400be00b6
:1031300000000600020ab900001bb9000200b80036
:10314000810042008100430000000600889fbe000d
:103150008a9fbe008c9fbe000404be000605be0010
:10316000809fbe00829fbe003000070004067800ea
:103170000800be000a01be002c000700840678008b
:103180004f03be004f02be008d4f76007fb0970008
:1031900013003300f0ff2f008b8f6b0006003b0005
:1031a0000d0666000c00a7000a00370007f0a60015
:1031b000100020000a003700880f5200898f5a0043
:1031c0008a0f5b008b8f5b0003003900100020002a
:1031d00001003e000000200007f0a7000000ea0008
:1031e0004f06be004f05be004f04be0000000600a3
:1031f000e48240001078a30007003200640240001f
:103200001178a3003400be001401be000500320096
:103210000330a7000000060035007800b5007800f4
:103220001501be000330a0000000060005ff2700c6
:1032300005826100070032000428e100010032002d
:10324000240005000600070001003a0044000500c4
:103250000408050002000700f9ff3a001400050009
:103260006f82610081027000850271008502720028
:10327000000006005002be00e40050005003be00f3
:103280004439de00f700b200f37f20000301610043
:10329000090032000218e10016003a0085017200b0
:1032a00083017300838173000008200015003a0039
:1032b0004000200013003700850172008301730075
:1032c0008381730005003a0004a8be0006a8be0072
:1032d000100020000b0037000201e9000402420048
:1032e00085824a0006034b0087834b000748a300f2
:1032f000f9ff32000740a00004a8be0006a8be00e7
:103300002000200080009800920098000000060035
:10331000889fbe0000827000040271000482710068
:103320002400320036432000c50020008383cf00f4
:103330000a0039000541b1008283cf00070039003f
:103340000541b1008183cf00040039000541b1007f
:103350008083cf00010039000541b10085c35300cf
:103360006022b800120032000a003b008482720022
:10337000610260008301d1000281d3008180d3000b
:103380000080d3000603e8008743e800f7ff3a0017
:10339000070037000000400081804800020149001a
:1033a000838149000603e9008743e900f9ff3a00f9
:0c33b00020fe07004f04be0000000600d5
:020000040000fa
:1033bc00256c00007500000042650000747200006e
:1033cc0069650000627300007a6500006974000092
:1033dc003a200000000a0000004100007573000054
:1033ec006c61000073740000756e000067200000b3
:1033fc00696e0000202500003a2000000025000026
:10340c00660000004f4b00000a000000455200000f
:10341c00524f0000520a000000480000656c00008a
:10342c006c6f0000205700006f7200006c6400008d
:04343c000a00000082
:020000040000fa
:103440000000fa0008d0bf000004e0000b003200ca
:10345000608080000000e80060808800608080005c
:1034600080007800808180000000d100808f5000b3
:1034700002003900150eaa000c30ef000080fa009f
:10348000000006000000fa0009d0bf000004e000c0
:103490000b003200708080000000e800708088001f
:1034a0007080800080007800908180000000d10052
:1034b000808f500002003900152eaa000e30ef0058
:1034c0000080fa00000006000000fa000ad0bf00e9
:1034d0000004e0000b003200808080000000e80063
:1034e000808088008080800080007800a08180003b
:1034f0000000d100808f500002003900154eaa0054
:103500001030ef000080fa00000006000000fa0012
:103510000bd0bf000004e0000b0032009080800060
:103520000000e80090808800908080008000780093
:10353000b08180000000d100808f5000020039006f
:10354000156eaa001230ef000080fa00000006009d
:103550000000fa001173800000002100008060006c
:103560000000e00005003a0010c0b3002cf0b700e6
:10357000708180000000e800708188001173800075
:10358000000021000080600000f0a7000000ea00b9
:103590000000e9004f00de00c102210091407800e8
:1035a0008180fb00810f5000080032002c70ef007a
:1035b00070818000fe0f5000030036007081800093
:1035c00000004000808188002e30ef000080fa006b
:1035d000000006000000fa001173800000002200c5
:1035e000008060000000e00005003a0010c0b30059
:1035f00028f0b700508180000000e800508188006a
:1036000011738000000022000080600000f0a7001d
:103610000000ea000000e9004f00de008102210006
:10362000914078008180fb00810f5000080032003b
:103630002870ef0050818000fe0f5000030036001c
:103640005081800000004000908188002a30ef0007
:103650000080fa00000006000000fa0011738000ec
:1036600000002400008060000000e00005003a0037
:1036700010c0b30024f0b700308180000000e800e3
:1036800030818800117380000000240000806000f9
:1036900000f0a7000000ea000000e9004f00de0093
:1036a00041022100914078008180fb00810f500091
:1036b000080032002470ef0030818000fe0f5000bf
:1036c000030036003081800000004000a0818800a7
:1036d0002630ef000080fa00000006000000fa002b
:1036e0001173800000002800008060000000e000ee
:1036f00005003a0010c0b30020f0b7001081800030
:103700000000e8001081880011738000000028008c
:103710000080600000f0a7000000ea000000e9005f
:103720004f00de0001022100914078008180fb0003
:10373000810f5000080032002070ef0010818000df
:10374000fe0f500003003600108180000000400092
:10375000b08188002230ef000080fa0000000600ef
:103760000400fa00100798000000eb00000f78003a
:1037700009003700000000000100370000000000d1
:1037800000408000680060000000e000f9ff3200a7
:103790000068a9001e0fe8009e0078001e0090003f
:1037a000808f5000f5ff39000080fa00000006000d
:1037b0000600fa00200798006000b800008fbe00e5
:1037c0006000b800008fbe00040037001200200027
:1037d000030020001e0f41005e9749002e0090005c
:1037e0006101b800a0808000b1808000809ab9009b
:1037f000828bb90086027800050242000010b800f2
:103800000102420084007800be0f5000ae8f5800c5
:10381000eeff3e000080fa00000006000400fa00ff
:10382000008fbe001e0178009e019000028088007b
:103830001380880032002000600420007105200001
:1038400023742000804978008149780082497800fb
:1038500005e1a9000421a8000441a9002108800075
:10386000f0fc2f0000806000200888000021ef009d
:10387000f0ff27001008880001428000f0ff2800b8
:103880000080600000d0a000004288000068a9000d
:103890002068a80005e1a8000080fa0000000600ea
:1038a0000400fa00008fbe00c3e8a9001e017800e2
:1038b0009e0190000280880013808800c3e8a80061
:1038c0000080fa00000006000400fa00c3e8a90026
:1038d0000280800013808000028fbe00c3e8a80031
:1038e0001e0078009e0090000080fa000000060094
:1038f0000000fa00f08080000000e800f0808800fe
:10390000f1808000403d2000808f500064003a002c
:10391000142eef0002808000138080004000200001
:103920000100200002027800030178008001780085
:103930000100780003026200000061008000eb00db
:10394000c000dd00000020000001be006120b800c2
:103950000001710081817100e00f5100e08f59007a
:1039600002003a0004102000010037000002eb00c2
:103970000280800013808000800020000100200071
:10398000820278000301780080017800010078004d
:1039900083826200000061008000eb00c000dd0057
:1039a000000020000001be006128b8000001710085
:1039b00081817100e00f5100e08f590002003a0050
:1039c00000202000010037000000eb00040270001e
:1039d0000280800013808000000120000100200090
:1039e00082027800030178008001780001007800ed
:1039f00083826200000061008000eb00c000dd00f7
:103a0000000020000001be006128b8000001710024
:103a100081817100e00f5100e08f590002003a00ef
:103a200000402000010037000000eb00040270009d
:103a3000028080001380800000022000010020002e
:103a4000820278000301780080017800010078008c
:103a500083826200000061008000eb00c000dd0096
:103a6000000020000001be006128b80000017100c4
:103a700081817100e00f5100e08f590002003a008f
:103a800000802000010037000000eb0004007000ff
:103a900080007800a070800001007000a070880095
:103aa000f1808000803e2000808f500065003a0049
:103ab0001e30ef00142eef00028080001380800083
:103ac000400020000100200002027800030178007d
:103ad00080017800010078000302620000006100ac
:103ae0008000eb00c000dd00000020000001be00ef
:103af0006120b8000001710081817100e00f510068
:103b0000e08f59000200320004102000010037004d
:103b10000002eb0002808000138080008000200003
:103b20000100200082027800030178008001780003
:103b30000100780083826200000061008000eb00d9
:103b4000c000dd00000020000001be006128b800b8
:103b50000001710081817100e00f5100e08f590078
:103b60000200320000202000010037000000eb00be
:103b70000402700002808000138080000001200099
:103b800001002000820278000301780080017800a3
:103b90000100780083826200000061008000eb0079
:103ba000c000dd00000020000001be006128b80058
:103bb0000001710081817100e00f5100e08f590018
:103bc0000200320000402000010037000000eb003e
:103bd0000402700002808000138080000002200038
:103be0000100200082027800030178008001780043
:103bf0000100780083826200000061008000eb0019
:103c0000c000dd00000020000001be006128b800f7
:103c10000001710081817100e00f5100e08f5900b7
:103c20000200320000802000010037000000eb009d
:103c30000400700080007800a07080000100700017
:103c4000a07088000080fa00000006000000fa0062
:103c50000742a90006a2a900500f200020108800ea
:103c600007e2a8000080fa00000006000000fa0049
:103c70002002a9000111800090ff2f000080600049
:103c80000011880020a2a90001118000f0cf2f00b0
:103c9000008060000011880020c2a9002082a900d5
:103ca0002082a9002162a9002062a900100a200038
:103cb0004011880023a2a90023e2a9002362a900e1
:103cc00022a2a90023c2a90011118000f0f32f0045
:103cd00000806000101188001011800000c0a0005a
:103ce000101188002168a80021e2a8002342a80042
:103cf00020002000aefe07002188a8000080fa0006
:103d0000000006000200fa00004f7800540ea800e0
:103d100090232100104078000080fb008000e80024
:103d200080232100104078000080fb00808f50002d
:103d30000900320080232100104078000004e000d8
:103d400007003a009023210090407800f0c7b300ac
:103d500080cf500002003a000000eb001400370052
:103d600090232100104078000081fb009e407800e5
:103d7000801b2100000041000148780090232100b1
:103d8000104078008040e80090232100014878002e
:103d900090232100104078000004e00003003d0063
:103da000902321008040eb000148780010002000a3
:103db0000080fa00000006000200fa00004f7800c0
:103dc000540ea800b02b2100104078000080fb00aa
:103dd0008000e800a02b2100104078000080fb004c
:103de000808f500009003200a02b21001040780085
:103df0000004e00007003a00b02b2100904078005a
:103e0000f0c7b30080cf500002003a000000eb0082
:103e100014003700b02b2100104078000081fb0017
:103e20009e407800a0232100000041000148780056
:103e3000b02b2100104078008040e800b02b21001a
:103e400001487800b02b2100104078000004e00009
:103e500003003d00b02b21008040eb0001487800ba
:103e6000100020000080fa00000006000200fa00a6
:103e7000000f7800540ea8008023210090407800a5
:103e8000902321001040780080cf500002003a00bb
:103e90000000eb001600370080232100104078005e
:103ea0008080fb00801b21000080400010407800d3
:103eb000804078001e0078000148780080232100af
:103ec000104078008040e8008023210001487800fd
:103ed00080232100104078000004e00003003d0032
:103ee000802321008040eb00014878001000200072
:103ef0000080fa00000006000200fa00000f7800bf
:103f0000540ea800a02b210090407800b02b210077
:103f10001040780080cf500002003a000000eb0013
:103f200016003700a02b2100104078008080fb0095
:103f3000a0232100008040001040780080407800dd
:103f40001e00780001487800a02b21001040780066
:103f50008040e800a02b210001487800a02b210020
:103f6000104078000004e00003003d00a02b210079
:103f70008040eb0001487800100020000080fa002b
:103f8000000006000400fa0020479800540ea80024
:103f9000c3e8a9002e4090005aff0700000f7800e8
:103fa000c3e8a8001e0078000080fa0000000600a8
:103fb0000800fa0030079800540ea8003e00900058
:103fc000edf9070020079800c3e8a9000000eb0006
:103fd000000f7800070037003e0090001e004000f0
:103fe0001040780047ff07000000e00006003200a4
:103ff0001e0fe8002e0090009e007800808f500079
:10400000f5ff39000100370000000000c3e8a800f8
:104010001e00ea00100798009e0090002e009000fd
:104020000000ea00808f500003003a001e0090005c
:104030000000ea00100798000188a8001e00900008
:104040000080fa00000006002000fa00d080800006
:104050000000e800d0808800d1808000f07022004d
:10406000808f50003400360031088000010f780046
:1040700041088000110798001e0078008000eb00c6
:10408000b8f207000200200003122400f5f2070036
:1040900020079800310798001e0090008000eb0078
:1040a000b0f2070002f02f00f3772400edf20700d2
:1040b0000200200003122400eaf2070040079800e3
:1040c000510798004e019000de0190002e009000f4
:1040d000be00900004f2070002c22b00e3bb2400e4
:1040e0005ef2070060079800710798001a30ef0031
:1040f0000821ef000a21ef000621ef00309f290080
:10410000abff0700700147006e009000fe009000ba
:10411000809fbe0050a02900801f78000200780018
:1041200048f30700e687570070004700a0ff07002c
:10413000109f29009eff07000080fa000000060083
:104140000600fa00640047006bff07004e40900035
:10415000ea4f500013003a000000eb00000f780017
:1041600007003700c02b21001e004000904078005f
:10417000801921001e004000014878001e0fe80051
:104180001e007800ff0f5000f6ff340002022000ee
:104190008000eb00c02b210070f907001830ef0001
:1041a00008003700c0808000ce409000c22b210064
:1041b0000000410001487800c08080000000e80055
:1041c000c0808800400020001007980050002000a8
:1041d000100798000080fa00000006000800fa00ae
:1041e0000000eb00000f78008019210010407800db
:1041f0000000fb0021052000810f50000e0032005e
:1042000021052000810f500004003c002104200003
:10421000810f5000480032004d0137003105200069
:10422000810f50008400320041052000810f5000b2
:10423000c10032004601370090192100104078007b
:104240000000fb0011032000810f50001700320016
:1042500011032000810f500004003c0001032000e6
:10426000810f5000080032002b003700210320008e
:10427000810f50001600320031032000810f5000e2
:104280001c003200240037000870ef00150ea90052
:1042900080a0290046ff0700020220008000eb00fa
:1042a000801921002df90700220037000970ef0066
:1042b000152ea90080a029003dff07000202200062
:1042c0008000eb008019210024f907001900370055
:1042d0000a70ef00154ea90080a0290034ff0700e6
:1042e000020220008000eb00801921001bf907006a
:1042f000100037000b70ef00156ea90080a0290098
:104300002bff0700020220008000eb008019210033
:1043100012f9070007003700c0a0290024ff07009a
:10432000020220008000eb00801921000bf9070039
:1043300000000000130137009019210010407800a0
:104340000000fb0011032000810f50001700320015
:1043500011032000810f500004003c0001032000e5
:10436000810f5000080032002b003700210320008d
:10437000810f50001600320031032000810f5000e1
:104380001c0032002400370010c0b30008f0b70052
:1043900080a0290006ff0700020220008000eb0039
:1043a00080192100edf807002200370010c0b3008b
:1043b00009f0b70080a02900fdfe070002022000de
:1043c0008000eb0080192100e4f807001900370095
:1043d00010c0b3000af0b70080a02900f4fe070067
:1043e000020220008000eb0080192100dbf80700aa
:1043f0001000370010c0b3000bf0b70080a02900f8
:10440000ebfe0700020220008000eb008019210073
:10441000d2f8070007003700c0a02900e4fe07001b
:10442000020220008000eb0080192100cbf8070079
:1044300000000000d30037009019210010407800e0
:104440000000fb0011032000810f50001700320014
:1044500011032000810f500004003c0001032000e4
:10446000810f5000080032002b003700210320008c
:10447000810f50001600320031032000810f5000e0
:104480001c003200240037000870ef00150ea80051
:1044900080a02900c6fe0700020220008000eb0079
:1044a00080192100adf80700220037000970ef00e5
:1044b000152ea80080a02900bdfe070002022000e2
:1044c0008000eb0080192100a4f8070019003700d4
:1044d0000a70ef00154ea80080a02900b4fe070066
:1044e000020220008000eb00801921009bf80700e9
:1044f000100037000b70ef00156ea80080a0290097
:10450000abfe0700020220008000eb0080192100b2
:1045100092f8070007003700c0a02900a4fe07009a
:10452000020220008000eb00801921008bf80700b8
:10453000000000009300370030002000000f7800da
:104540000b0037001e007800e60f50008c003c0086
:104550009e00780063805000811921009e804000f9
:104560009140780064004000017778001e0fe80059
:10457000801921001e004000104078000004e00077
:10458000f0ff3a006400470012f807001007980097
:1045900090192100104078000000fb00110320005a
:1045a000810f50002300320011032000810f5000c2
:1045b00004003c0001032000810f5000080032007d
:1045c0005b00370021032000810f50002e003200d5
:1045d00031032000810f50004000320054003700aa
:1045e000a019210090407800f0c5b30080cf5000a2
:1045f00009003a001e0090008081880080a02900f8
:104600006bfe0700020220008000eb0080192100f1
:1046100052f8070006003700c0a0290064fe07001a
:10462000020220008000eb00801921004bf80700f7
:1046300046003700a019210090407800f0c5b30073
:1046400080cf500009003a001e0090009081880041
:1046500080a0290056fe0700020220008000eb0027
:10466000801921003df8070006003700c0a029008e
:104670004ffe0700020220008000eb00801921009d
:1046800036f8070031003700a0192100904078006b
:10469000f0c5b30080cf500009003a001e00900022
:1046a000a081880080a0290041fe070002022000ae
:1046b0008000eb008019210028f807000600370071
:1046c000c0a029003afe0700020220008000eb0093
:1046d0008019210021f807001c003700a0192100d3
:1046e00090407800f0c5b30080cf500009003a0038
:1046f0001e009000b081880080a029002cfe0700d9
:10470000020220008000eb008019210013f807004e
:1047100006003700c0a0290025fe07000202200085
:104720008000eb00801921000cf80700070037001b
:10473000c0a029001efe0700020220008000eb003e
:104740008019210005f80700000000000d00370067
:1047500080192100104078000004e00009003200b8
:10476000c0a0290012fe0700020220008000eb001a
:1047700080192100f9f70700000000000100370050
:10478000000000000080fa00000006000200fa00ad
:10479000f046200001002000a0808800b180880041
:1047a000140107007e0107005401070062010700a1
:1047b0006000b80019fc07002cfd0700110ea900cd
:1047c000112ea900114ea900116ea900500ea900ca
:1047d0001f0ea9001f2ea9001f4ea9001f6ea900c1
:1047e0001134800000fc2f00008060000000a00059
:1047f000103488002136800000f82f00808060008f
:104800008005200001007000203688006f2ea9006e
:104810004f0ea90061cea80061eea800618ea8002d
:1048200061aea800612ea800410ea8006bcea800c2
:104830006beea8006b8ea8006baea8006b2ea800d4
:104840000000eb00000f780041428000f0ff2800dc
:104850000080600000c0a0004042880069cea8002f
:1048600069eea800698ea80069aea800692ea800ac
:104870003135800000f82f008080600000062000a5
:10488000010070003035880030a12900c8fd070004
:1048900003003700000000000100370000000000a6
:1048a000540ea900114080000080200000806000ac
:1048b0000000e000f7ff32000368a9001e0fe800c7
:1048c0001e0078000000e000f4ff3200540ea80043
:1048d0000000eb00000f7800d9fa0700e9fa0700a2
:1048e000f9fa070009fb070019fb070039fb07006d
:1048f00059fb070079fb0700d3fd070037fe0700cf
:04490000e7ff370096
:020000040000fa
:104904009811000044010000800000000010000025
:10491400300000008000000030100000080000009b
:10492400820000005802e80003780500980800009f
:10493400dc1200005200000082000000303132001e
:10494400333435003637380039414200434445009a
:104954004600300031323300343536003738390000
:10496400616263006465660000286e00756c6c000b
:104974002900000001000000000a0000000064009b
:1049840000000000e8030000001027000000a00061
:104994008601000040420f0000809600980000004d
:1049a400e1f5050000ca9a003b0000002e13000048
:1049b400260000008200000055130000005513007b
:1049c4000900000000020000571300000057130004
:1049d4000e020100000000000000000000000000c2
:1049e40006020200000000002e1300005413000011
:1049f4000600000080000000381000006001000084
:104a0400820000000000000000000000f03f0000f1
:104a1400000000000000240040000000000000002e
:104a24000059400000000000000040008f400000da
:104a3400000000000088c3004000000000000000e7
:104a44006af8400000000000008084002e4100004d
:104a540000000000d0126300410000000000840048
:104a6400d7974100000000000065cd00cd41000053
:104a7400000020005fa0020042408c00b5781d00b9
:104a8400af154400ea8ca00039593e002946a50020
:104a94005cc3f10029633d00489a64007ec50e00a2
:104aa4001b514a0044f3c200e4e4e900634c3d00b6
:104ab400c7ddd600ba2e77004e5ffb00f051ef0041
:104ac400fc8a5000c7592900090f6b009f527d00d2
:104ad400c3942500ad49b200545a6200d7d71800d8
:104ae400e77469009c750000883ce400377e000090
:104af400000000000000f0003f9a99009999990085
:104b040099b93f007b14ae0047e17a00843ffc0072
:104b1400a9f1d2004d6250003f2d43001cebe2008e
:104b2400361a3f00f168e30088b5f800e43e8d00d2
:104b3400edb5a000f7c6b0003e48af00bc9af20045
:104b4400d77a3e003a8c3000e28e7900453e9500db
:104b5400d626e8000b2e11003ebbbd00d7d9df00de
:104b64007cdb3d00234292000ca19c00c73ba000cb
:104b7400c2ebfe004b48b400399c5700772726004f
:104b84006ca137001fb8d4004a7aee008d35260098
:104b9400a6acaa0004b67900339d35008f1de90048
:104ba4001566310023614d0017acf800522f6f00d9
:104bb4000e998400d94b40002d3005008ee42e0060
:104bc400ff2b2b00acf74e0015927e00681659009f
:104bd400f3f8c2001f6ea500010000005a13000084
:104be400020000008200000001000000000000003c
:020000040000fa
:104bf4000000fa00213a8000f0f32f0000806000ea
:104c04000070a000203a880000032000303a880099
:104c1400213a800000fe2f0000806000203a8800c6
:104c24004827ef003200200080072000a10920005f
:104c340033742000804978008149780082497800e3
:104c4400103a8000000178000200a00060042000f7
:104c54007105200023742000804978008149780080
:104c64008249780000000000113a8000000027000b
:104c74008080600000002300808f5000faff3a001b
:104c840000000000113a8000000220000080600053
:104c94000000e000fbff32000080fa000000060084
:104ca4000000fa004227a80005e1a9000421a80099
:104cb4000441a90021088000f0fc2f00008060005e
:104cc400200888000021ef00f0ff2700100888006a
:104cd40001428000f0ff28000080600000c0a000b6
:104ce400004288000068a9002068a80005e1a80027
:104cf4000080fa00000006000000fa001fe1a9008d
:104d04001e21a9001ec1a900f1088000f0fc2f009b
:104d1400008060000050a000f00888001421ef001b
:104d240050182000d00888001fe1a8000080fa0075
:104d3400000006000000fa0013e1a90011e1a90037
:104d44001061a8001021a90010c1a80081088000ea
:104d5400f0fc2f0000806000800888000a21ef002a
:104d64000621ef000080eb00700888000080eb0053
:104d7400600888002142800080ff2f0000806000ce
:104d84000000a000204288000108a9002108a90011
:104d940011e1a8000080fa00000006000000fa00fb
:084da4000080fa000000060087
:020000040000fa
:0200000401f009
:04000c00f8ffff00fa
:020000040000fa
:0200000401f009
:040010007dffff0071
:020000040000fa
:0200000401f009
:040014007fffff006b
:00000001FF
