:020000040000fa
:080000000002040000000000f2
:020000040000fa
:0400080050030000a1
:020000040000fa
:04000c005603000097
:020000040000fa
:040010007203000077
:020000040000fa
:040014005c03000089
:020000040000fa
:04001800620300007f
:020000040000fa
:04001c006803000075
:020000040000fa
:040020007603000063
:020000040000fa
:040024006e03000067
:020000040000fa
:040028006e03000063
:020000040000fa
:04002c006e0300005f
:020000040000fa
:040030006e0300005b
:020000040000fa
:0400340016030000af
:020000040000fa
:040038006e03000053
:020000040000fa
:04003c006e0300004f
:020000040000fa
:040040006e0300004b
:020000040000fa
:040044006e03000047
:020000040000fa
:040048006e03000043
:020000040000fa
:04004c006e0300003f
:020000040000fa
:040050006e0300003b
:020000040000fa
:040054009a0300000b
:020000040000fa
:040058007a03000027
:020000040000fa
:04005c006e0300002f
:020000040000fa
:040060006e0300002b
:020000040000fa
:040064006e03000027
:020000040000fa
:040068006e03000023
:020000040000fa
:04006c006e0300001f
:020000040000fa
:040070006e0300001b
:020000040000fa
:040074006e03000017
:020000040000fa
:040078006e03000013
:020000040000fa
:04007c006e0300000f
:020000040000fa
:040080006e0300000b
:020000040000fa
:040084006e03000007
:020000040000fa
:040088006e03000003
:020000040000fa
:04008c006e030000ff
:020000040000fa
:040090006e030000fb
:020000040000fa
:040094006e030000f7
:020000040000fa
:040098006e030000f3
:020000040000fa
:04009c006e030000ef
:020000040000fa
:0400a0006e030000eb
:020000040000fa
:0400a4006e030000e7
:020000040000fa
:0400a8006e030000e3
:020000040000fa
:0400ac006e030000df
:020000040000fa
:0400b0006e030000db
:020000040000fa
:0400b4006e030000d7
:020000040000fa
:0400b8006e030000d3
:020000040000fa
:0400bc006e030000cf
:020000040000fa
:0400c0006e030000cb
:020000040000fa
:0400c4006e030000c7
:020000040000fa
:0400c8006e030000c3
:020000040000fa
:0400cc006e030000bf
:020000040000fa
:0400d0006e030000bb
:020000040000fa
:0400d4006e030000b7
:020000040000fa
:0400d8006e030000b3
:020000040000fa
:0400dc006e030000af
:020000040000fa
:0400e0006e030000ab
:020000040000fa
:0400e4006e030000a7
:020000040000fa
:0400e8006e030000a3
:020000040000fa
:0400ec006e0300009f
:020000040000fa
:0400f0006e0300009b
:020000040000fa
:0400f4006e03000097
:020000040000fa
:0400f8006e03000093
:020000040000fa
:0400fc006e0300008f
:020000040000fa
:040100006e0300008a
:020000040000fa
:040104006e03000086
:020000040000fa
:040108006e03000082
:020000040000fa
:04010c006e0300007e
:020000040000fa
:040110006e0300007a
:020000040000fa
:040114006e03000076
:020000040000fa
:040118006e03000072
:020000040000fa
:04011c006e0300006e
:020000040000fa
:040120006e0300006a
:020000040000fa
:040124006e03000066
:020000040000fa
:040128006e03000062
:020000040000fa
:04012c006e0300005e
:020000040000fa
:040130006e0300005a
:020000040000fa
:040134006e03000056
:020000040000fa
:040138006e03000052
:020000040000fa
:04013c006e0300004e
:020000040000fa
:040140006e0300004a
:020000040000fa
:040144006e03000046
:020000040000fa
:040148006e03000042
:020000040000fa
:04014c006e0300003e
:020000040000fa
:040150006e0300003a
:020000040000fa
:040154006e03000036
:020000040000fa
:040158006e03000032
:020000040000fa
:04015c006e0300002e
:020000040000fa
:040160006e0300002a
:020000040000fa
:040164006e03000026
:020000040000fa
:040168006e03000022
:020000040000fa
:04016c006e0300001e
:020000040000fa
:040170006e0300001a
:020000040000fa
:040174006e03000016
:020000040000fa
:040178006e03000012
:020000040000fa
:04017c006e0300000e
:020000040000fa
:040180006e0300000a
:020000040000fa
:040184006e03000006
:020000040000fa
:040188006e03000002
:020000040000fa
:04018c006e030000fe
:020000040000fa
:040190006e030000fa
:020000040000fa
:040194006e030000f6
:020000040000fa
:040198006e030000f2
:020000040000fa
:04019c006e030000ee
:020000040000fa
:0401a0006e030000ea
:020000040000fa
:0401a4006e030000e6
:020000040000fa
:0401a8006e030000e2
:020000040000fa
:0401ac006e030000de
:020000040000fa
:0401b0006e030000da
:020000040000fa
:0401b4006e030000d6
:020000040000fa
:0401b8006e030000d2
:020000040000fa
:0401bc006e030000ce
:020000040000fa
:0401c0006e030000ca
:020000040000fa
:0401c4006e030000c6
:020000040000fa
:0401c8006e030000c2
:020000040000fa
:0401cc006e030000be
:020000040000fa
:0401d0006e030000ba
:020000040000fa
:0401d4006e030000b6
:020000040000fa
:0401d8006e030000b2
:020000040000fa
:0401dc006e030000ae
:020000040000fa
:0401e0006e030000aa
:020000040000fa
:0401e4006e030000a6
:020000040000fa
:0401e8006e030000a2
:020000040000fa
:0401ec006e0300009e
:020000040000fa
:0401f0006e0300009a
:020000040000fa
:0401f4006e03000096
:020000040000fa
:0401f8006e03000092
:020000040000fa
:0401fc006e0300008e
:020000040000fa
:040200006e03000089
:020000040000fa
:040204006e03000085
:020000040000fa
:040208006e03000081
:020000040000fa
:04020c006e0300007d
:020000040000fa
:040210006e03000079
:020000040000fa
:040214006e03000075
:020000040000fa
:040218006e03000071
:020000040000fa
:04021c006e0300006d
:020000040000fa
:040220006e03000069
:020000040000fa
:040224006e03000065
:020000040000fa
:040228006e03000061
:020000040000fa
:04022c006e0300005d
:020000040000fa
:040230006e03000059
:020000040000fa
:040234006e03000055
:020000040000fa
:040238006e03000051
:020000040000fa
:04023c006e0300004d
:020000040000fa
:040240006e03000049
:020000040000fa
:040244006e03000045
:020000040000fa
:040248006e03000041
:020000040000fa
:04024c006e0300003d
:020000040000fa
:040250006e03000039
:020000040000fa
:040254006e03000035
:020000040000fa
:040258006e03000031
:020000040000fa
:04025c006e0300002d
:020000040000fa
:040260006e03000029
:020000040000fa
:040264006e03000025
:020000040000fa
:100400002f0322000eff27000e01880000000000cd
:10041000000020000000e000020032000001200087
:100420002002880014000700230107000000e000fc
:1004300003003a00a038220001002000020037002b
:100440000000200001002000810f70000100320038
:100450000f000700000020000000e0000200320052
:1004600000000200000000001c1f0200000000004d
:100470000040da000000fe00a00820000000e000bc
:1004800002003200002020009001880000000600d9
:10049000a1028800800478000000eb001f003700f4
:1004a000e284440054a0b4009905ba00e2844400f8
:1004b00054a0b4009906ba00e284440054a0b400e9
:1004c0000006eb00476fde00fd07b200ae018800ba
:1004d000636ce10003003a000ad801000000eb0061
:1004e0000e003700606ce10008003a00004deb00a0
:1004f0000a05e800020039003420ec000af0a000f0
:100500008b05e900f9ff3e00040037006168e10057
:10051000010032000086eb000b00070019c7ba008b
:100520000e04e0001905ba0003003a000a00e000da
:10053000dbff3a0000000600fe07b200ae028800b2
:100540008a047800f5ff37000cd0a300e20f4d00bd
:100550001c00390089027800354dba000a05e80010
:10056000020039003420ec000af0a0008b05e900fd
:100570000f003200254dba000a05e80002003900dc
:100580003420ec000af0a0008b05e90008003200de
:100590000c00e0000600320015cdba000a05e800a4
:1005a000020039003420ec000af0a0008b05e900bd
:1005b0008984e80054a0b4000b00e000e2ff3a0098
:1005c000000006009902ba00055d78008b05e9007d
:1005d000f7ff3200c82ade00055d78008b05e900d0
:1005e000f3ff32000c00e000f1ff320019ddba0029
:1005f000eeff3700ba1b040000000000a41b04003b
:1006000000000000f41b0400000000006e1c040049
:10061000000000000a1d0400000000004e1c040041
:1006200000000000d01c0400000000003600f800ac
:10063000809fbe00829fbe00849fbe00869fbe003a
:100640000000fa000068a900108180000000e000ae
:10065000090035002230ef0025012100240122008d
:1006600023002000020021001100200080c4b300fc
:10067000e80b070003003700108180000000e8004d
:10068000108188000080fa004f03be004f02be00b8
:100690004f01be004f00be003600f90000400600ca
:1006a0000000fa00c028a900ffff37000000fa0090
:1006b000c068a900ffff37000000fa00c048a90089
:1006c000ffff37000000fa00c088a900ffff3700d5
:1006d0000000fa00c0a8a900ffff37000000fa00e0
:1006e000ffff37000000fa00ffff37000000fa00ac
:1006f000ffff37003600f800809fbe00829fbe00db
:10070000849fbe00869fbe000000fa000188a900f9
:10071000402220006d0f07000080fa004f03be004a
:100720004f02be004f01be004f00be003600f90070
:1007300000400600809fbe00821f78000200fa0081
:100740000168a900308180000000e0001000320044
:1007500050808000311180008140780062012200c9
:100760000000410001487800508080000000e8004f
:1007700061012200008040008040eb0001487800c9
:10078000508080000000e8005080880002003700a0
:1007900030118000004f7800100020003081880068
:1007a0000080fa004f0178004f00be0000400600b4
:1007b0000a00fa00e20f500034003e008001810080
:1007c000e10f500003003200e20f500011003a0028
:1007d0000c003700032220000300e00001003a0073
:1007e0000040da002002e200020035002822ef007b
:1007f00021e2a8002342ab000d003a002342a800ea
:100800000b003700032320000300e00001003a0042
:100810000040da003002e200020035003822ef002a
:1008200031e2a8003342ab0001003a003342a80095
:10083000820178000b0037003102fb00e10f50000d
:1008400004003a002322ab00feff3a002411880086
:10085000030037003322ab00feff3a00a4118800ea
:100860008301e9000300e000f3ff3a00e10f5000cc
:1008700003003a002302ab00feff32000b003700fa
:100880003302ab00feff32000800370033002000c7
:10089000b3bf9f00c0bf9f00d1bf9f00e2bf9f00ba
:1008a0006a805700ea0707006fb9970002007800d6
:1008b0000080fa00000006000000050003f0a2001e
:1008c000889fbe008a9fbe008c1f7800c60007006c
:1008d000cd0033006450e1004f0032006420e1009d
:1008e0005200320003826c0007003b000905d00073
:1008f0000306d000820f54000c065d000200390090
:1009000002003200890178000306780085825500d4
:1009100004003d000003fd008103fd008502ea00a4
:100920008b854200840f720002003b0060001000c3
:10093000e08018006011b8000005eb007a28e100a3
:100940000a00390006007800c75ddd00f707b20035
:10095000878075002d003700828171000a017800c0
:10096000610560008180d1000080d3008502e9002c
:10097000f9ff3b00060440008784480002003b006a
:1009800060041400e0841c000988a3000700320002
:100990008a81710082817100610164008904d10043
:1009a0000884d3008b05e800170037000978a300fe
:1009b00013003a000b00e000130034008b05e9003f
:1009c0000804440089844c000a4474000978a30098
:1009d0000d003a000b00e000070034008b05e90031
:1009e0000804440089844c0001003a000b002000f8
:1009f0000978a300f7ff32000001eb000200370086
:100a0000828171000a017800510007000cf0a700f4
:100a100001f0a000850037006420e10002003a00e8
:100a2000838f6c00850033000801be000200be0009
:100a30007e003700889fbe008a9fbe008c1f780012
:100a4000690007007000330003866c006450e10009
:100a50002e0032006420e100330032006150e100da
:100a60002f0032006120e100310032008585550001
:100a7000eb07b00009002000080420000500370043
:100a80000804440089844c000a0031000603430036
:100a900087834b000001530081815b00f8ff330026
:100aa0000203be000800a0000804440089844c0032
:100ab000f6ff3900c639dd00830173000100320002
:100ac000130020008904d1000884d3000998a300f2
:100ad000050032000800a7000300a0008904d1002f
:100ae0000884d3008b05e8008904d1000884d30072
:100af0000001eb000281d2001500070001f0a10007
:100b00000cf0a70001f0a000480037006420e100cd
:100b10004a0032000801be000200be00f7ff3700a5
:100b20006120e100450032006000b800f3ff3700ab
:100b30000000200001f82700f0ff37004f89de0099
:100b400082017800740037006011b800820037001d
:100b500081002000618055000b003d000b0020004b
:100b600061fe2f000100e1001d0034008281710050
:100b7000610164008904d1000884d3000000e8000a
:100b8000faff3a0071002000610064000300700069
:100b9000020060000900320061044400e0844c005f
:100ba0000988a500050032008b05e8006808e1000f
:100bb00002003a008904d1000884d300f20f20001b
:100bc0000258e10005003d00c75ddd00f907b200f5
:100bd0008980750008007800000006000bf82700e7
:100be0008b007800000005000004be0089000700ab
:100bf0000003be000405be000200be008500070021
:100c0000844f7500000006000200be006450e10041
:100c1000050036006420e100020036000968a300e8
:100c200001003a000800be000160a0004f067800f5
:100c30004f05be004f04be0000000600f0ff2f006d
:100c4000f1ff2700f9ff3700889fbe008a9fbe0092
:100c50008c1f7800e4ff0700ebff330003866c0075
:100c60006450e100240032006420e10027003200db
:100c70006150e100220032006120e10021003200d9
:100c80008b854200eb07b1000134b800003ab80090
:100c90000804420089844a00013ab8000030b800d4
:100ca0008880400009014a00040033000000400031
:100cb00081804800020149008b05e900c909dd0077
:100cc000830170000100320013002000c814de0010
:100cd0004814dd004709de001200b200c808de003b
:100ce000088470009aff070001f0a1000cf0a70033
:100cf00001f0a000cdff37006120e100cfff3200fe
:100d00000801be000200be00f7ff37006150e1009d
:100d1000fcff3a00c9ff3700881f78000304780001
:100d20000300e00007003d0060001000e0801800b4
:100d300060011900e081190002003b0001f02d0064
:100d4000030037000400070008f0a70001f0a0002e
:100d50004f04780000000600889fbe008a9fbe00f6
:100d600000827000040271000482710026003200cb
:100d70000004be000200be006011b8006b09200034
:100d8000950220000182cf000a0039000541b10020
:100d90000082cf00070039000541b1000982cf0071
:100da000040039000541b1000882cf00010039007c
:100db0000541b10005425200120032000a003b001a
:100dc00082817100610164008100d1000080d30044
:100dd0008984d3000884d3008b05e8000442e8002e
:100de000f7ff3a00070037000804440089844c00ec
:100df00000004800818048008b05e9000442e900ba
:100e0000f9ff3a0052ff07004f05be004f04be0035
:100e100000000600c70ade00f107b200f50fb200bd
:100e200008003200e1cf4200020032000170a00051
:100e300024000500810f7000010032000408050045
:100e400044000500810f700002003a001400050004
:100e50008502e9000000400081c04800fcff3b0023
:100e60000170a000240005000c00fa00889fbe005d
:100e700000047800f0ff2700d0bf9f008004eb0043
:100e800099bf9f0088bf9f00a8bf9f00200c200033
:100e9000b0bf9f0078815700cfb097007080570097
:100ea000e70007000fb89700094878008fb897004f
:100eb000088050004f04be000080fa0000000600c9
:100ec0000800fa00889fbe008a9fbe000084fb00d5
:100ed000d1c6b300814f50003a0036004b062000c7
:100ee000110009000b84d8008105780072004000d1
:100ef0004300dd00a9ee2100008044006022b8001c
:100f00000600200007fe23009000900020019000c2
:100f1000b001900010007800eb0707000002be004f
:100f20000203be0084bf9f0095bf9f00a6bf9f0025
:100f3000b7bf9f00aa002000110009008a85d800d1
:100f400080057800e9854500c35ddd008b854400a0
:100f50001b0278009b0290002b039000bb039000c3
:100f60000fb897009fb897002fb99700bfb99700a7
:100f7000d50707000002be000203be0084bf9f0029
:100f800095bf9f00a6bf9f00b7bf9f00110009003b
:100f90000a84d800010478004344dd0088844400ba
:100fa000190278009902900029039000b90390007b
:100fb0000fb897009fb897002fb99700bfb9970057
:100fc00023003700ea4f500017003600aa00200027
:100fd000110009000a84d800010578006904400066
:100fe0004344dd00a9ee2100088444006022b800db
:100ff0000600200007fe23001800780098009000eb
:1010000028019000b8019000af0707004355dd00ac
:101010008a84440019027800990290002903900004
:10102000b90390000a0037004344dd00a0ee210020
:10103000080440006022b8000600200007fe2300dc
:10104000180078009800900028019000b8019000e6
:101050009d0707004f05be004f04be000080fa0048
:10106000000006000800fa00889fbe008a9fbe00ac
:10107000d1c6b3000004e00027003d000040ea00b4
:101080000004fb00814f50000a003400420620009b
:10109000110009000204d800a90020001100090075
:1010a0008900d800e9004000c308dd00aaee210055
:1010b00025003700ea4f500014003400a200200041
:1010c000110009000204d800010178006900400005
:1010d0004300dd00a1ee2100008040004311dd004f
:1010e000828040001102780091029000210390005c
:1010f000b10390009000900020019000b00190009a
:101100001000780070070700400037004344dd00fe
:10111000a0ee2100380037000004fb00814f500092
:101120002900340042062000110009000204d80002
:10113000a9002000110009008900d800e900400042
:10114000c308dd00aae321008100450011027800f8
:101150009102900021039000b10390008b092000c0
:101160008a8545001b0078009b0090002b019000b1
:10117000bb019000540707000002be000203be003e
:1011800084bf9f0095bf9f00a6bf9f00b7bf9f0071
:10119000110009000904d800010478004344dd006f
:1011a000080545001a0278009a0290002a03900070
:1011b000ba0390000fb897009fb897002fb9970017
:1011c000bfb99700cfff3700ea4f50000800340046
:1011d000a2002000110009000204d80001017800db
:1011e000690040004300dd00a1e32100baff3700a1
:1011f0004344dd00a0e3210008044000180078000b
:101200009800900028019000b80190004f05be00a2
:101210004f04be000080fa0000000600d0019000dc
:10122000028151004240a9000300340010017800ff
:10123000014978000208e80001007800000006007b
:101240006f02b000889fbe008a9fbe008c9fbe00c8
:101250008e1f780000067800b1af9f0092b79f0004
:101260006000b8006011b800d0af9f00e1af9f00f0
:10127000f2af9f0083b79f008006eb00d2043700d7
:10128000bfa897008100e800b1af9f0051c2b30032
:10129000814f500003003a00bfa897000007eb0001
:1012a00011003700bc0090000000fb000168a300a3
:1012b000070032000d017800800078000c007800f3
:1012c000d6ff07000000e00005003a00be0437002a
:1012d0008c007800c8040700e10f4000ba04320017
:1012e0008d06e800b804370001017800314078002d
:1012f000d3c2b300834f50000c00320007003c0003
:10130000edc15100834f50000a003200ebc1410093
:10131000834f50000d003a000800370003c3b300ac
:10132000834f500009003a00060037000e30a0003d
:10133000edff37000e00a000ebff37000e10a000fd
:10134000e9ff37000e20a000e7ff37000e18a300ca
:10135000010032000e00a1000e38a300010032008f
:101360000e20a1008000fb000103b100e98f5000b6
:101370000c003e00020078008005eb00ea59b9003d
:10138000b005fb000b03b100828545000001780029
:101390009000fb000103b100e98f5000f7ff360019
:1013a000080037008005eb00a1c2b300814f500058
:1013b00004003a009fb19700c305780093b79f00df
:1013c0000201e800e0c2b300924f100016003a009c
:1013d0000ee0a00064405000d24f10000300320025
:1013e000020078008001eb00080037009fb29700f0
:1013f0004503780095b79f00e6b79f000201e8001b
:101400000c003700ea19b900828140000001780021
:10141000b000fb000103b100e98f5000f9ff360076
:10142000e3b79f00030037000ec0a0008003eb006d
:10143000e7b79f008201780033407800030178000d
:10144000c1c6b300814f50002b003200b3af9f00e4
:1014500014003c00e8c05000814f500024003200ce
:1014600009003c00ecc05000814f50002a003200bf
:10147000ebc04000814f50008c0032000004e000bf
:1014800056043200a200370061c6b300814f5000fd
:101490001b003200e3c04000814f50009c003a0026
:1014a0001300370031c7b300814f50001e003200d7
:1014b00007003c00e4c05000814f50001300320090
:1014c0008140e800814f500091003a00120037003f
:1014d00051c7b300814f500092003200e3c040007a
:1014e000814f50008a003a00e0cf9f000c00370087
:1014f000e0cf9f008d0037000e40a000cdff3700e9
:10150000e0cf9f000ea0a00088003700e0cf9f0032
:101510000e60a00085003700e0cf9f000e50a000b5
:101520000e70a00081003700e0cf9f009fb09700b1
:101530004100780091b79f00000478000000e000af
:1015400001003a00c8fb2100880078000000eb0091
:10155000010037000000e800008140001204e000b4
:10156000fcff3a00800478006fb197000200e000b1
:1015700003003200890f510001003100820478001d
:101580000005eb00898f55000100360009855500e4
:10159000680767002a003a00110037003c009000fd
:1015a0000068a300070032000d017800010220004e
:1015b0000c00780019ff07000000e00006003a0068
:1015c000060037008c007800000220000a040700a3
:1015d000e10f4000010032008d06e8000a05e90035
:1015e0000a00e000edff3a000085eb001400370030
:1015f0003c0090000068a300090032000800780059
:10160000b000fb00000478000d0178000c007800a9
:1016100002ff07000000e00008003a000800370061
:10162000880078003100fb00010478008c0078000d
:10163000f1030700e10f4000010032008d06e800d1
:10164000090078008004e9000000e000e8ff3a00ab
:101650000e00e000dc033200110037003c00900077
:101660000068a300070032000d017800010220008d
:101670000c007800e9fe07000000e00006003a00d8
:10168000060037008c00780000022000da03070013
:10169000e10f4000010032008d06e8000a05e90074
:1016a0000a00e000edff3a00c70337009fb1970042
:1016b0004302780093b79f00cfa2de00482bdd00e5
:1016c0004820de0000007300c828de00e0cf9f0045
:1016d0000e48a300080032000004e00006003200bb
:1016e000e14f400004003200f0cf9f0084d79f00fc
:1016f0002900200002003700f4cf9f0019002000cd
:10170000e7fc2f008f8343000704e80096ff3700b3
:10171000e0cf9f00e8fc2f000f04440019002000d8
:1017200091ff3700e0cf9f000e0cb3000170200046
:1017300081006700700067000100e00022023200b3
:101740000ec8a3000200320061002000e1b79f0034
:101750000000e000080032001fb097006800500051
:10176000100278009002900020039000b0039000d7
:1017700090b79f00080037001fb197006401510027
:10178000120078009200900092b79f005e0507005b
:101790000002be000203be00a4b79f00b5b79f00c1
:1017a000c6b79f00d7b79f006022b8006033b8006b
:1017b0002fb09700bfb097004fb19700dfb19700ef
:1017c000a30407000000e0000a003d002fb09700ce
:1017d000bfb097004fb19700dfb1970003f0a200b0
:1017e000a0b79f00b1b79f00c2b79f00d3b79f00bb
:1017f0003e00b3000000eb0090af9f006022b800f5
:101800006033b8002fb09700bfb097004fb197007a
:10181000dfb19700f20407000000e000340032005e
:1018200024fd2f000f0242002fb09700bfb0970099
:101830004fb19700dfb19700850507001fa89700fb
:101840000000e900e300b900a20020001100090037
:101850000200d80090af9f000000e00002003d00b1
:101860000000e90090af9f001fac97000840ea001d
:10187000fcfd07002fb29700bfb297004fb397004f
:10188000dfb39700900507000002be000203be0010
:10189000d4af9f00e5af9f00f6af9f0087b79f00d2
:1018a0006022b8000600200007ff2300680407003c
:1018b0000000e00002003d000804e9000b003700d2
:1018c0006022b80006002000470224005fa89700ad
:1018d000efa897007fa997008fb1970061040700d8
:1018e0000000e000020035000804e80098af9f0007
:1018f000efb29700ec8f52000f003c0005407800db
:101900006ffd07000002be000203be002fb097006b
:10191000bfb097004fb19700dfb19700ce0307002b
:101920000002be000203be00a4b79f00b5b79f002f
:10193000c6b79f00d7b79f001fac9700e90f5400b0
:1019400015003c006022b8006033b8002fb097004b
:10195000bfb097004fb19700dfb19700a004070018
:101960000000e000310032002fb09700bfb09700b8
:101970004fb19700dfb1970002050700e00f50005c
:10198000e08f5800e00f5900e08f590027003a001f
:10199000e10f5400250034000400200005002e0053
:1019a000b6e02200170124005fa89700efa8970077
:1019b0007fa997008fb19700250407000000e00081
:1019c00002003d006904540001003700680454001f
:1019d00098af9f002fd09700a2fd07000002be0025
:1019e0000203be00d4af9f00e5af9f00f6af9f009b
:1019f00087b79f002fb09700bfb097004fb19700f7
:101a0000dfb197001c040700de0407000004be00dd
:101a10006000b8006011b800a0b79f00b1b79f0088
:101a2000c2b79f00d3b79f00160037002fb09700b2
:101a3000bfb097004fb19700dfb19700d104070006
:101a40000004be00000507000002be000203be0045
:101a50002fb09700bfb097004fb19700dfb197004c
:101a60008f0507000002be000203be00a4b79f005e
:101a7000b5b79f00c6b79f00d7b79f000000eb0027
:101a800090af9f0041fc210010c0b300050037005b
:101a9000e4804000b10f5400a18f5c0003003900c6
:101aa0000040e800ea4f5000f9ff3a00e0cf9f0005
:101ab0009fa8970081805500efb297008580500065
:101ac0000000fb00008550000500e000010032002e
:101ad0000a05e90063006700010032000a05e90019
:101ae0000e28a30039003200610167000e18a30020
:101af0000f0032003c0090000068a3000600320096
:101b0000b10220000200e000010032008180e80004
:101b10000d0178000d003700b00220000200e00047
:101b2000010032000080e8008c0078000e003700d1
:101b30000200e000220032003c0090000068a30098
:101b4000070032000d017800010220000c0078002f
:101b5000b2fd07000000e00006003a001800370060
:101b60008c00780000022000a3020700e10f400073
:101b7000130032008d06e800110037003c00900091
:101b80000068a300070032000d0178000103200067
:101b90000c007800a1fd07000000e00006003a00fc
:101ba000060037008c007800000320009202070036
:101bb000e10f4000010032008d06e8000a05e9004f
:101bc0000a00e000edff3c00590037000e38a3008a
:101bd00014003a00110037003c0090000068a30098
:101be000070032000d017800010220000c0078008f
:101bf0008afd07000000e00006003a0006003700fa
:101c00008c007800000220007b020700e10f4000fa
:101c1000010032008d06e8000a05e9000a00e00034
:101c2000edff3c00610167000e18a3000e003200ba
:101c30003c0090000068a30005003200b1022000c3
:101c40000200e000230032008180e800210037001c
:101c5000b00220000200e000010032000080e80035
:101c60008c0078002e0037000200e00030003200c7
:101c70003c0090000068a300030032000d017800d2
:101c800001022000140037008c00780000022000c0
:101c9000230037003c01900040fc21008100fb0044
:101ca0000268a30011003200c208dd00810040007c
:101cb00011017800910190000800be00fa040700ad
:101cc000a2002000030020000705070001032000f8
:101cd000808040000d0178000c0078004ffd070067
:101ce0000000e00011003a0011003700c208dd00da
:101cf0008100400011017800910190000800be00b1
:101d0000e9040700a200200003002000f6040700f9
:101d100002032000000141008c00780002007800de
:101d200035020700e10f4000010032008d06e80097
:101d30006fc897008040e900e1cf9f000004e000f9
:101d4000d4ff3a00130037003c0090000068a30065
:101d5000070032000d017800010320000c0078001c
:101d60002efd07000000e00006003a0006003700e4
:101d70008c007800000320001f020700e10f4000e4
:101d8000010032008d06e8001fa897000000e9005e
:101d900090af9f001fa897000000e000eaff3c0002
:101da0006fb39700e80f53000300340080c0b30006
:101db000e0cf9f0002003700cfeb9700e7cf9f00f6
:101dc0006fc897008005fb00efb097008b8550002f
:101dd0000004e000100032003c0090000068a30006
:101de000070032000d017800e10220000c007800ad
:101df0000afd07000000e00006003a000600370078
:101e00008c007800e0022000fb010700e10f400099
:101e1000010032008d06e8006fc8970091fc0700b2
:101e20000002be000203be002fb09700bfb09700b3
:101e30004fb19700dfb1970023040700d1030700db
:101e4000300037003c01900041fc21000000fb0005
:101e50000268a300110032004200dd0080804000d3
:101e600011017800910190000800be008e04070067
:101e7000a2002000030020009b04070001032000b3
:101e8000808040000d0178000c007800e3fc070022
:101e90000000e00011003a00110037004200dd00b0
:101ea0008080400011017800910190000800be0080
:101eb0007d040700a2002000030020008a04070020
:101ec00002032000000141008c007800020078002d
:101ed000c9010700e10f4000010032008d06e80053
:101ee0006fc997000200fb004200dd0041fc2100a9
:101ef0000080400010017800900190000800be00b2
:101f0000790407000004be00efc897000140e90013
:101f1000e0cf9f000104e000caff3a001100370043
:101f20003c0090000068a300070032000d0178001b
:101f3000010320000c007800b8fc07000000e0005e
:101f400006003a00060037008c00780000032000ed
:101f5000a9010700e10f4000010032008d06e800f2
:101f60008b05e9000b00e000edff3a000e38a300fe
:101f7000950132000a00e000930134003c0090001b
:101f80000068a300070032000d0178000102200064
:101f90000c007800a1fc07000000e00006003a00f9
:101fa000060037008c007800000220009201070034
:101fb000e10f4000010032008d06e8000a05e9004b
:101fc000eeff3a00800137008e007800010cb2006d
:101fd00013003a000000e000060032009fb19700b5
:101fe000e4815100130478009304900093b79f009c
:101ff000040037001fb297004404780094b79f0094
:10200000cfc4de00e00f5400e08f5c0010003d0004
:102010003e00b30060041400e0841c000c00370094
:102020000000e000060032009fb29700e4825200f8
:10203000150478009504900095b79f0004003700c0
:102040001fb397004604780096b79f008004eb000a
:10205000efb397000700e00006003a000880740024
:1020600000f0a7000000ea000000e9004f00de00d9
:10207000e0b79f000e007800000cb200c0af9f00d8
:1020800000042000cfa89700808f5000230032006a
:1020900003003c000100e000080032002d00370082
:1020a000000820004fa99700800f51000d0032005a
:1020b000000c2000800f510026003a0041fc210056
:1020c00010c0b300e4804000b10f5400a18f5c0049
:1020d0001f0039000040e800ea4f5000f9ff3a00c5
:1020e0001b00370010c0b3000201200003002000d5
:1020f000820f5400838f5c0015003900441add0004
:10210000cc11de00830172004411dd000040e800c4
:10211000e84f5000f6ff3a000d00370010c0b30042
:102120008200200003002000820f5400838f5c0097
:1021300007003900c31add00cd11de008381720073
:102140004311dd000040e800eb4f5000f6ff3a007d
:10215000e0cf9f006fcb97000600fb00efb3970026
:10216000870f500002003d00e7cf9f0004003700ba
:10217000efb09700808f500001003d00e0b79f0056
:102180000b00e00003003200630067000100320032
:102190008b05e9000ee8a300060032006fb197003e
:1021a000828f5500020034008285550001003700ff
:1021b0008005eb00efc997000300fb000002eb0075
:1021c000a4b79f00808f55000200340000805500a6
:1021d000a0b79f000e28a3003c00320061016700f9
:1021e0000e18a3000f0032003c0090000068a3000e
:1021f00006003200b10220000200e00001003200bf
:102200008180e8000d0178000d003700b002200049
:102210000200e000010032000080e8008c0078003d
:102220000e0037000200e000100032003c00900079
:102230000068a300070032000d01780001022000b1
:102240000c007800f5fb07000000e00006003a00f3
:10225000060037008c00780000022000e60007002e
:10226000e10f4000010032008d06e800afb2970098
:102270000500e00052003200050578003c009000a7
:102280000068a300070032000d0178000103200060
:102290000c007800e1fb07000000e00006003a00b7
:1022a000060037008c00780000032000d2000700f1
:1022b000e10f4000010032008d06e8000a05e90048
:1022c000eeff3a00aab79f003d0037002fb39700fa
:1022d0000600e000160032000e38a30014003a0099
:1022e000060578003c0090000068a300070032005b
:1022f0000d017800010220000c007800c7fb0700e8
:102300000000e00006003a00060037008c0078006c
:1023100000022000b8000700e10f40000100320079
:102320008d06e8000a05e900eeff3a00aab79f0013
:10233000610167000e18a3000f0032003c009000fe
:102340000068a30006003200b10220000200e00095
:10235000010032008180e8000d0178000d00370097
:10236000b00220000200e000010032000080e8001e
:102370008c0078000e0037000200e00010003200f0
:102380003c0090000068a300070032000d017800b7
:10239000010220000c007800a0fb07000000e00014
:1023a00006003a00060037008c007800000220008a
:1023b00091000700e10f4000010032008d06e800a7
:1023c000efb397000702e900e320b900a0af9f0038
:1023d0004222dd0040fc210000024200040578009a
:1023e000cfad97005d003700efb097008100e900a6
:1023f000e1b79f0000042000808f550038003200b4
:1024000003003c000b00e000070032003e003700f4
:1024100000082000808f550020003200000c2000b2
:10242000808f550038003a000e48a300110032009a
:102430001a0278009a0290000401be000800be0053
:10244000f4b79f0085bf9f0017030700e0cf9f00f0
:102450000000fb00cf80de007fb297008fba9700ac
:102460000401be00230307000004540081845c00c3
:10247000070037001a017800110009000284d80013
:10248000a2002000110009000280d800e1cf9f00c7
:102490006fc997000243b0000f003700b0fa210067
:1024a0000e58a30001003200a0f9210041fc2100d8
:1024b000810055000801be008100e90003003300df
:1024c0008301d1000281d300fbff37006f0161005f
:1024d0000201400012417800e2cf9f000a0037005d
:1024e0000800be002faa97000402e9000300330091
:1024f0008100d1000080d300fbff370067406000ff
:102500000043b000e0cf9f00bc009000efca9700ee
:102510000500fb000168a300070032000d017800f0
:10252000800078000c0078003cfb07000000e00011
:1025300005003a00050037008c0078002e000700e7
:10254000e10f4000010032008d06e8002fab97003c
:1025500063035300a6af9f0064055500efb39700d7
:102560000700e000a0ff3a000e38a300160032007a
:102570002fb097000000e000130034000005780041
:102580003c0090000068a300070032000d017800b5
:10259000010220000c00780020fb07000000e00092
:1025a00006003a00060037008c0078000002200088
:1025b00011000700e10f4000010032008d06e80025
:1025c0000a05e900eeff3a00bfa897001140780025
:1025d000e0cf9f000004e00029fb3a000d007800e6
:1025e0004f0778004f06be004f05be004f04be00e7
:1025f0006f02b10000000600889fbe000104780051
:10260000b80090008084eb000118a3003a0032006b
:10261000180190000198a30002003a000200e000b7
:1026200035003a000190a000310498008004780041
:10263000f90fb2000200e00002003a00280090000a
:10264000000c7800ea8f540005003a000178a300de
:1026500003003a0088007800d0002000e6ff070061
:1026600018009000d8009000810f50000b0032003d
:102670000000e8001004980018007800094878006d
:10268000000ce80011c0b300a0022200014878004d
:10269000ea8f540018003a000500370088007800df
:1026a000094078002b0007008004780012003700f2
:1026b000380090000088a3000f003200180190003d
:1026c000a80090004800900039f80700980090009a
:1026d000810f500004003200380090000003b30066
:1026e000300498008084eb000000eb001004980098
:1026f00028009000000c7800090078004f04be000c
:10270000000006008001780002003700b15978000f
:102710000201e9000200e000fcff3a0000000600b0
:102720008001780002003700815978000201e90039
:102730000200e000fcff3a00000006008000780084
:102740003104e000feff3a000080ea000080400013
:10275000000006000200fa00889fbe00a0ff9f0054
:1027600001047800380090000068a30033003a00ac
:10277000e200600005003a000003b3003004980056
:10278000110498000080eb002e003700d804900060
:102790000900e00006003a0012002000e680570021
:1027a0004800900002f80700190498002300370041
:1027b000a80090000100e00008003a00d1022200c9
:1027c00021049800010c7800210020005104980099
:1027d000110498000030a000300498001801900007
:1027e000a800900048009000f1f707002800900032
:1027f0008080eb0011049800aff897000148780042
:10280000000ce8002ff89700ea4f50000b003a0048
:10281000380090000088a3000800320018019000e2
:10282000a800900048009000e1f707000000eb00ce
:1028300010049800a8009000010c7800aff89700f1
:102840000100fb004f04be000080fa0000000600fb
:1028500000c0da00000006002800fa00889fbe00d1
:102860008a9fbe008c9fbe0007067800878669009d
:102870000c003b00030478008704780008f0a100f6
:1028800009f0a100840f5000858f5800860f590071
:10289000890f5c00030033000cf0a20001003a0035
:1028a0000cf0a100ff0007006400e1005f003200af
:1028b000780147006408e100610032006c014700c4
:1028c000748557003200be001201be003a04be00fb
:1028d0001a05be001e039000be0a90008503530037
:1028e00006003d000004fd008104fd000205fd001e
:1028f0008305fd008703ea00050378000df8a300b7
:102900000400320060041400e0841c0060051d0017
:10291000e0851d006022b8007d0320000d38e10035
:102920008006eb000b0039004433dd00f300b200f9
:102930008301730039003700848272000d02780031
:10294000e10664008b85d1000a85d3008984d30019
:102950000884d3008703e900f7ff3b00080040002c
:10296000898048000a0149008b81490004003b002e
:1029700060001000e080180060011900e08119007b
:102980000358a300090032008d8272008482720015
:10299000610260008301d1000281d3008180d300f5
:1029a0000080d3000603e8001b0037000348a300a3
:1029b00017003a000600e000170034000603e900a3
:1029c0000d00a3000000480081804800020149007a
:1029d000838149000348a3000f003a000600e0008d
:1029e000090034000603e90000004000818048002f
:1029f000020149008381490001003a000003eb0015
:102a00000348a300f5ff32006022b800020037003f
:102a100084827200618266007600070003f0a100e4
:102a20000cf0a70003f0a000b200370064014700db
:102a30006408e10002003a000df8a300aa003a0081
:102a400032007800b20078001201be00a900370001
:102a50008f1fd100ad0107008f87e9000000e00063
:102a600000000600809feb00a80107008f87e900a7
:102a70000000e000000006002800fa00889fbe0069
:102a80008a9fbe008c9fbe0003866b0085000700f6
:102a90006400e100440032006408e1004a003200b2
:102aa0006100e100460032006108e10049003200a7
:102ab000ec0647006000b8003d02be003d03be00ca
:102ac000f48657006011b8003d04be003d05be000d
:102ad0007d0320000b0037000000a0008d06e900f8
:102ae000130032000402420085824a0006034b00b4
:102af00087834b00000040008180480002014900ac
:102b0000838149000802520089825a000a035b004f
:102b10008b835b00f0ff3b000802420089824a0081
:102b20000a034b008b834b008d06e900edff3a0052
:102b30008482720086827200f707b2008782720078
:102b400001003200150020001e0490003e0b900092
:102b500006035400e63fb0000368a30007003200fc
:102b60000000a7000500a0008301d1000281d3006e
:102b70008180d3000080d3000603e8008301d100e8
:102b80000281d3008180d3000080d3000002eb00db
:102b90000482d2001700070003f0a1000cf0a70088
:102ba00003f0a00053003700640247006408e1000e
:102bb0004d0032003400be003401be00f6ff370085
:102bc0006108e100480032006011b8006000b80000
:102bd000f1ff370003ff270002002000fbff370052
:102be000801feb00490107008f87e9000000e0002b
:102bf00000000600180020005700200008045300c1
:102c00000d003d000600200097fc2f000740e1006a
:102c10001e00340084827200610260008301d100d2
:102c20000281d3008180d3000080d3000804e80033
:102c3000f8ff3a00470020006104600005047400ba
:102c4000040464000d00320061004000e080480090
:102c500060014900e081490003b8a5000700320087
:102c60000603e8006538e10004003a008301d10062
:102c70000281d3008180d3000080d300f87f200040
:102c80000830e10003003500080378006000b80058
:102c90006011b8004433dd00f300b200830173001b
:102ca00000000600680447000294be000094be00c5
:102cb000fc0447008694be008494be00090078009e
:102cc0005c010700080078005a01070099007800ad
:102cd000814f70000b003b000800be00340107006c
:102ce0004f00b10003003700f3ff2700f2ff2f0071
:102cf0006110b9004f06be004f05be004f04be0074
:102d00000080fa00000006008103780041f8070007
:102d10000001be006000b8000478a30013003a0070
:102d20006220e10015003e000d0039008301d10052
:102d30000281d3008180d3008301d1000281d300be
:102d40008180d3008301d1000281d3008180d30030
:102d50000538b000c42add00f300b20083817200a0
:102d600007f0a70003f0a00000000600f3ff270013
:102d7000f2ff2f006110b900fbff370003ff2700af
:102d8000f7ff37001400fa00889fbe008a9fbe003c
:102d90008c9fbe000004be000205be006800470014
:102da0000a90be000890be00220107000070a70034
:102db0000bf0a1000bf8a30020003a009e09900040
:102dc0000e099000fe0090006e0090009e029000a0
:102dd0003443200084825200c6ff32000a003c00c7
:102de000b4fc2f000428e100140034008301d1005a
:102df0000281d3008180d3000080d3008502e800e7
:102e0000faff3a00bbff3700b40020000428e100bd
:102e100007003c000000400081804800020149009a
:102e2000838149008502e900faff3a00b1ff3700cb
:102e30000300280002002000010037006011b800e4
:102e40006000b800abff37006011b8002001370008
:102e50001400fa00889fbe008a9fbe008c9fbe00af
:102e6000040678000004be000205be0068004700aa
:102e70000a90be000890be00ee0007006200e1006c
:102e80000800be000a01be00040020000b003a004a
:102e90001e029000e43fb1006e009000fe00900022
:102ea0000e0990009e099000f300b20005fe230079
:102eb000858171000bf0a70003f0a000040e7800dc
:102ec0008cff3700000000002800fa00889fbe0039
:102ed0008a9fbe008c9fbe0003866b0071ff0700b7
:102ee0000028a30064003a000128a30068003a000b
:102ef0000008a30062003a000108a30066003a003f
:102f00001e009000be08900081064000ed3fb10019
:102f1000f4805700ee019000111ab8008e0990005d
:102f2000311bb8009e099000311cb800511db8003b
:102f3000f485570046000700fe0190003a000700a4
:102f40008b85e8003e0007008e09900040000700d6
:102f5000ee019000340007008b85e8003800070080
:102f60008e099000400007009e0990001b18b800d1
:102f7000890440000a854800fe01900034000700e3
:102f80008b85e80038000700ee0190003000070054
:102f90008e0990001b18b800890440000a8548007b
:102fa0000a98a30008003a000402420085824a0001
:102fb00006034b0087834b0008044c0089844c00b7
:102fc0000a054d008d06e9008482720085027300b7
:102fd0004c3add008502720001003200150020002d
:102fe000443ade001400b2004538de00cb45dd0077
:102ff0000b007000c540de00cb4ddd008b80700003
:103000004549de00cb55dd000b017100c551de00e6
:103010000d037800f7fe070003f0a1000cf0a700f5
:1030200003f0a00033ff37001b18b80085024000f2
:1030300006834800e0834b0060044c000700370023
:103040001b18b8000603400087834800faff3700ca
:103050001b18b8008703400008844800e0844c0037
:1030600060054d00000006001b18b8000804400071
:1030700089844800faff37000108a3001aff3a00cc
:103080005800be00000000005801be00e2ff3700fb
:103090000008a30014ff3a0009047800f8ff370085
:1030a00007f0a200ecfd37006022b8000602200005
:1030b0000000d0008180d2000482d2008582d2003c
:1030c0000000a0000202520083825a000300310077
:1030d0000202420083824a000000a1000603e900c8
:1030e000f3ff3a0000000600efff07000400be00f7
:1030f00000000600020ab900001bb9000200b80077
:10310000810042008100430000000600889fbe004d
:103110008a9fbe008c9fbe000404be000605be0050
:10312000809fbe00829fbe0030000700040678002a
:103130000800be000a01be002c00070084067800cb
:103140004f03be004f02be008d4f76007fb0970048
:1031500013003300f0ff2f008b8f6b0006003b0045
:103160000d0666000c00a7000a00370007f0a60055
:10317000100020000a003700880f5200898f5a0083
:103180008a0f5b008b8f5b0003003900100020006a
:1031900001003e000000200007f0a7000000ea0048
:1031a0004f06be004f05be004f04be0000000600e3
:1031b000e48240001078a30007003200640240005f
:1031c0001178a3003400be001401be0005003200d7
:1031d0000330a7000000060035007800b500780035
:1031e0001501be000330a0000000060005ff270007
:1031f00005826100070032000428e100010032006e
:10320000240005000600070001003a004400050004
:103210000408050002000700f9ff3a001400050049
:103220006f82610081027000850271008502720068
:10323000000006005002be00e40050005003be0033
:103240004439de00f700b200f37f20000301610083
:10325000090032000218e10016003a0085017200f0
:1032600083017300838173000008200015003a0079
:1032700040002000130037008501720083017300b5
:103280008381730005003a0004a8be0006a8be00b2
:10329000100020000b0037000201e9000402420088
:1032a00085824a0006034b0087834b000748a30032
:1032b000f9ff32000740a00004a8be0006a8be0027
:1032c0002000200080009800920098000000060076
:1032d000889fbe00008270000402710004827100a9
:1032e0002400320036432000c50020008383cf0035
:1032f0000a0039000541b1008283cf000700390080
:103300000541b1008183cf00040039000541b100bf
:103310008083cf00010039000541b10085c353000f
:103320006022b800120032000a003b008482720062
:10333000610260008301d1000281d3008180d3004b
:103340000080d3000603e8008743e800f7ff3a0057
:10335000070037000000400081804800020149005a
:10336000838149000603e9008743e900f9ff3a0039
:0c33700020fe07004f04be000000060015
:020000040000fa
:10337c00546500006d7000006572000061740000ff
:10338c00757200003a200000252e00003166000006
:10339c002047000072610000640000000a00000079
:1033ac004c69000063680000743a0000202500009e
:1033bc002e310000662000006c75000078000000c3
:1033cc0046650000686c0000657200002062000019
:1033dc00656900006d20000041750000736c0000f1
:1033ec0065730000656e00002100000020200000c5
:1033fc0020200000202000002020000020200000c1
:10340c00202000002020000020200000005300009d
:10341c007461000074750000733a000020250000f0
:10342c003032000058000000546500006d70000040
:10343c006572000061740000757200003a20000093
:10344c00252e00003166000000410000757300005d
:10345c006c61000073740000756e0000673a000028
:10346c00202500002e320000660000004865000098
:10347c006c6c00006f200000576f0000726c000035
:04348c0064000000d8
:020000040000fa
:103490000c00fa00000f780011079800220798002e
:1034a000330798004407980055079800c3e8a9001f
:1034b00050c32100104078000080fb008000e8002d
:1034c00040c32100104078000080fb00808f500036
:1034d0000800320040c32100104078000004e000e2
:1034e00007003a0050c3210010407800e14f40002f
:1034f00003003a00c3e8a8000000eb001b003700ff
:1035000050c32100104078000080fb00ec00b9009f
:103510008000780040032100808040000e00780089
:10352000b0187800a0107800e480400064004000eb
:10353000b0187800a0107800e480400064004000db
:10354000b0187800a0107800e480400064004000cb
:1035500050c32100104078008040e80050c3210093
:1035600001487800c3e8a800100020000080fa009d
:10357000000006000200fa00000f7800c3e8a9006e
:1035800040c321009040780050c3210010407800d3
:1035900080cf500003003a00c3e8a8000000eb0011
:1035a0001a00370040c32100104078000080fb0063
:1035b0009e007800ec01b9004003210000004100aa
:1035c000b0187800a0107800e4804000640040004b
:1035d000b0187800a0107800e4804000640040003b
:1035e000b0187800a0107800e4804000640040002b
:1035f00040c32100104078008040e80040c3210013
:1036000001487800c3e8a800100020000080fa00fc
:10361000000006001800fa00404f9800710798005b
:10362000020f9800130f9800240f9800350f980090
:10363000ce489000014f7800fe00900011079800de
:103640008e089000210798009e089000310798008e
:10365000ae08900041079800be08900051079800fe
:103660001e0078009e0090002e019000be01900088
:103670004e029000de02900085ff07000000e0008f
:103680000200320010002000010037000000eb00b3
:103690000080fa00000006000000fa00208180008f
:1036a00000000100208188000080fa000000060070
:1036b0000200fa001742a900500f2000a010880055
:1036c000006ea800004ea800026ea900024ea900dc
:1036d0000000eb00000f780007003700004ea90043
:1036e000100020004f050700004ea8001000200029
:1036f0004c0507001e0fe8001e007800e90f50007f
:10370000f6ff3400004ea900100020004505070018
:10371000006ea9001000200042050700004ea8001e
:10372000100020003f050700006ea80010002000d8
:103730003c0507000648a9002648a90017e2a80092
:103740000080fa00000006000000fa00800221005c
:1037500088ff07000000e000030032001602a80006
:10376000a0bb21000100370040ba21000080fa0010
:10377000000006000000fa00b01080006100600048
:103780000000e00015003a00508180000000e000d9
:103790000700320080022100104078000080fb000a
:1037a000000040009010880040bf21000c0037004e
:1037b000708180000000e0000800320080022100db
:1037c000104078000080fb00000040000000a000d6
:1037d00090108800e0c6210001003700a0bb210046
:1037e0000080fa00000006000000fa00c11080000e
:1037f00000002400008060000000e00024003a0087
:10380000c110800000002800008060000000e0007f
:10381000060032001642a80090818000210020009e
:1038200001087800a0d021001a003700c1108000e4
:1038300000002800008060000000e00014003a0052
:10384000e08080008000780050818000808f5000f0
:103850000b00310061818000e0808000008040002a
:10386000104078000080fb0090108800e08080000d
:103870000000e800e080880040bf2100050037001c
:103880001c30ef001622a800e0c421000100370020
:1038900040bf21000080fa00000006000000fa008e
:1038a000b0108000620060000000e00008003a00f4
:1038b00080022100104078000080fb0000004000e2
:1038c0000000a00090108800e0c621000100370031
:1038d000e0c421000080fa00000006000000fa00a9
:1038e000c110800000002400008060000000e000a3
:1038f00028003a00c110800000002800008060000d
:103900000000e000060032001642a800908180000e
:103910002100200001087800a0d021001e003700ff
:10392000c110800000002800008060000000e0005e
:1039300018003a00b0108000700060000000e00045
:1039400012003a00d08080008000780070818000f2
:10395000808f500006003100d08080000000e80019
:10396000d08088001662a80000cd21000a00370030
:103970001a30ef001642a80090818000110020004c
:1039800001087800a0d0210003003700e0c6210024
:1039900001003700e0c621000080fa0000000600a8
:1039a0000000fa00b0108000680060000000e00035
:1039b00015003a0081818000c080800000804000b6
:1039c000811080008140780001487800c08080002c
:1039d0000000e800c0808800c0808000800078007f
:1039e00070818000808f5000030039001830ef0094
:1039f00016a2a8000100370016a2a9001682a8008e
:103a0000e0c621000100370000cd21000080fa004f
:103a1000000006000000fa00b010800064006000a2
:103a20000000e00002003a0040ba21000100370027
:103a3000a0d021000080fa00000006003600fa0045
:103a400090808000e10f500014003a00440007000d
:103a500076014700809fbe00e09b2900801f780010
:103a60000200780000f50700e6875700760047005f
:103a7000bf02070022002000419d29000e007800af
:103a800020fb07000e007800b90207003400070091
:103a900010808800218088001230ef00a080800014
:103aa000e10f500011003a00430007000e81e800ca
:103ab000809fbe00609d2900801f78000200780072
:103ac000e9f40700e68757000e80e800a802070027
:103ad0007200470022002000419d290009fb0700d9
:103ae00072004700a20207001430ef00a08080009f
:103af000e20f50000300320090808000e20f50007f
:103b000015003a0081808000703e2000808f5000b8
:103b10000e0034001030ef007600470062012000f4
:103b2000619e2900f7fa070076004700900207001f
:103b30007400470022002000419d2900f1fa07008f
:103b4000740047008a02070003003700808080006d
:103b50000000e800808088000080fa000000060075
:103b60000400fa0020012200104078000080fb00d1
:103b7000c800dd0030012200104078000080fb000a
:103b800001007000cf80de00ecf30700008fbe0064
:103b900002002000033824001e0078009e009000e0
:103ba000a4f30700008fbe001e0078009e00900066
:103bb0000080fa00000006000400fa004001220024
:103bc000104078000080fb00c800dd00500122009a
:103bd000104078000080fb0001007000cf80de0004
:103be000d6f30700008fbe00a299290093f92300a5
:103bf0001e0078009e0090008ef30700008fbe002c
:103c00001e0078009e0090000080fa000000060070
:103c10001000fa00708080000000e80070808800ca
:103c200071808000f0702200808f500029003600e3
:103c300031088000010f78004208800012079800c8
:103c40001e0078008000eb00bff307000200200098
:103c500003122400fcf307002007980031079800a6
:103c60001e0090008000eb00b7f3070002f02f0069
:103c7000f3772400f4f3070002002000031224006d
:103c8000f1f3070040079800510798004e0190009b
:103c9000de0190002e009000be00900008f30700a7
:103ca00002c22b00e3c3240062f307006007980000
:103cb000710798006e019000fe019000328088002c
:103cc000438088000e30ef000821ef000a21ef004a
:103cd0000621ef000080fa00000006000000fa0054
:103ce000508080000000e0000f0034001100200030
:103cf000200020004b010700c09f29002901070078
:103d00001100200020002000460107006001220071
:103d100024010700420120008000eb006001220026
:103d20007ffa07000a30ef000080fa00000006006a
:103d30002200fa00750107000080fb00801f780058
:103d4000d0a02900801f78000e00780046f40700fc
:103d5000e48757000e0078000502070000022000eb
:103d60000e00400022002000419d290065fa070056
:103d7000000220000e004000fd0107000080fa0054
:103d8000000006002000fa00608080000000e800cb
:103d9000608088006180800070bb2000808f5000b0
:103da000230036000c30ef0017d0bf000004e00005
:103db0000f0032001080800021808000809fbe00b4
:103dc000a0a12900801f78000e00780026f40700cb
:103dd000e6875700110020001000200011010700a5
:103de0000e007800ef0007001770ef000f0037009b
:103df0003080800041808000809fbe00b0a22900fa
:103e0000801f78000e00780017f40700e68757003f
:103e10001100200010002000020107000e007800b1
:103e2000e000070010c0b30017f0b700abff0700b9
:103e30000080fa00000006000200fa000000eb001b
:103e4000000f780006030700500107003003070049
:103e50004b0307005903070015fe07003000070059
:103e6000c0a32900cf000700007d20006d030700dc
:103e7000b90007001134800000fc2f0000806000b2
:103e80000000a000103488002136800000f82f00c8
:103e900080806000800520000100700020368800ce
:103ea000500ea9003135800000f82f00808060009e
:103eb000000620000100700030358800410ea80087
:103ec0004f0ea9000300370000000000010037007a
:103ed00000000000540ea900114080000080200066
:103ee000008060000000e000f7ff32000368a900d6
:103ef0001e0fe8001e0078000000e000f4ff320012
:103f0000540ea8000000eb00000f7800e2fd07004f
:103f1000cafe07003eff07009aff0700edff3700cb
:103f20000000fa0011eea90030aea900308ea90001
:103f30000172800000f02f00008060000072880095
:103f40001feea9007172800000f02f000080600059
:103f500070728800328ea90013eea90032aea9005b
:103f6000800220002f0307002172800000f02f0044
:103f70008080600000032000010070002072880033
:103f8000328ea8001f00090000000000328ea90038
:103f9000800c22003100200067030700217280009e
:103fa00000f02f00808060000003200001007000fe
:103fb00020728800328ea8001f0009000000000057
:103fc000328ea90080382100010020005a0307002a
:103fd0002172800000f02f0080806000000320002c
:103fe0000100700020728800328ea8001f000900b6
:103ff00000000000328ea900c076200001002000e1
:104000004d0307002172800000f02f0080806000c7
:10401000800320000100700020728800328ea8000a
:104020001f00090000000000328ea900c0762000a9
:1040300001002000400307002172800000f02f00e3
:10404000008060000030a00020728800328ea8003e
:104050001f00090000000000328ea900c076200079
:1040600001002000340307002172800000f02f00bf
:10407000008060000000a00020728800328ea8003e
:104080001f00090000000000328ea900008e2200ef
:1040900011002000280307002172800000f02f008b
:1040a000008060006000b30020728800328ea8009b
:1040b0001f00090000000000328ea900c076200019
:1040c000010020001c0307002172800000f02f0077
:1040d00000806000e000b30020728800328ea800eb
:1040e0001f00090000000000328ea900c0762000e9
:1040f00001002000100307000080fa000000060005
:104100000200fa00004f78009900070013eea800a3
:1041100032aea900020009000000000021728000f8
:1041200000f02f00808060001e80fb000100700006
:1041300020728800328ea8001f00090000000000d5
:10414000328ea900c076200001002000fa0207008c
:104150000080fa00000006000000fa00840007005a
:1041600013eea90032aea900020009000000000011
:104170002172800000f02f00008060000000a0008d
:1041800020728800328ea8001f0009000000000085
:10419000328ea90020002000a20207000080fa0051
:1041a000000006000400fa00100798000040eb0031
:1041b000004f7800130037001e80fb009e00900027
:1041c0000080400010407800ff4f50001300340082
:1041d0001e80fb009e009000008040009040780010
:1041e000f0c7b30080cf50000c0032001e80fb00ef
:1041f0009e0090000080400010407800c0ff070043
:104200001e4fe8001e80fb009e00900000804000d2
:10421000104078000004e000e7ff3a000080fa0058
:10422000000006000800fa002007980031079800f7
:104230004f00070013eea90032aea90002000900ea
:10424000000000002172800000f02f00008060005c
:104250000010a00020728800328ea8001f00090004
:1042600000000000328ea900200020006d0207002f
:104270000000eb00000f78000000eb001007980032
:104280002e009000e10f500003003a00be009000a5
:1042900011079800030037003e0090008002b00034
:1042a000100798000000eb00000f780011003700a5
:1042b00013eea90032aea9000200090000000000c0
:1042c0002172800000f02f00008060004001b300e8
:1042d00020728800328ea8001f0009000000000034
:1042e000328ea900c0762000010020009202070053
:1042f0001e0fe8001e0090000000e9009e0f500015
:10430000ebff3c000080fa00000006000200fa000b
:1043100001728000f00f2000010070000072880020
:1043200013eea90032aea800020009000000000050
:10433000328ea800120009000000000010728000f8
:10434000004f7800328ea900606d2000010020002f
:10435000790207000172800000f02f0000806000e9
:10436000007288001e4078000080fa0000000600fd
:104370000000fa0000000000e4ff07000004e00075
:10438000fdff35000080fa00000006000000fa0082
:104390002002a9000111800090ff2f000080600022
:1043a0000011880020a2a90001118000f0cf2f0089
:1043b000008060000011880020c2a9002082a900ae
:1043c0002082a9002162a9002062a90040142000d7
:1043d0004011880023a2a90023e2a9002362a900ba
:1043e00022a2a90023c2a90011118000f0f32f001e
:1043f00000806000101188001011800000c0a00033
:10440000101188002168a80021e2a80020002000e7
:10441000040207002342a800200020000102070038
:104420002188a8000080fa00000006000200fa00bf
:10443000004f7800c3e8a900540ea80070d32100f3
:10444000104078000080fb008000e80060d321006d
:10445000104078000080fb00808f50000800320080
:1044600060d32100104078000004e00007003a000b
:1044700070d3210010407800e14f400003003a0063
:10448000c3e8a8000000eb000e00370070d3210045
:10449000104078000081fb009e40780060c321003e
:1044a000000041000148780070d3210010407800de
:1044b0008040e80070d3210001487800c3e8a800dc
:1044c000100020000080fa00000006000200fa0040
:1044d000000f7800c3e8a90060d321009040780065
:1044e00070d321001040780080cf500003003a00c4
:1044f000c3e8a8000000eb001000370060d32100e3
:10450000104078008080fb0060c3210000804000e4
:10451000104078008080fb001e00780001087800c1
:1045200060d32100104078008040e80060d3210073
:1045300001487800c3e8a800100020000080fa00bd
:10454000000006000400fa0020479800540ea8005e
:10455000c3e8a9002e409000b4ff0700000f7800c8
:10456000c3e8a8001e0078000080fa0000000600e2
:104570000800fa00300798003e0090006ff807002e
:1045800020079800c3e8a9000000eb00000f7800a6
:10459000070037003e0090001e00400010407800e9
:1045a000a2ff07000000e000060032001e0fe80036
:1045b0002e0090009e007800808f5000f5ff39009b
:1045c0000100370000000000c3e8a8001e00ea0058
:1045d000100798009e0090002e0090000000ea0056
:1045e000808f500003003a001e0090000000ea0097
:1045f000100798000188a8001e0090000080fa00b3
:10460000000006000200fa00004f7800c3e8a9008d
:1046100090e32100104078000080fb008000e8005b
:1046200080e32100104078000080fb00808f500064
:104630000800320080e32100104078000004e00010
:1046400006003a0090e3210010407800e14f40005e
:1046500002003a000000eb000e00370090e321005a
:10466000104078000081fb009e40780080d321003c
:10467000000041000148780090e3210010407800dc
:104680008040e80090e3210001487800c3e8a800da
:10469000100020000080fa00000006000200fa006e
:1046a000000f7800c3e8a90080e321009040780063
:1046b00090e321001040780080cf500003003a00c2
:1046c000c3e8a8000000eb001000370080e32100e1
:1046d000104078008080fb0080d3210000804000e3
:1046e00010407800804078001e0078000148780073
:1046f00080e32100104078008040e80080e3210042
:1047000001487800c3e8a800100020000080fa00eb
:04471000000006009f
:020000040000fa
:1047140022100000020000008000000012200000af
:1047240018000000800000001210000006000000c5
:1047340082000000020002000010010000100000ce
:1047440012000000800000001e10000004000000a1
:1047540082000000de0800000000000028100000b5
:104764000e0c00008000000018100000060000007d
:1047740080000000241000000200000082000000fd
:10478400a41b0000361c000004020000800000008e
:104794002610000002000000800000009a1f0000a4
:1047a4005200000082000000303132003334350002
:1047b4003637380039414200434445004600300052
:1047c40031323300343536003738390061626300e2
:1047d4006465660000286e00756c6c00290000009a
:1047e40001000000000a0000000064000000000056
:1047f400e8030000001027000000a000860100006c
:1048040040420f000080960098000000e1f505008a
:1048140000ca9a003b000000ec1f000026000000c4
:10482400820000002b200000002b20000900000063
:10483400000200002d200000002d20000e020100c7
:10484400000000000000000000000000060202005a
:1048540000000000ec1f00002a20000006000000f9
:10486400800000003a1e0000600100008200000089
:104874000000000000000000f03f00000000000005
:104884000000240040000000000000000059400027
:1048940000000000000040008f4000000000000005
:1048a4000088c30040000000000000006af84000d7
:1048b40000000000008084002e4100000000000081
:1048c400d01263004100000000008400d79741002b
:1048d400000000000065cd00cd4100000000200074
:1048e4005fa0020042408c00b5781d00af15440063
:1048f400ea8ca00039593e002946a5005cc3f100aa
:1049040029633d00489a64007ec50e001b514a008d
:1049140044f3c200e4e4e900634c3d00c7ddd60083
:10492400ba2e77004e5ffb00f051ef00fc8a500076
:10493400c7592900090f6b009f527d00c3942500bd
:10494400ad49b200545a6200d7d71800e774690021
:104954009c750000883ce400377e000000000000e5
:104964000000f0003f9a99009999990099b93f0085
:104974007b14ae0047e17a00843ffc00a9f1d20029
:104984004d6250003f2d43001cebe200361a3f00fd
:10499400f168e30088b5f800e43e8d00edb5a000b1
:1049a400f7c6b0003e48af00bc9af200d77a3e008a
:1049b4003a8c3000e28e7900453e9500d626e80018
:1049c4000b2e11003ebbbd00d7d9df007cdb3d00c0
:1049d400234292000ca19c00c73ba000c2ebfe0046
:1049e4004b48b400399c5700772726006ca1370048
:1049f4001fb8d4004a7aee008d352600a6acaa0072
:104a040004b67900339d35008f1de9001566310029
:104a140023614d0017acf800522f6f000e998400eb
:104a2400d94b40002d3005008ee42e00ff2b2b00c7
:104a3400acf74e0015927e0068165900f3f8c200d8
:104a44001f6ea500010000003020000002000000dd
:0c4a5400820000000100000000000000d3
:020000040000fa
:104a60000000fa00213a8000f0f32f00008060007f
:104a7000203a8800b0072000303a8800213a8000b0
:104a800000fe2f00008060003000b300203a880054
:104a90004827ef003200200080072000a1092000f5
:104aa0003374200080497800814978008249780079
:104ab000103a8000000178000200a000600420008d
:104ac0007105200023742000804978008149780016
:104ad0008249780000000000113a800000002700a1
:104ae0008080600000002300808f5000faff3a00b1
:104af00000000000113a80000002200000806000e9
:104b00000000e000fbff32000080fa000000060019
:104b10000000fa003200200060042000710520002f
:104b20002374200080497800814978008249780008
:104b300005e1a9000421a8000441a9002108800082
:104b4000f0fc2f0000806000200888000021ef00aa
:104b5000f0ff27001008880001428000f0ff2800c5
:104b60000080600000d0a000004288000068a9001a
:104b70002068a80005e1a8000080fa0000000600f7
:104b80000000fa001fe1a9001e21a9001ec1a90012
:104b9000f1088000f0fc2f00008060000050a000b1
:104ba000f00888001421ef00c0302000d0088800f1
:104bb0001fe1a8000080fa00000006000000fa00d3
:104bc00013e1a90011e1a9001061a8001021a900ba
:104bd00010c1a80081088000f0fc2f000080600058
:104be000800888000a21ef000621ef000080eb001a
:104bf000700888000080eb00600888002142800077
:104c000080ff2f00008060000000a000204288008c
:104c10000108a9002108a90011e1a8000080fa00fc
:104c2000000006000600fa00200798006000b800a7
:104c3000008fbe006000b800008fbe000400370087
:104c400012002000030020001e0f41005e97490063
:104c50002e0090006101b800f0808000018180008a
:104c6000809ab900828bb900860278000502420062
:104c70000010b8000102420084007800be0f50000e
:104c8000ae8f5800eeff3e000080fa0000000600e4
:104c90000600fa00200798000000eb00000f7800e3
:104ca0000b0037000000eb001007980004003700ed
:104cb000000000001e0090000000e80010079800af
:104cc0001e009000e30f5000f9ff36001e0fe800b1
:104cd0009e0078002e009000808f5000f1ff390078
:104ce0000080fa00000006000000fa000080fa00d0
:104cf000000006000200fa00000f78001e00780095
:104d0000e30f500009003e009e00780068804000dc
:104d1000110020000008dd0080007800a0708000f5
:104d200001007000a0708800010037000000000042
:084d30000080fa0000000600fb
:020000040000fa
:104d3800f03fb1000180b10006003500ee03090024
:104d480000000000403fb1000180b100fbff3d00c2
:104d58001000b000203fb0000200350000800900bc
:084d680000000000000006003d
:020000040000fa
:0200000401f009
:04000800cfff000026
:020000040000fa
:0200000401f009
:04000c00ffffff00f3
:020000040000fa
:0200000401f009
:040010007dffff0071
:020000040000fa
:0200000401f009
:040014007fffff006b
:020000040000fa
:0200000401f009
:04001800dfffff0007
:020000040000fa
:0200000401f009
:04001c00dfffff0003
:020000040000fa
:0200000401f009
:04002000cfffff000f
:00000001FF
