:020000040000fa
:080000000002040000000000f2
:020000040000fa
:040008005e03000093
:020000040000fa
:04000c006403000089
:020000040000fa
:040010008003000069
:020000040000fa
:040014006a0300007b
:020000040000fa
:040018007003000071
:020000040000fa
:04001c007603000067
:020000040000fa
:040020008403000055
:020000040000fa
:040024007c03000059
:020000040000fa
:040028007c03000055
:020000040000fa
:04002c007c03000051
:020000040000fa
:040030007c0300004d
:020000040000fa
:0400340016030000af
:020000040000fa
:040038007c03000045
:020000040000fa
:04003c007c03000041
:020000040000fa
:040040007c0300003d
:020000040000fa
:040044007c03000039
:020000040000fa
:040048007c03000035
:020000040000fa
:04004c007c03000031
:020000040000fa
:040050007c0300002d
:020000040000fa
:040054007c03000029
:020000040000fa
:040058008803000019
:020000040000fa
:04005c007c03000021
:020000040000fa
:040060007c0300001d
:020000040000fa
:040064007c03000019
:020000040000fa
:040068007c03000015
:020000040000fa
:04006c007c03000011
:020000040000fa
:040070007c0300000d
:020000040000fa
:040074007c03000009
:020000040000fa
:040078007c03000005
:020000040000fa
:04007c007c03000001
:020000040000fa
:040080007c030000fd
:020000040000fa
:040084007c030000f9
:020000040000fa
:040088007c030000f5
:020000040000fa
:04008c007c030000f1
:020000040000fa
:040090007c030000ed
:020000040000fa
:040094007c030000e9
:020000040000fa
:040098007c030000e5
:020000040000fa
:04009c007c030000e1
:020000040000fa
:0400a0007c030000dd
:020000040000fa
:0400a4007c030000d9
:020000040000fa
:0400a8007c030000d5
:020000040000fa
:0400ac007c030000d1
:020000040000fa
:0400b0007c030000cd
:020000040000fa
:0400b4007c030000c9
:020000040000fa
:0400b8007c030000c5
:020000040000fa
:0400bc007c030000c1
:020000040000fa
:0400c0007c030000bd
:020000040000fa
:0400c4007c030000b9
:020000040000fa
:0400c8007c030000b5
:020000040000fa
:0400cc007c030000b1
:020000040000fa
:0400d0007c030000ad
:020000040000fa
:0400d4007c030000a9
:020000040000fa
:0400d8007c030000a5
:020000040000fa
:0400dc007c030000a1
:020000040000fa
:0400e0007c0300009d
:020000040000fa
:0400e4007c03000099
:020000040000fa
:0400e8007c03000095
:020000040000fa
:0400ec007c03000091
:020000040000fa
:0400f0007c0300008d
:020000040000fa
:0400f4007c03000089
:020000040000fa
:0400f8007c03000085
:020000040000fa
:0400fc007c03000081
:020000040000fa
:040100007c0300007c
:020000040000fa
:040104007c03000078
:020000040000fa
:040108007c03000074
:020000040000fa
:04010c007c03000070
:020000040000fa
:040110007c0300006c
:020000040000fa
:040114007c03000068
:020000040000fa
:040118007c03000064
:020000040000fa
:04011c007c03000060
:020000040000fa
:040120007c0300005c
:020000040000fa
:040124007c03000058
:020000040000fa
:040128007c03000054
:020000040000fa
:04012c007c03000050
:020000040000fa
:040130007c0300004c
:020000040000fa
:040134007c03000048
:020000040000fa
:040138007c03000044
:020000040000fa
:04013c007c03000040
:020000040000fa
:040140007c0300003c
:020000040000fa
:040144007c03000038
:020000040000fa
:040148007c03000034
:020000040000fa
:04014c007c03000030
:020000040000fa
:040150007c0300002c
:020000040000fa
:040154007c03000028
:020000040000fa
:040158007c03000024
:020000040000fa
:04015c007c03000020
:020000040000fa
:040160007c0300001c
:020000040000fa
:040164007c03000018
:020000040000fa
:040168007c03000014
:020000040000fa
:04016c007c03000010
:020000040000fa
:040170007c0300000c
:020000040000fa
:040174007c03000008
:020000040000fa
:040178007c03000004
:020000040000fa
:04017c007c03000000
:020000040000fa
:040180007c030000fc
:020000040000fa
:040184007c030000f8
:020000040000fa
:040188007c030000f4
:020000040000fa
:04018c007c030000f0
:020000040000fa
:040190007c030000ec
:020000040000fa
:040194007c030000e8
:020000040000fa
:040198007c030000e4
:020000040000fa
:04019c007c030000e0
:020000040000fa
:0401a0007c030000dc
:020000040000fa
:0401a4007c030000d8
:020000040000fa
:0401a8007c030000d4
:020000040000fa
:0401ac007c030000d0
:020000040000fa
:0401b0007c030000cc
:020000040000fa
:0401b4007c030000c8
:020000040000fa
:0401b8007c030000c4
:020000040000fa
:0401bc007c030000c0
:020000040000fa
:0401c0007c030000bc
:020000040000fa
:0401c4007c030000b8
:020000040000fa
:0401c8007c030000b4
:020000040000fa
:0401cc007c030000b0
:020000040000fa
:0401d0007c030000ac
:020000040000fa
:0401d4007c030000a8
:020000040000fa
:0401d8007c030000a4
:020000040000fa
:0401dc007c030000a0
:020000040000fa
:0401e0007c0300009c
:020000040000fa
:0401e4007c03000098
:020000040000fa
:0401e8007c03000094
:020000040000fa
:0401ec007c03000090
:020000040000fa
:0401f0007c0300008c
:020000040000fa
:0401f4007c03000088
:020000040000fa
:0401f8007c03000084
:020000040000fa
:0401fc007c03000080
:020000040000fa
:040200007c0300007b
:020000040000fa
:040204007c03000077
:020000040000fa
:040208007c03000073
:020000040000fa
:04020c007c0300006f
:020000040000fa
:040210007c0300006b
:020000040000fa
:040214007c03000067
:020000040000fa
:040218007c03000063
:020000040000fa
:04021c007c0300005f
:020000040000fa
:040220007c0300005b
:020000040000fa
:040224007c03000057
:020000040000fa
:040228007c03000053
:020000040000fa
:04022c007c0300004f
:020000040000fa
:040230007c0300004b
:020000040000fa
:040234007c03000047
:020000040000fa
:040238007c03000043
:020000040000fa
:04023c007c0300003f
:020000040000fa
:040240007c0300003b
:020000040000fa
:040244007c03000037
:020000040000fa
:040248007c03000033
:020000040000fa
:04024c007c0300002f
:020000040000fa
:040250007c0300002b
:020000040000fa
:040254007c03000027
:020000040000fa
:040258007c03000023
:020000040000fa
:04025c007c0300001f
:020000040000fa
:040260007c0300001b
:020000040000fa
:040264007c03000017
:020000040000fa
:10040000cfef21000eff27000e0188000000000042
:10041000000020000000e000020032000001200087
:1004200020028800140007000b0107000000e00014
:1004300003003a00e0ac2100010020000200370078
:100440000000200001002000810f70000100320038
:100450000f000700000020000000e0000200320052
:100460000000020000000000a61e020000000000c4
:100470000040da000000fe00a00420000000e000c0
:1004800002003200002020009001880000000600d9
:10049000a1028800800478000000eb001f003700f4
:1004a000e284440054a0b4009905ba00e2844400f8
:1004b00054a0b4009906ba00e284440054a0b400e9
:1004c0000006eb00476fde00fd07b200ae018800ba
:1004d000636ce10003003a000ad801000000eb0061
:1004e0000e003700606ce10008003a00004deb00a0
:1004f0000a05e800020039003420ec000af0a000f0
:100500008b05e900f9ff3e00040037006168e10057
:10051000010032000086eb000b00070019c7ba008b
:100520000e04e0001905ba0003003a000a00e000da
:10053000dbff3a0000000600fe07b200ae028800b2
:100540008a047800f5ff37000cd0a300e20f4d00bd
:100550001c00390089027800354dba000a05e80010
:10056000020039003420ec000af0a0008b05e900fd
:100570000f003200254dba000a05e80002003900dc
:100580003420ec000af0a0008b05e90008003200de
:100590000c00e0000600320015cdba000a05e800a4
:1005a000020039003420ec000af0a0008b05e900bd
:1005b0008984e80054a0b4000b00e000e2ff3a0098
:1005c000000006009902ba00055d78008b05e9007d
:1005d000f7ff3200c82ade00055d78008b05e900d0
:1005e000f3ff32000c00e000f1ff320019ddba0029
:1005f000eeff37006a1904000000000054190400df
:1006000000000000a4190400000000001e1a0400ed
:1006100000000000ba1a040000000000fe190400e7
:1006200000000000801a0400000000003600f800fe
:10063000809fbe00829fbe00849fbe00869fbe003a
:100640000000fa000068a900b08080000000e0000f
:10065000100035001630ef00a5002100a4e82100ad
:1006600023002000420021001100200080c4b300bc
:10067000c00a0700c5002100c4e8210023002000b3
:10068000e20021001100200030c2b300b90a0700c7
:1006900003003700b08080000000e800b0808800d0
:1006a0000080fa004f03be004f02be004f01be00a3
:1006b0004f00be003600f900004006000000fa00be
:1006c000c028a900ffff37000000fa00c068a90099
:1006d000ffff37000000fa00c048a900ffff370005
:1006e0000000fa00c088a900ffff37000000fa00f0
:1006f000c0a8a900ffff37000000fa00ffff370085
:100700000000fa00ffff37000000fa00ffff37008b
:100710003600f800809fbe00829fbe00849fbe000e
:10072000869fbe000000fa000188a9004022200038
:10073000020e07000080fa004f03be004f02be0009
:100740004f01be004f00be003600f9000040060019
:100750000a00fa00e20f500034003e00d0f780009b
:10076000e10f500003003200e20f500011003a0088
:100770000c003700032220000300e00001003a00d3
:100780000040da002002e200020035002822ef00db
:1007900021e2a8002342ab000d003a002342a8004a
:1007a0000b003700032320000300e00001003a00a3
:1007b0000040da003002e200020035003822ef008b
:1007c00031e2a8003342ab0001003a003342a800f6
:1007d000820178000b0037003102fb00e10f50006e
:1007e00004003a002322ab00feff3a0024118800e7
:1007f000030037003322ab00feff3a00a41188004b
:100800008301e9000300e000f3ff3a00e10f50002c
:1008100003003a002302ab00feff32000b0037005a
:100820003302ab00feff3200080037003300200027
:10083000b3bf9f00c0bf9f00d1bf9f00e2bf9f001a
:100840006a805700f90607006fb997000200780028
:100850000080fa000000060000000500889fbe002e
:100860008a9fbe008c1f7800670007006e0033006f
:1008700003866c006450e1002e0032006420e10029
:10088000330032006150e1002f0032006120e100ae
:100890003100320085855500eb07b00009002000cb
:1008a00008042000050037000804440089844c0037
:1008b0000a0031000603430087834b000001530008
:1008c00081815b00f8ff33000203be000800a00036
:1008d0000804440089844c00f6ff3900c639dd0065
:1008e0008301730001003200130020008904d1004d
:1008f0000884d3000998a300050032000800a7006f
:100900000300a0008904d1000884d3008b05e8000f
:100910008904d1000884d3000001eb000281d200d9
:100920001300070001f0a1000cf0a70001f0a000e7
:10093000460037006420e100480032000801be0094
:100940000200be00f7ff37006120e10043003200e3
:100950006000b800f3ff37000000200001f8270016
:10096000f0ff37004f89de00820178003e0037003b
:1009700081002000618055000b003d000b0020002d
:1009800061fe2f000100e1001d0034008281710032
:10099000610164008904d1000884d3000000e800ec
:1009a000faff3a007100200061006400030070004b
:1009b000020060000900320061044400e0844c0041
:1009c0000988a500050032008b05e8006808e100f1
:1009d00002003a008904d1000884d300f20f2000fd
:1009e0000258e10005003d00c75ddd00f907b200d7
:1009f0008980750008007800000006000bf82700c9
:100a00008b007800000005000004be0055000700c0
:100a10000003be000405be000200be005100070036
:100a2000844f7500000006000200be006450e10023
:100a3000050036006420e100020036000968a300ca
:100a400001003a000800be000160a0004f067800d7
:100a50004f05be004f04be0000000600f0ff2f004f
:100a6000f1ff2700f9ff3700881f780003047800a2
:100a70000300e00007003d0060001000e080180067
:100a800060011900e081190002003b0001f02d0017
:100a9000030037000400070008f0a70001f0a000e1
:100aa0004f04780000000600889fbe008a9fbe00a9
:100ab000008270000402710004827100260032007e
:100ac0000004be000200be006011b8006b092000e7
:100ad000950220000182cf000a0039000541b100d3
:100ae0000082cf00070039000541b1000982cf0024
:100af000040039000541b1000882cf00010039002f
:100b00000541b10005425200120032000a003b00cc
:100b100082817100610164008100d1000080d300f6
:100b20008984d3000884d3008b05e8000442e800e0
:100b3000f7ff3a00070037000804440089844c009e
:100b400000004800818048008b05e9000442e9006c
:100b5000f9ff3a0086ff07004f05be004f04be00b4
:100b600000000600c70ade00f107b200f50fb20070
:100b700008003200e1cf4200020032000170a00004
:100b800024000500810f70000100320004080500f8
:100b900044000500810f700002003a0014000500b7
:100ba0008502e9000000400081c04800fcff3b00d6
:100bb0000170a000240005000c00fa00889fbe0010
:100bc00000047800f0ff2700d0bf9f008004eb00f6
:100bd00099bf9f0088bf9f00a8bf9f00200c2000e6
:100be000b0bf9f0078815700cfb09700708057004a
:100bf000e70007000fb89700094878008fb8970002
:100c0000088050004f04be000080fa00000006007b
:100c10000800fa00889fbe008a9fbe000084fb0087
:100c2000d1c6b300814f50003a0036004b06200079
:100c3000110009000b84d800810578007200400083
:100c40004300dd0089cd2100008044006022b8000f
:100c50000600200007fe2300900090002001900075
:100c6000b0019000100078008f0707000002be005e
:100c70000203be0084bf9f0095bf9f00a6bf9f00d8
:100c8000b7bf9f00aa002000110009008a85d80084
:100c900080057800e9854500c35ddd008b85440053
:100ca0001b0278009b0290002b039000bb03900076
:100cb0000fb897009fb897002fb99700bfb997005a
:100cc000790707000002be000203be0084bf9f0038
:100cd00095bf9f00a6bf9f00b7bf9f0011000900ee
:100ce0000a84d800010478004344dd00888444006d
:100cf000190278009902900029039000b90390002e
:100d00000fb897009fb897002fb99700bfb9970009
:100d100023003700ea4f500017003600aa002000d9
:100d2000110009000a84d800010578006904400018
:100d30004344dd0089cd2100088444006022b800ce
:100d40000600200007fe230018007800980090009d
:100d500028019000b8019000530707004355dd00bb
:100d60008a844400190278009902900029039000b7
:100d7000b90390000a0037004344dd0080cd210014
:100d8000080440006022b8000600200007fe23008f
:100d9000180078009800900028019000b801900099
:100da000410707004f05be004f04be000080fa0057
:100db000000006000800fa00889fbe008a9fbe005f
:100dc000d1c6b3000004e00027003d000040ea0067
:100dd0000004fb00814f50000a003400420620004e
:100de000110009000204d800a90020001100090028
:100df0008900d800e9004000c308dd008acd210049
:100e000025003700ea4f500014003400a2002000f3
:100e1000110009000204d8000101780069004000b7
:100e20004300dd0081cd2100008040004311dd0042
:100e3000828040001102780091029000210390000e
:100e4000b10390009000900020019000b00190004c
:100e50001000780014070700400037004344dd000d
:100e600080cd2100380037000004fb00814f500086
:100e70002900340042062000110009000204d800b5
:100e8000a9002000110009008900d800e9004000f5
:100e9000c308dd008ac221008100450011027800ec
:100ea0009102900021039000b10390008b09200073
:100eb0008a8545001b0078009b0090002b01900064
:100ec000bb019000f80607000002be000203be004e
:100ed00084bf9f0095bf9f00a6bf9f00b7bf9f0024
:100ee000110009000904d800010478004344dd0022
:100ef000080545001a0278009a0290002a03900023
:100f0000ba0390000fb897009fb897002fb99700c9
:100f1000bfb99700cfff3700ea4f500008003400f8
:100f2000a2002000110009000204d800010178008d
:100f3000690040004300dd0081c22100baff370094
:100f40004344dd0080c221000804400018007800fe
:100f50009800900028019000b80190004f05be0055
:100f60004f04be000080fa0000000600d00190008f
:100f7000028151004240a9000300340010017800b2
:100f8000014978000208e80001007800000006002e
:100f90006f02b000889fbe008a9fbe008c9fbe007b
:100fa0008e1f780000067800b1af9f0082b79f00c7
:100fb0006000b8006011b800c0af9f00d1af9f00c3
:100fc000e2af9f00f3af9f008006eb007c04370088
:100fd000bfa897008100e800b1af9f0051c2b300e5
:100fe000814f500003003a00bfa997000000eb00ba
:100ff00011003700bc0090000000fb000168a30056
:10100000070032000d017800800078000c007800a5
:10101000d6ff07000000e00005003a006804370032
:101020008c00780072040700e10f40006404320075
:101030008d06e8006204370003017800b3407800b1
:10104000d4c2b30084cf50000c00320007003c0033
:101050006d42520084cf50000a0032006b424200c1
:1010600084cf50000d003a000800370004c3b300dd
:1010700084cf500009003a00060037000030a0007d
:10108000edff37000000a000ebff37000010a000cc
:10109000e9ff37000020a000e7ff37000018a30099
:1010a000010032000000a1000038a300010032005e
:1010b0000020a1008101fb000303b100e98f510072
:1010c0000c003e00820178008005eb00ea59b9006f
:1010d000b305fb000b03b1008285450003017800d6
:1010e0009300fb000103b100e98f5000f7ff3600c9
:1010f000080037008005eb00a3c2b30083cf500087
:1011000004003a008fb19700c305780083b79f00b1
:101110000201e800e1c2b30092cf100017003a00cc
:1011200000e0a000e4c05000d2cf10000400320064
:10113000820078000002eb00e4b79f00080037004f
:101140008fb297004503780085b79f00e6b79f00f0
:101150000201e8000c003700ea22b90004824100d5
:1011600001017800b101fb000303b100e98f5100d8
:10117000f9ff3600e4b79f000300370000c0a0006d
:101180008003eb00e7b79f00b2407800b2af9f004a
:10119000c3c6b30083cf50001400320009003c00e6
:1011a00032c6b30082cf5000790032006341410063
:1011b00082cf50000f0032000104e000050432002d
:1011c0008c00370052c7b30082cf50008e0032002f
:1011d0006341410082cf5000090032006541510057
:1011e00082cf500083003a00080037000040a00082
:1011f000e5ff3700e1cf9f0000a0a000840037008a
:10120000e1cf9f000070a00081003700e1cf9f0078
:101210000fb29700c400780084b79f0001047800e3
:101220000100e00001003a00e8e821000801780030
:101230008000eb00010037008100e80081014100df
:101240001304e000fcff3a0081047800efb297003d
:101250000500e00003003200898f520001003100d8
:10126000850478000005eb00898f550001003600e9
:1012700009855500e80560002a003a001100370092
:101280003c0090000068a300070032000d017800c8
:10129000010220000c00780034ff07000000e0008d
:1012a00006003a00060037008c007800000220009b
:1012b000cf030700e10f4000010032008d06e80077
:1012c0000a05e9000a00e000edff3a000085eb00a6
:1012d000140037003c0090000068a30009003200b1
:1012e00008007800b000fb00000478000d017800d1
:1012f0000c0078001dff07000000e00008003a0025
:1013000008003700880078003100fb0001047800f5
:101310008c007800b6030700e10f400001003200a6
:101320008d06e800090078008004e9000000e00074
:10133000e8ff3a000b00e000a10332001100370083
:101340003c0090000068a300070032000d01780007
:10135000010220000c00780004ff07000000e000fc
:1013600006003a00060037008c00780000022000da
:101370009f030700e10f4000010032008d06e800e6
:101380000a05e9000a00e000edff3a008c0337008f
:101390000fb397004602780086b79f00cfa2de0009
:1013a000c82bdd004821de0002817300c829de0061
:1013b000e2cf9f000048a300080032000204e000d2
:1013c00006003200e14f410004003200f2cf9f00de
:1013d00084d79f002900200002003700f4cf9f002f
:1013e00019002000e1fc2f008f8040000104e8007c
:1013f00096ff3700e1cf9f00e8fc2f000f04440068
:101400001900200091ff3700e1cf9f00000cb300ce
:10141000d0b79f00007020005fb19700000061000e
:10142000f0016100a3af9f000000e0002e02320037
:1014300002c8a3000200320064002000e4b79f004d
:10144000afaa97000500e0000c0032000fb2970031
:10145000680252001400780094009000240190006b
:10146000b401900084b79f0090b79f00a1b79f0080
:10147000b2b79f00c3b79f000c0037008fb2970030
:10148000e4825200150078009500900085b79f0017
:10149000150507000002be000203be0094b79f00be
:1014a000a5b79f00b6b79f00c7b79f006022b800de
:1014b0006033b8001fb09700afb097003fb19700fe
:1014c000cfb197005a0407000000e0000c003d0077
:1014d0001fb09700afb097003fb19700cfb1970012
:1014e00003f0a20090b79f00a1b79f00b2b79f0082
:1014f000c3b79f00dfb097003100b300d1b79f00a2
:101500000000eb0090af9f006022b8006033b8008d
:101510001fb09700afb097003fb19700cfb19700d1
:10152000a70407000000e0003400320024fd2f0073
:101530000f0242001fb09700afb097003fb1970075
:10154000cfb197003a0507001fa897000000e900f7
:10155000e300b900a2002000110009000200d80039
:1015600090af9f000000e00002003d000000e90095
:1015700090af9f001fac97000840ea000dfe0700e7
:101580001fb29700afb297003fb39700cfb3970059
:10159000450507000002be000203be00c4af9f0065
:1015a000d5af9f00e6af9f00f7af9f006022b80065
:1015b0000600200007ff23001d0407000000e000d4
:1015c00002003d000804e9000b0037006022b8006b
:1015d00006002000470224004fa89700dfa89700cc
:1015e0006fa99700ffa99700160407000000e0000c
:1015f000020035000804e80098af9f00efb29700a2
:10160000ec8f52000f003c000540780080fd070081
:101610000002be000203be001fb09700afb09700eb
:101620003fb19700cfb19700830307000002be00cf
:101630000203be0094b79f00a5b79f00b6b79f00f6
:10164000c7b79f001fac9700e90f540015003c007e
:101650006022b8006033b8001fb09700afb09700a9
:101660003fb19700cfb19700550407000000e0009c
:10167000310032001fb09700afb097003fb1970024
:10168000cfb19700b7040700e00f5000e08f58007b
:10169000e00f5900e08f590027003a00e10f540095
:1016a000250034000400200005002e00b6e02200d2
:1016b000170124004fa89700dfa897006fa9970093
:1016c000ffa99700da0307000000e00002003d00d8
:1016d00069045400010037006804540098af9f006b
:1016e0002fd09700b3fd07000002be000203be002a
:1016f000c4af9f00d5af9f00e6af9f00f7af9f003c
:101700001fb09700afb097003fb19700cfb19700df
:10171000d1030700930407000004be006000b80076
:101720006011b80090b79f00a1b79f00b2b79f00ab
:10173000c3b79f00160037001fb09700afb09700e7
:101740003fb19700cfb19700860407000004be00a8
:10175000b50407000002be000203be001fb09700e0
:10176000afb097003fb19700cfb197004405070095
:101770000002be000203be0094b79f00a5b79f0001
:10178000b6b79f00c7b79f000000eb0090af9f0067
:1017900061ea210010c0b30005003700e48040007a
:1017a000b10f5400a18f5c00030039000040e80035
:1017b000ea4f5000f9ff3a00e0cf9f009fa8970042
:1017c00081805500efb29700858050000000fb003b
:1017d000008550000500e000010032000a05e90024
:1017e0005fb3970063006300010032000a05e9005f
:1017f000dfb397000728a30039003200618163003e
:101800000718a3000f0032003c0090000068a300fe
:1018100006003200b10220000200e00001003200a8
:101820008180e8000d0178000d003700b002200033
:101830000200e000010032000080e8008c00780027
:101840000e0037000200e000220032003c00900051
:101850000068a300070032000d017800010220009b
:101860000c007800c1fd07000000e00006003a000f
:10187000180037008c007800000220005c0207008e
:10188000e10f4000130032008d06e8001100370020
:101890003c0090000068a300070032000d017800b2
:1018a000010320000c007800b0fd07000000e000fc
:1018b00006003a00060037008c0078000003200084
:1018c0004b020700e10f4000010032008d06e800e6
:1018d0000a05e9000a00e000edff3c005b0037006c
:1018e0005fb097000038a30014003a0011003700e1
:1018f0003c0090000068a300070032000d01780052
:10190000010220000c00780098fd07000000e000b4
:1019100006003a00060037008c0078000002200024
:1019200033020700e10f4000010032008d06e8009d
:101930000a05e9000a00e000edff3c00dfb0970077
:10194000618160000118a3000e0032003c0090008d
:101950000068a30005003200b10220000200e00090
:10196000230032008180e80021003700b00220000f
:101970000200e000010032000080e8008c007800e6
:101980002e0037000200e000300032003c009000e2
:101990000068a300030032000d017800010220005e
:1019a000140037008c00780000022000230037006c
:1019b0003c01900061ea21000000fb000268a300e6
:1019c000110032004200dd0000804000100178006c
:1019d000900190000800be00ab040700a2002000a8
:1019e00003002000b80407000103200080804000ad
:1019f0000d0178000c0078005cfd07000000e0009d
:101a000011003a00110037004200dd000080400064
:101a100010017800900190000800be009a040700b1
:101a2000a200200003002000a704070002032000fa
:101a3000000141008c00780002007800ec010700f2
:101a4000e10f4000010032008d06e800efc897006a
:101a50000140e900e0cf9f000104e000d4ff3a001c
:101a6000130037003c0090000068a300070032001c
:101a70000d017800010320000c0078003bfd0700f9
:101a80000000e00006003a00060037008c007800f5
:101a900000032000d6010700e10f400001003200e2
:101aa0008d06e8001fa897000000e90090af9f0096
:101ab0001fa897000000e000eaff3c006fb197000c
:101ac000e80f51000300340080c0b300e0cf9f0056
:101ad00002003700cfe99700e3cf9f006fc897005f
:101ae0008005fb006fb297008b0552000004e000f8
:101af000100032003c0090000068a3000700320094
:101b00000d017800e10220000c00780017fd0700ad
:101b10000000e00006003a00060037008c00780064
:101b2000e0022000b2010700e10f40000100320096
:101b30008d06e8006fc897009efc07000002be00fb
:101b40000203be001fb09700afb097003fb19700ef
:101b5000cfb19700d403070082030700300037009d
:101b60003c01900061ea21000000fb000268a30034
:101b7000110032004200dd00808040001101780039
:101b8000910190000800be003f040700a200200061
:101b9000030020004c040700010320008080400067
:101ba0000d0178000c007800f0fc07000000e00058
:101bb00011003a00110037004200dd008080400033
:101bc00011017800910190000800be002e0407006a
:101bd000a2002000030020003b04070002032000b5
:101be000000141008c0078000200780080010700ad
:101bf000e10f4000010032008d06e800efca9700b7
:101c00000500fb004200dd0061ea21000080400089
:101c100010017800900190000800be002a0407001f
:101c20000004be00efc897000140e900e0cf9f002c
:101c30000104e000caff3a00110037003c009000a8
:101c40000068a300070032000d01780001032000a6
:101c50000c007800c5fc07000000e00006003a0018
:101c6000060037008c0078000003200060010700a8
:101c7000e10f4000010032008d06e8008b05e9000d
:101c80000b00e000edff3a005fb397000638a300b9
:101c90004b0132000a00e000490134003c00900092
:101ca0000068a300070032000d0178000102200047
:101cb0000c007800adfc07000000e00006003a00d0
:101cc000060037008c007800000220004801070061
:101cd000e10f4000010032008d06e8000a05e9002e
:101ce000eeff3a0036013700afab97000700e00087
:101cf000060032000fb09700640050001004780016
:101d00009004900080b79f00040037008fb09700c8
:101d10004104780081b79f008004eb006fb1970009
:101d20000200e00006003a000880740000f0a700fe
:101d30000000ea000000e9004f00de00e0b79f006d
:101d4000dfb19700030cb20093b79f00000820009a
:101d5000808f51000d003200000c2000808f510058
:101d600018003a0061ea210010c0b300e48040008e
:101d7000b10f5400a18f5c00110039000040e80051
:101d8000ea4f5000f9ff3a000d00370010c0b300d1
:101d90000201200003002000820f5400838f5c00aa
:101da00007003900441add00cc11de008301720007
:101db0004411dd000040e800e84f5000f6ff3a0013
:101dc000e0cf9f00efca97000500fb006fb39700bc
:101dd000860f500002003d00e6cf9f000400370050
:101de000efb39700808f530001003d00e0b79f00e4
:101df0000b00e00004003200dfb097006380600059
:101e0000010032008b05e9005fb1970002e8a300f2
:101e100006003200efb19700838f550002003400b6
:101e200083855500010037008005eb006fca9700dd
:101e30000400fb000007eb00808f55000100340018
:101e400000875500dfb297000528a3003800320054
:101e5000618162000518a3000f0032003c00900071
:101e60000068a30006003200b10220000200e0007a
:101e7000010032008180e8000d0178000d0037007c
:101e8000b00220000200e000010032000080e80003
:101e90008c0078000e0037000200e00010003200d5
:101ea0003c0090000068a300070032000d0178009c
:101eb000010220000c0078002cfc07000000e0006c
:101ec00006003a00060037008c007800000220006f
:101ed000c7000700e10f4000010032008d06e80056
:101ee0000e00e0004e0032003c0090000068a300ad
:101ef000070032000d017800010320000c0078007b
:101f00001afc07000000e00006003a000600370057
:101f10008c00780000032000b5000700e10f4000ae
:101f2000010032008d06e8000e07e900ecff3700e3
:101f30000e00e000150032005fb397000638a300e2
:101f400012003a003c0090000068a3000700320035
:101f50000d017800010220000c00780003fc07004e
:101f60000000e00006003a00060037008c00780010
:101f7000000220009e000700e10f40000100320037
:101f80008d06e8000e07e900eeff3a00dfb3970088
:101f9000618163000718a3000f0032003c0090002d
:101fa0000068a30006003200b10220000200e00039
:101fb000010032008180e8000d0178000d0037003b
:101fc000b00220000200e000010032000080e800c2
:101fd0008c0078000e0037000200e0001000320094
:101fe0003c0090000068a300070032000d0178005b
:101ff000010220000c007800dcfb07000000e0007c
:1020000006003a00060037008c007800000220002d
:1020100077000700e10f4000010032008d06e80064
:102020006fb097000002e9004222dd0060ea210063
:1020300000024200efb59700040578004700370022
:102040008b05e900000820009fb09700808f5000aa
:1020500022003200000c2000808f50002d003a003a
:102060002fa997000200e000110032001a02780048
:102070009a0290000401be000800be00f4b79f0061
:1020800085bf9f0000030700e0cf9f000000fb001a
:10209000cf80de007fb297008fba97000401be00a8
:1020a0000c0307000004540081845c000700370023
:1020b0001a017800110009000284d800a200200053
:1020c000110009000280d800e1cf9f00efc99700fe
:1020d0000343b000e3cf9f000e00370060ea210009
:1020e000000055000802be00000378000603e90066
:1020f000030033008502d1000482d300fbff3700c8
:102100006f00620051e9210000804000104078001b
:10211000e0cf9f00bc009000efcb97000700fb00d2
:102120000168a300070032000d01780080007800ec
:102130000c0078008dfb07000000e00005003a006d
:10214000050037008c00780029000700e10f4000ef
:10215000010032008d06e800640555000b00e00028
:10216000b7ff3a005fb097000038a30014003200b8
:102170000e00e000120034003c0090000068a30054
:10218000070032000d017800010220000c007800e9
:1021900076fb07000000e00006003a00060037006a
:1021a0008c0078000002200011000700e10f4000c1
:1021b000010032008d06e8000e07e900eeff3a004c
:1021c000bfa8970011407800e0cf9f000004e00016
:1021d0007ffb3a000d0078004f0778004f06be00e5
:1021e0004f05be004f04be006f02b10000000600a4
:1021f000889fbe0001047800b80090008084eb0046
:102200000118a3003a003200180190000198a300c1
:1022100002003a000200e00035003a000190a00000
:102220003104980080047800f90fb2000200e00049
:1022300002003a0028009000000c7800ea8f540059
:1022400005003a000178a30003003a0088007800f6
:10225000d0002000e6ff070018009000d800900092
:10226000810f50000b0032000000e80010049800bd
:102270001800780009487800000ce80011c0b3008d
:1022800040ef210001487800ea8f540018003a001e
:102290000500370088007800094078002400070016
:1022a0008004780012003700380090000088a300f6
:1022b0000f00320018019000a80090004800900024
:1022c00023f9070098009000810f500004003200ad
:1022d000380090000003b300300498008084eb00c5
:1022e0000000eb001004980028009000000c78001b
:1022f000090078004f04be0000000600800178004d
:1023000002003700b15978000201e9000200e00044
:10231000fcff3a0000000600800078003104e00075
:10232000feff3a000080ea00008040000000060046
:102330000200fa00889fbe00a0ff9f000104780001
:10234000380090000068a30033003a00e20060000b
:1023500005003a000003b30030049800110498000f
:102360000080eb002e003700d80490000900e00048
:1023700006003a0012002000e68057004800900056
:10238000f3f807001904980023003700a800900014
:102390000100e00008003a0071ef210021049800dc
:1023a000010c7800210020005104980011049800cd
:1023b0000030a0003004980018019000a8009000a0
:1023c00048009000e2f80700280090008080eb00b1
:1023d00011049800aff8970001487800000ce8005d
:1023e0002ff89700ea4f50000b003a003800900099
:1023f0000088a3000800320018019000a800900097
:1024000048009000d2f807000000eb00100498008c
:10241000a8009000010c7800aff897000100fb00c5
:102420004f04be000080fa000000060000c0da0081
:1024300000000600000000002800fa00889fbe008f
:102440008a9fbe008c9fbe000706780087866900c1
:102450000c003b00030478008704780008f0a1001a
:1024600009f0a100840f5000858f5800860f590095
:10247000890f5c00030033000cf0a20001003a0059
:102480000cf0a100ff0007006400e1005f003200d3
:10249000780147006408e100610032006c014700e8
:1024a000748557003200be001201be003a04be001f
:1024b0001a05be001e039000be0a9000850353005b
:1024c00006003d000004fd008104fd000205fd0042
:1024d0008305fd008703ea00050378000df8a300db
:1024e0000400320060041400e0841c0060051d003c
:1024f000e0851d006022b8007d0320000d38e1005a
:102500008006eb000b0039004433dd00f300b2001d
:102510008301730039003700848272000d02780055
:10252000e10664008b85d1000a85d3008984d3003d
:102530000884d3008703e900f7ff3b000800400050
:10254000898048000a0149008b81490004003b0052
:1025500060001000e080180060011900e08119009f
:102560000358a300090032008d8272008482720039
:10257000610260008301d1000281d3008180d30019
:102580000080d3000603e8001b0037000348a300c7
:1025900017003a000600e000170034000603e900c7
:1025a0000d00a3000000480081804800020149009e
:1025b000838149000348a3000f003a000600e000b1
:1025c000090034000603e900000040008180480053
:1025d000020149008381490001003a000003eb0039
:1025e0000348a300f5ff32006022b8000200370064
:1025f00084827200618266007600070003f0a10009
:102600000cf0a70003f0a000b200370064014700ff
:102610006408e10002003a000df8a300aa003a00a5
:1026200032007800b20078001201be00a900370025
:102630008f1fd100ad0107008f87e9000000e00087
:1026400000000600809feb00a80107008f87e900cb
:102650000000e000000006002800fa00889fbe008d
:102660008a9fbe008c9fbe0003866b00850007001a
:102670006400e100440032006408e1004a003200d6
:102680006100e100460032006108e10049003200cb
:10269000ec0647006000b8003d02be003d03be00ee
:1026a000f48657006011b8003d04be003d05be0031
:1026b0007d0320000b0037000000a0008d06e9001c
:1026c000130032000402420085824a0006034b00d8
:1026d00087834b00000040008180480002014900d0
:1026e000838149000802520089825a000a035b0074
:1026f0008b835b00f0ff3b000802420089824a00a6
:102700000a034b008b834b008d06e900edff3a0076
:102710008482720086827200f707b200878272009c
:1027200001003200150020001e0490003e0b9000b6
:1027300006035400e63fb0000368a3000700320020
:102740000000a7000500a0008301d1000281d30092
:102750008180d3000080d3000603e8008301d1000c
:102760000281d3008180d3000080d3000002eb00ff
:102770000482d2001700070003f0a1000cf0a700ac
:1027800003f0a00053003700640247006408e10032
:102790004d0032003400be003401be00f6ff3700a9
:1027a0006108e100480032006011b8006000b80024
:1027b000f1ff370003ff270002002000fbff370076
:1027c000801feb00490107008f87e9000000e0004f
:1027d00000000600180020005700200008045300e5
:1027e0000d003d000600200097fc2f000740e1008f
:1027f0001e00340084827200610260008301d100f7
:102800000281d3008180d3000080d3000804e80057
:10281000f8ff3a00470020006104600005047400de
:10282000040464000d00320061004000e0804800b4
:1028300060014900e081490003b8a50007003200ab
:102840000603e8006538e10004003a008301d10086
:102850000281d3008180d3000080d300f87f200064
:102860000830e10003003500080378006000b8007c
:102870006011b8004433dd00f300b200830173003f
:1028800000000600680447000294be000094be00e9
:10289000fc0447008694be008494be0009007800c2
:1028a0005c010700080078005a01070099007800d1
:1028b000814f70000b003b000800be003401070090
:1028c0004f00b10003003700f3ff2700f2ff2f0095
:1028d0006110b9004f06be004f05be004f04be0098
:1028e0000080fa0000000600810378009df80700d0
:1028f0000001be006000b8000478a30013003a0095
:102900006220e10015003e000d0039008301d10076
:102910000281d3008180d3008301d1000281d300e2
:102920008180d3008301d1000281d3008180d30054
:102930000538b000c42add00f300b20083817200c4
:1029400007f0a70003f0a00000000600f3ff270037
:10295000f2ff2f006110b900fbff370003ff2700d3
:10296000f7ff37001400fa00889fbe008a9fbe0060
:102970008c9fbe000004be000205be006800470038
:102980000a90be000890be00220107000070a70058
:102990000bf0a1000bf8a30020003a009e09900064
:1029a0000e099000fe0090006e0090009e029000c4
:1029b0003443200084825200c6ff32000a003c00eb
:1029c000b4fc2f000428e100140034008301d1007e
:1029d0000281d3008180d3000080d3008502e8000b
:1029e000faff3a00bbff3700b40020000428e100e2
:1029f00007003c00000040008180480002014900bf
:102a0000838149008502e900faff3a00b1ff3700ef
:102a10000300280002002000010037006011b80008
:102a20006000b800abff37006011b800200137002c
:102a30001400fa00889fbe008a9fbe008c9fbe00d3
:102a4000040678000004be000205be0068004700ce
:102a50000a90be000890be00ee0007006200e10090
:102a60000800be000a01be00040020000b003a006e
:102a70001e029000e43fb1006e009000fe00900046
:102a80000e0990009e099000f300b20005fe23009d
:102a9000858171000bf0a70003f0a000040e780000
:102aa0008cff3700000000002800fa00889fbe005d
:102ab0008a9fbe008c9fbe0003866b0071ff0700db
:102ac0000028a30064003a000128a30068003a002f
:102ad0000008a30062003a000108a30066003a0063
:102ae0001e009000be08900081064000ed3fb1003e
:102af000f4805700ee019000111ab8008e09900082
:102b0000311bb8009e099000311cb800511db8005f
:102b1000f485570046000700fe0190003a000700c8
:102b20008b85e8003e0007008e09900040000700fa
:102b3000ee019000340007008b85e80038000700a4
:102b40008e099000400007009e0990001b18b800f5
:102b5000890440000a854800fe0190003400070007
:102b60008b85e80038000700ee0190003000070078
:102b70008e0990001b18b800890440000a8548009f
:102b80000a98a30008003a000402420085824a0025
:102b900006034b0087834b0008044c0089844c00db
:102ba0000a054d008d06e9008482720085027300db
:102bb0004c3add0085027200010032001500200051
:102bc000443ade001400b2004538de00cb45dd009b
:102bd0000b007000c540de00cb4ddd008b80700027
:102be0004549de00cb55dd000b017100c551de000b
:102bf0000d037800f7fe070003f0a1000cf0a7001a
:102c000003f0a00033ff37001b18b8008502400016
:102c100006834800e0834b0060044c000700370047
:102c20001b18b8000603400087834800faff3700ee
:102c30001b18b8008703400008844800e0844c005b
:102c400060054d00000006001b18b8000804400095
:102c500089844800faff37000108a3001aff3a00f0
:102c60005800be00000000005801be00e2ff37001f
:102c70000008a30014ff3a0009047800f8ff3700a9
:102c800007f0a200ecfd37006022b8000602200029
:102c90000000d0008180d2000482d2008582d20060
:102ca0000000a0000202520083825a00030031009b
:102cb0000202420083824a000000a1000603e900ec
:102cc000f3ff3a0000000600efff07000400be001b
:102cd00000000600020ab900001bb9000200b8009b
:102ce000810042008100430000000600889fbe0072
:102cf0008a9fbe008c9fbe000404be000605be0075
:102d0000809fbe00829fbe0030000700040678004e
:102d10000800be000a01be002c00070084067800ef
:102d20004f03be004f02be008d4f76007fb097006c
:102d300013003300f0ff2f008b8f6b0006003b0069
:102d40000d0666000c00a7000a00370007f0a60079
:102d5000100020000a003700880f5200898f5a00a7
:102d60008a0f5b008b8f5b0003003900100020008e
:102d700001003e000000200007f0a7000000ea006c
:102d80004f06be004f05be004f04be000000060007
:102d9000e48240001078a300070032006402400083
:102da0001178a3003400be001401be0005003200fb
:102db0000330a7000000060035007800b500780059
:102dc0001501be000330a0000000060005ff27002b
:102dd00005826100070032000428e1000100320092
:102de000240005000600070001003a004400050029
:102df0000408050002000700f9ff3a00140005006e
:102e00006f8261008102700085027100850272008c
:102e1000000006005002be00e40050005003be0057
:102e20004439de00f700b200f37f200003016100a7
:102e3000090032000218e10016003a008501720014
:102e400083017300838173000008200015003a009d
:102e500040002000130037008501720083017300d9
:102e60008381730005003a0004a8be0006a8be00d6
:102e7000100020000b0037000201e90004024200ac
:102e800085824a0006034b0087834b000748a30056
:102e9000f9ff32000740a00004a8be0006a8be004b
:102ea000200020008000980092009800000006009a
:102eb000889fbe00008270000402710004827100cd
:102ec0002400320036432000c50020008383cf0059
:102ed0000a0039000541b1008283cf0007003900a4
:102ee0000541b1008183cf00040039000541b100e4
:102ef0008083cf00010039000541b10085c3530034
:102f00006022b800120032000a003b008482720086
:102f1000610260008301d1000281d3008180d3006f
:102f20000080d3000603e8008743e800f7ff3a007b
:102f3000070037000000400081804800020149007e
:102f4000838149000603e9008743e900f9ff3a005d
:0c2f500020fe07004f04be000000060039
:020000040000fa
:102f5c00546500006d700000657200006174000023
:102f6c00757200003a200000252e0000316600002a
:102f7c002047000072610000640000000a0000009d
:102f8c004c69000063680000743a000020250000c2
:102f9c002e310000662000006c75000078000000e7
:102fac0046650000686c000065720000206200003d
:102fbc00656900006d20000041750000736c000015
:102fcc0065730000656e0000210000004861000080
:102fdc006c6c00006f200000576f0000726c0000da
:042fec00640000007d
:020000040000fa
:102ff0000c00fa00000f78001107980022079800d3
:10300000330798004407980055079800c3e8a900c3
:1030100070c22100104078000080fb008000e800b2
:1030200060c22100104078000080fb00808f5000bb
:103030000800320060c22100104078000004e00067
:1030400007003a0070c2210010407800e14f4000b4
:1030500003003a00c3e8a8000000eb001b003700a3
:1030600070c22100104078000080fb00ec00b90025
:103070008000780060022100808040000e0078000f
:10308000b0187800a0107800e48040006400400090
:10309000b0187800a0107800e48040006400400080
:1030a000b0187800a0107800e48040006400400070
:1030b00070c22100104078008040e80070c22100fa
:1030c00001487800c3e8a800100020000080fa0042
:1030d000000006000200fa00000f7800c3e8a90013
:1030e00060c221009040780070c22100104078003a
:1030f00080cf500003003a00c3e8a8000000eb00b6
:103100001a00370060c22100104078000080fb00e8
:103110009e007800ec01b90060022100000041002f
:10312000b0187800a0107800e480400064004000ef
:10313000b0187800a0107800e480400064004000df
:10314000b0187800a0107800e480400064004000cf
:1031500060c22100104078008040e80060c2210079
:1031600001487800c3e8a800100020000080fa00a1
:10317000000006001800fa00404f98007107980000
:10318000020f9800130f9800240f9800350f980035
:10319000ce489000014f7800fe0090001107980083
:1031a0008e089000210798009e0890003107980033
:1031b000ae08900041079800be08900051079800a3
:1031c0001e0078009e0090002e019000be0190002d
:1031d0004e029000de02900085ff07000000e00034
:1031e0000200320010002000010037000000eb0058
:1031f0000080fa00000006000000fa00c080800095
:1032000000000100c08088000080fa000000060075
:103210000200fa001742a900500f2000a0108800f9
:10322000006ea800004ea800026ea900024ea90080
:103230000000eb00000f780007003700004ea900e7
:1032400010002000f0030700004ea800100020002e
:10325000ed0307001e0fe8001e007800e90f500084
:10326000f6ff3400004ea90010002000e60307001e
:10327000006ea90010002000e3030700004ea80024
:1032800010002000e0030700006ea80010002000de
:10329000dd0307000648a9002648a90017e2a80098
:1032a0000080fa00000006000000fa00a0012100e2
:1032b00088ff07000000e000030032001602a800ab
:1032c000a096210001003700409521000080fa00ff
:1032d000000006000000fa00b010800061006000ed
:1032e0000000e00015003a00e08080000000e000ef
:1032f00007003200a0012100104078000080fb0090
:103300000000400090108800409a21000c00370017
:10331000008180000000e00008003200a0012100d0
:10332000104078000080fb00000040000000a0007a
:1033300090108800e0a1210001003700a096210034
:103340000080fa00000006000000fa00c1108000b2
:1033500000002400008060000000e00024003a002b
:10336000c110800000002800008060000000e00024
:10337000060032001642a8002081800021002000b3
:1033800001087800a0ab21001a003700c1108000ae
:1033900000002800008060000000e00014003a00f7
:1033a000a080800080007800e0808000808f500046
:1033b0000b003100f1808000a08080000080400080
:1033c000104078000080fb0090108800a0808000f2
:1033d0000000e800a0808800409a21000500370026
:1033e0001430ef001622a800e09f210001003700f2
:1033f000409a21000080fa00000006000000fa0058
:10340000b0108000620060000000e00008003a0098
:10341000a0012100104078000080fb000000400067
:103420000000a00090108800e0a1210001003700fa
:10343000e09f21000080fa00000006000000fa0072
:10344000c110800000002400008060000000e00047
:1034500028003a00c11080000000280000806000b1
:103460000000e000060032001642a8002081800023
:103470002100200001087800a0ab21001e003700c9
:10348000c110800000002800008060000000e00003
:1034900018003a00b0108000700060000000e000ea
:1034a00012003a0090808000800078000081800047
:1034b000808f500006003100908080000000e800fe
:1034c000908088001662a80000a821000a0037003a
:1034d0001230ef001642a800208180001100200069
:1034e00001087800a0ab210003003700e0a1210013
:1034f00001003700e0a121000080fa000000060072
:103500000000fa00b0108000680060000000e000d9
:1035100015003a001181800080808000008040000a
:103520008110800081407800014878008080800010
:103530000000e800808088008080800080007800a3
:1035400000818000808f5000030039001030ef00b0
:1035500016a2a8000100370016a2a9001682a80032
:10356000e0a121000100370000a821000080fa003e
:10357000000006000000fa00b01080006400600047
:103580000000e00002003a004095210001003700f1
:0c359000a0ab21000080fa000000060043
:020000040000fa
:10359c00161000000200000080000000881d0000d2
:1035ac000601000080000000001000000a0000006e
:1035bc00800000000a1000000600000082000000dd
:1035cc0002000200001000001a1000000e0c000097
:1035dc0080000000101000000600000080000000b9
:1035ec0018100000020000008200000054190000b6
:1035fc008e1e00004000000082000000286e750046
:10360c006c6c290000303100323334003536370011
:10361c0038396100626364006566000001000000d7
:10362c00000a00000000640000000000e803000035
:10363c00001027000000a0008601000040420f008f
:10364c000080960098000000e1f5050000ca9a0081
:10365c003b000000ce1e000026000000820000008f
:10366c00f51e000000f51e0009000000000200001d
:10367c00f71e000000f71e000e0201000000000003
:10368c000000000000000000060202000000000024
:10369c00ce1e0000f41e000006000000800000009a
:1036ac00281c0000600100008200000000000000e7
:1036bc0000000000f03f00000000000000002400ab
:1036cc004000000000000000005940000000000015
:1036dc00000040008f400000000000000088c30084
:1036ec0040000000000000006af8400000000000ec
:1036fc00008084002e41000000000000d012630006
:10370c004100000000008400d79741000000000039
:10371c000065cd00cd410000000020005fa002003c
:10372c0042408c00b5781d00af154400ea8ca00017
:10373c0039593e002946a5005cc3f10029633d00c0
:10374c00489a64007ec50e001b514a0044f3c20027
:10375c00e4e4e900634c3d00c7ddd600ba2e7700e7
:10376c004e5ffb00f051ef00fc8a5000c759290056
:10377c00090f6b009f527d00c3942500ad49b20028
:10378c00545a6200d7d71800e77469009c75000082
:10379c00883ce400377e0000000000000000f000d0
:1037ac003f9a99009999990099b93f007b14ae0002
:1037bc0047e17a00843ffc00a9f1d2004d62500031
:1037cc003f2d43001cebe200361a3f00f168e3008a
:1037dc0088b5f800e43e8d00edb5a000f7c6b0004a
:1037ec003e48af00bc9af200d77a3e003a8c3000cb
:1037fc00e28e7900453e9500d626e8000b2e11008e
:10380c003ebbbd00d7d9df007cdb3d0023429200dc
:10381c000ca19c00c73ba000c2ebfe004b48b400bf
:10382c00399c5700772726006ca137001fb8d400ad
:10383c004a7aee008d352600a6acaa0004b67900b3
:10384c00339d35008f1de9001566310023614d0055
:10385c0017acf800522f6f000e998400d94b400022
:10386c002d3005008ee42e00ff2b2b00acf74e0004
:10387c0015927e0068165900f3f8c2001f6ea50061
:10388c0001000000fa1e000002000000820000008f
:08389c00010000000000000023
:020000040000fa
:1038a4000000fa0011eea90030aea900308ea90084
:1038b4000172800000f02f00008060000072880018
:1038c4001feea9007172800000f02f0000806000dc
:1038d40070728800328ea90013eea90032aea900de
:1038e4008002200047020700328ea8002172800067
:1038f40000f02f00808060000003200001007000b1
:10390400207288001f00090000000000328ea90008
:10391400800c2200310020007f020700328ea800b4
:103924002172800000f02f008080600000032000de
:1039340001007000207288001f00090000000000d0
:10394400328ea90080382100010020007202070095
:10395400328ea8002172800000f02f008080600069
:103964000003200001007000207288001f0009007d
:1039740000000000328ea900c07620000100200063
:1039840065020700328ea8002172800000f02f002b
:103994008080600080032000010070002072880095
:1039a4001f00090000000000328ea900c07620002c
:1039b4000100200058020700328ea8002172800006
:1039c40000f02f00008060000030a000207288000a
:1039d4001f00090000000000328ea900c0762000fc
:1039e400010020004c020700328ea80021728000e2
:1039f40000f02f00008060000000a000207288000a
:103a04001f00090000000000328ea900008e220071
:103a14001100200040020700328ea80021728000ad
:103a240000f02f00008060006000b3002072880066
:103a34001f00090000000000328ea900c07620009b
:103a44000100200034020700328ea8002172800099
:103a540000f02f0000806000f000b30020728800a6
:103a64001f00090000000000328ea900c07620006b
:103a740001002000280207000080fa000000060070
:103a84000200fa00004f780013eea80032aea9003d
:103a9400328ea8002172800000f02f008080600028
:103aa4001e80fb0001007000207288001f000900c6
:103ab40000000000328ea900c07620000100200022
:103ac400150207000080fa00000006000400fa0056
:103ad400100798000040eb00004f78001e003700ec
:103ae4001e80fb009e009000008040009040780003
:103af40000c2b30080cf50000d0034001e80fb00d4
:103b04009e0090000080400090407800f0c7b30011
:103b140080cf5000060032001e80fb009e00900003
:103b24000080400010407800d5ff070009003700ee
:103b34001e80fb009e0090000080400090407800b2
:103b440000c2b30080cf50000a003a0000c1b300a5
:103b5400cbff07001e4fe8001e80fb009e00900074
:103b640000804000104078000004e000dcff3a00d0
:103b740001003700000000000080fa000000060089
:103b84003600fa0050808000e10f500011003a0026
:103b94004100070076014700809fbe00e07a2900bb
:103ba400801f78000200780002f40700e6875700bf
:103bb400760047000901070022002000417c29000b
:103bc4000e007800ccf907000e007800030107000e
:103bd4000a30ef0060808000e10f500011003a00cd
:103be400430007000e81e800809fbe00607c29002e
:103bf400801f780002007800eef30700e687570084
:103c04000e80e800f5000700720047002200200043
:103c1400417c2900b8f9070072004700ef00070053
:103c24000c30ef0060808000e20f5000030032008f
:103c340050808000e20f500015003a00418080005f
:103c4400703e2000808f50000e0034000830ef00da
:103c54007600470062012000617d2900a6f9070073
:103c640076004700dd0007007400470022002000b2
:103c7400417c2900a0f9070074004700d700070021
:103c840003003700408080000000e8004080880086
:103c94000080fa00000006000400fa00a0e82100f9
:103ca400104078000080fb00c800dd00b0e821006f
:103cb400104078000080fb0001007000cf80de001f
:103cc40027f30700008fbe00020020000338240001
:103cd4001e0078009e009000dff20700008fbe00f7
:103ce4001e0078009e0090000080fa00000006008c
:103cf4000400fa00c0e82100104078000080fb00b6
:103d0400c800dd00d0e82100104078000080fb00ee
:103d140001007000cf80de0011f30700008fbe00a9
:103d2400a299290093f923001e0078009e009000b8
:103d3400c9f20700008fbe001e0078009e009000ac
:103d44000080fa00000006000200fa00e08d200066
:103d54000100200000808800118088000000eb0032
:103d6400000f7800c200070024000700ec000700e1
:103d74000701070025fd0700c9fe0700c07e2900d2
:103d840052ff07001134800000fc2f000080600007
:103d94000000a000103488002136800000f82f00b5
:103da40080806000800520000100700020368800bb
:103db400030037000000000001003700000000008d
:103dc4001140800000802000008060000000e000be
:103dd400f8ff32000368a9001e0fe8001e007800f7
:103de4000000e000f5ff32000000eb00000f780057
:103df40000fd070062ff0700f1ff37000000fa0032
:103e04002002a9000111800090ff2f0000806000b3
:103e14000011880020a2a90001118000f0cf2f001a
:103e2400008060000011880020c2a9002082a9003f
:103e34002082a9002162a9002062a9004014200068
:103e44004011880023a2a90023e2a9002362a9004b
:103e540022a2a90023c2a90011118000f0f32f00af
:103e640000806000101188001011800000c0a000c4
:103e74001011880021e2a80020002000e1000700c2
:103e84002342a80020002000de0007002188a800ab
:103e94000080fa00000006000200fa00004f7800db
:103ea400c3e8a900540ea80090e82100104078004f
:103eb4000080fb008000e80080e8210010407800ca
:103ec4000080fb00808f50000800320080e8210051
:103ed400104078000004e00007003a0090e8210058
:103ee40010407800e14f400003003a00c3e8a80006
:103ef4000000eb000e00370090e82100104078002d
:103f04000080fb009e40780082d821000000410020
:103f14000148780090e82100104078008040e800d3
:103f240090e8210001487800c3e8a80010002000b0
:103f34000080fa00000006000200fa00000f78007a
:103f4400c3e8a90080e821009040780090e82100af
:103f54001040780080cf500003003a00c3e8a80066
:103f64000000eb001000370080e8210010407800ca
:103f74000080fb0081d821000080400010407800c0
:103f84008080fb001e0078000108780080e8210092
:103f9400104078008040e80080e821000148780063
:103fa400c3e8a800100020000080fa00000006000a
:103fb4000400fa0020479800540ea800c3e8a900a2
:103fc4002e409000b4ff0700000f7800c3e8a8005b
:103fd4001e0078000080fa00000006000800fa00c5
:103fe400300798003e009000caf8070020079800a8
:103ff400c3e8a9000000eb00000f780007003700b9
:104004003e0090001e00400010407800a2ff070010
:104014000000e000060032001e0fe8002e009000b1
:104024009e007800808f5000f5ff390001003700b2
:1040340000000000c3e8a8001e00ea001007980072
:104044009e0090002e0090000000ea00808f500037
:1040540003003a001e0090000000ea0010079800d8
:104064000188a8001e0090000080fa0000000600ed
:104074000000fa00213a8000f0f32f000080600075
:10408400203a8800b0072000303a8800213a8000a6
:1040940000fe2f00008060003000b300203a88004a
:1040a4004827ef003200200080072000a1092000eb
:1040b400337420008049780081497800824978006f
:1040c400103a8000000178000200a0006004200083
:1040d400710520002374200080497800814978000c
:1040e4008249780000000000113a80000000270097
:1040f4008080600000002300808f5000faff3a00a7
:1041040000000000113a80000002200000806000de
:104114000000e000fbff32000080fa00000006000f
:104124000000fa0032002000600420007105200025
:1041340023742000804978008149780082497800fe
:1041440005e1a9000421a8000441a9002108800078
:10415400f0fc2f0000806000200888000021ef00a0
:10416400f0ff27001008880001428000f0ff2800bb
:104174000080600000d0a000004288000068a90010
:104184002068a80005e1a8000080fa0000000600ed
:104194000000fa001fe1a9001e21a9001ec1a90008
:1041a400f1088000f0fc2f00008060000050a000a7
:1041b400f00888001421ef00c0302000d0088800e7
:1041c4001fe1a8000080fa00000006000000fa00c9
:1041d40011e1a9001021a90010c1a90081088000e3
:1041e400f0fc2f0000806000800888000621ef00aa
:1041f400c03020006008880011e1a8000080fa00a7
:10420400000006000600fa00200798006000b800cd
:10421400008fbe006000b800008fbe0004003700ad
:1042240012002000030020001e0f41005e97490089
:104234002e0090006101b800008080001180800091
:10424400809ab900828bb900860278000502420088
:104254000010b8000102420084007800be0f500034
:10426400ae8f5800eeff3e000080fa00000006000a
:104274000600fa00200798000000eb00000f780009
:104284000b0037000000eb00100798000400370013
:10429400000000001e0090000000e80010079800d5
:1042a4001e009000e30f5000f9ff36001e0fe800d7
:1042b4009e0078002e009000808f5000f1ff39009e
:1042c4000080fa00000006000000fa000080fa00f6
:1042d400000006000200fa00000f78001e007800bb
:1042e400e30f500009003e009e0078006880400003
:1042f400110020000008dd0080007800a07080001c
:1043040001007000a0708800010037000000000068
:084314000080fa000000060021
:020000040000fa
:10431c00f03fb1000180b10006003500ee0309004a
:10432c0000000000403fb1000180b100fbff3d00e8
:10433c001000b000203fb0000200350000800900e2
:08434c00000000000000060063
:020000040000fa
:0200000401f009
:04000800cfff000026
:020000040000fa
:0200000401f009
:04000c00ffffff00f3
:020000040000fa
:0200000401f009
:040010007dffff0071
:020000040000fa
:0200000401f009
:04001400ffffff00eb
:020000040000fa
:0200000401f009
:04001800dfffff0007
:020000040000fa
:0200000401f009
:04001c00dfffff0003
:020000040000fa
:0200000401f009
:04002000cfffff000f
:00000001FF
