:020000040000fa
:080000000002040000000000f2
:020000040000fa
:0400080012030000df
:020000040000fa
:04000c0018030000d5
:020000040000fa
:0400100034030000b5
:020000040000fa
:040014001e030000c7
:020000040000fa
:0400180024030000bd
:020000040000fa
:04001c002a030000b3
:020000040000fa
:0400200038030000a1
:020000040000fa
:0400240030030000a5
:020000040000fa
:0400280030030000a1
:020000040000fa
:04002c00300300009d
:020000040000fa
:040030003003000099
:020000040000fa
:04003400fa020000cc
:020000040000fa
:040038003003000091
:020000040000fa
:04003c00300300008d
:020000040000fa
:040040003003000089
:020000040000fa
:040044003003000085
:020000040000fa
:040048003003000081
:020000040000fa
:04004c00300300007d
:020000040000fa
:040050003003000079
:020000040000fa
:040054003003000075
:020000040000fa
:040058003003000071
:020000040000fa
:04005c00300300006d
:020000040000fa
:040060003003000069
:020000040000fa
:040064003003000065
:020000040000fa
:040068003003000061
:020000040000fa
:04006c00300300005d
:020000040000fa
:040070003003000059
:020000040000fa
:040074003003000055
:020000040000fa
:040078003003000051
:020000040000fa
:04007c00300300004d
:020000040000fa
:040080003003000049
:020000040000fa
:040084003003000045
:020000040000fa
:040088003003000041
:020000040000fa
:04008c00300300003d
:020000040000fa
:040090003003000039
:020000040000fa
:040094003003000035
:020000040000fa
:040098003003000031
:020000040000fa
:04009c00300300002d
:020000040000fa
:0400a0003003000029
:020000040000fa
:0400a4003003000025
:020000040000fa
:0400a8003003000021
:020000040000fa
:0400ac00300300001d
:020000040000fa
:0400b0003003000019
:020000040000fa
:0400b4003003000015
:020000040000fa
:0400b8003003000011
:020000040000fa
:0400bc00300300000d
:020000040000fa
:0400c0003003000009
:020000040000fa
:0400c4003003000005
:020000040000fa
:0400c8003003000001
:020000040000fa
:0400cc0030030000fd
:020000040000fa
:0400d00030030000f9
:020000040000fa
:0400d40030030000f5
:020000040000fa
:0400d80030030000f1
:020000040000fa
:0400dc0030030000ed
:020000040000fa
:0400e00030030000e9
:020000040000fa
:0400e40030030000e5
:020000040000fa
:0400e80030030000e1
:020000040000fa
:0400ec0030030000dd
:020000040000fa
:0400f00030030000d9
:020000040000fa
:0400f40030030000d5
:020000040000fa
:0400f80030030000d1
:020000040000fa
:0400fc0030030000cd
:020000040000fa
:0401000030030000c8
:020000040000fa
:0401040030030000c4
:020000040000fa
:0401080030030000c0
:020000040000fa
:04010c0030030000bc
:020000040000fa
:0401100030030000b8
:020000040000fa
:0401140030030000b4
:020000040000fa
:0401180030030000b0
:020000040000fa
:04011c0030030000ac
:020000040000fa
:0401200030030000a8
:020000040000fa
:0401240030030000a4
:020000040000fa
:0401280030030000a0
:020000040000fa
:04012c00300300009c
:020000040000fa
:040130003003000098
:020000040000fa
:040134003003000094
:020000040000fa
:040138003003000090
:020000040000fa
:04013c00300300008c
:020000040000fa
:040140003003000088
:020000040000fa
:040144003003000084
:020000040000fa
:040148003003000080
:020000040000fa
:04014c00300300007c
:020000040000fa
:040150003003000078
:020000040000fa
:040154003003000074
:020000040000fa
:040158003003000070
:020000040000fa
:04015c00300300006c
:020000040000fa
:040160003003000068
:020000040000fa
:040164003003000064
:020000040000fa
:040168003003000060
:020000040000fa
:04016c00300300005c
:020000040000fa
:040170003003000058
:020000040000fa
:040174003003000054
:020000040000fa
:040178003003000050
:020000040000fa
:04017c00300300004c
:020000040000fa
:040180003003000048
:020000040000fa
:040184003003000044
:020000040000fa
:040188003003000040
:020000040000fa
:04018c00300300003c
:020000040000fa
:040190003003000038
:020000040000fa
:040194003003000034
:020000040000fa
:040198003003000030
:020000040000fa
:04019c00300300002c
:020000040000fa
:0401a0003003000028
:020000040000fa
:0401a4003003000024
:020000040000fa
:0401a8003003000020
:020000040000fa
:0401ac00300300001c
:020000040000fa
:0401b0003003000018
:020000040000fa
:0401b4003003000014
:020000040000fa
:0401b8003003000010
:020000040000fa
:0401bc00300300000c
:020000040000fa
:0401c0003003000008
:020000040000fa
:0401c4003003000004
:020000040000fa
:0401c8003003000000
:020000040000fa
:0401cc0030030000fc
:020000040000fa
:0401d00030030000f8
:020000040000fa
:0401d40030030000f4
:020000040000fa
:0401d80030030000f0
:020000040000fa
:0401dc0030030000ec
:020000040000fa
:0401e00030030000e8
:020000040000fa
:0401e40030030000e4
:020000040000fa
:0401e80030030000e0
:020000040000fa
:0401ec0030030000dc
:020000040000fa
:0401f00030030000d8
:020000040000fa
:0401f40030030000d4
:020000040000fa
:0401f80030030000d0
:020000040000fa
:0401fc0030030000cc
:020000040000fa
:0402000030030000c7
:020000040000fa
:0402040030030000c3
:020000040000fa
:0402080030030000bf
:020000040000fa
:04020c0030030000bb
:020000040000fa
:0402100030030000b7
:020000040000fa
:0402140030030000b3
:020000040000fa
:0402180030030000af
:020000040000fa
:04021c0030030000ab
:020000040000fa
:0402200030030000a7
:020000040000fa
:0402240030030000a3
:020000040000fa
:04022800300300009f
:020000040000fa
:04022c00300300009b
:020000040000fa
:040230003003000097
:020000040000fa
:040234003003000093
:020000040000fa
:04023800300300008f
:020000040000fa
:04023c00300300008b
:020000040000fa
:040240003003000087
:020000040000fa
:040244003003000083
:020000040000fa
:04024800300300007f
:020000040000fa
:04024c00300300007b
:020000040000fa
:040250003003000077
:020000040000fa
:040254003003000073
:020000040000fa
:04025800300300006f
:020000040000fa
:04025c00300300006b
:020000040000fa
:040260003003000067
:020000040000fa
:040264003003000063
:020000040000fa
:10040000af0021000eff2d000e018800000000004b
:10041000000020000000e000020032000001200087
:100420002002880014000700930007000000e0008d
:1004300003003a00005620000100200002003700af
:100440000000200001002000810f70000100320038
:100450000f000700000020000000e0000200320052
:1004600000000200000000005a040200000000002a
:100470000040da000000fe00200020000000e00044
:1004800002003200100020009001880000000600e9
:10049000a1028800800478000000eb001f003700f4
:1004a000e284440054a0b4009905ba00e2844400f8
:1004b00054a0b4009906ba00e284440054a0b400e9
:1004c0000006eb00476fde00fd07b200ae018800ba
:1004d000636ce10003003a000ad801000000eb0061
:1004e0000e003700606ce10008003a00004deb00a0
:1004f0000a05e800020039003420ec000af0a000f0
:100500008b05e900f9ff3e00040037006168e10057
:10051000010032000086eb000b00070019c7ba008b
:100520000e04e0001905ba0003003a000a00e000da
:10053000dbff3a0000000600fe07b200ae028800b2
:100540008a047800f5ff37000cd0a300e20f4d00bd
:100550001c00390089027800354dba000a05e80010
:10056000020039003420ec000af0a0008b05e900fd
:100570000f003200254dba000a05e80002003900dc
:100580003420ec000af0a0008b05e90008003200de
:100590000c00e0000600320015cdba000a05e800a4
:1005a000020039003420ec000af0a0008b05e900bd
:1005b0008984e80054a0b4000b00e000e2ff3a0098
:1005c000000006009902ba00055d78008b05e9007d
:1005d000f7ff3200c82ade00055d78008b05e900d0
:1005e000f3ff32000c00e000f1ff320019ddba0029
:1005f000eeff3700809fbe000000fa000068a900ef
:10060000008080001180800061004000e080480090
:1006100000808800118088000080fa004f00be0032
:10062000004006000000fa00c028a900ffff3700c4
:100630000000fa00c068a900ffff37000000fa00c0
:10064000c048a900ffff37000000fa00c088a900d9
:10065000ffff37000000fa00c0a8a900ffff370025
:100660000000fa00ffff37000000fa00ffff37002c
:0c0670000000fa00ffff3700000005004a
:020000040000fa
:10067c000400fa00100798000000eb00000f78004f
:10068c0009003700000000000100370000000000e6
:10069c0000408000680060000000e000f9ff3200bc
:1006ac000068a9001e0fe8009e0078001e00900054
:1006bc00808f5000f5ff39000080fa000000060022
:1006cc000600fa00200798006000b800008fbe00fa
:1006dc006000b800008fbe0004003700120020003c
:1006ec00030020001e0f41005e9749002e00900071
:1006fc006101b8002080800031808000809ab900b0
:10070c00828bb90086027800050242000010b80006
:10071c000102420084007800be0f5000ae8f5800da
:10072c00eeff3e000080fa00000006000400fa0014
:10073c00008fbe001e0178009e0190000280880090
:10074c001380880032002000600420007105200016
:10075c002374200080497800814978008249780010
:10076c0005e1a9000421a8000441a900210880008a
:10077c00f0fc2f0000806000200888000021ef00b2
:10078c00f0ff27001008880001428000f0ff2800cd
:10079c000080600000d0a000004288000068a90022
:1007ac002068a80005e1a8000080fa0000000600ff
:1007bc000400fa00008fbe002068a9001e0178001a
:1007cc009e01900002808800138088002068a80099
:1007dc000080fa00000006000400fa002068a9005e
:1007ec000280800013808000028fbe002068a80069
:1007fc001e0078009e0090000080fa0000000600a9
:10080c000a00fa00408080000000e8004080880068
:10081c0041808000403d2000808f500004003a0051
:10082c00a170800000f0200000806800a07088009b
:10083c0041808000803e2000808f500018003a00dc
:10084c000830ef00a1708000f00f2f00008f6000c7
:10085c00e1ff070010079800210798001e01900087
:10086c00ae0190004618dd00ca10de008100700059
:10087c004610dd0010079800210798009e0090009c
:10088c0031079800be00900000f02000008060004e
:10089c00400798004e0090001e007000a070880069
:1008ac000080fa00000006000200fa00e08d200033
:1008bc000100200020808800318088002c00070077
:1008cc00800007006c0007006000b80097ff07006d
:1008dc00144ea800110ea900112ea900114ea9004a
:1008ec00116ea900500ea9001f0ea9001f2ea90001
:1008fc001f4ea9001f6ea90061cea80061eea800d2
:10090c00618ea80061aea800612ea8006bcea80075
:10091c006beea8006b8ea8006baea8006b2ea80027
:10092c000000eb00000f780003003700000000000f
:10093c00010037000000000001408000000820008a
:10094c00008060000000e000f8ff320000e8a90021
:10095c001e0fe8001e0078000000e000f5ff3200da
:10096c000000eb00000f7800a5ff0700f2ff370036
:10097c000000fa00213a8000f0f32f0000806000a4
:10098c00203a8800b0072000303a8800213a8000d5
:10099c0000fe2f00008060003000b300203a880079
:1009ac004827ef003200200080072000a10920001a
:1009bc00337420008049780081497800824978009e
:1009cc00103a8000000178000200a00060042000b2
:1009dc00710520002374200080497800814978003b
:1009ec008249780000000000113a800000002700c6
:1009fc008080600000002300808f5000faff3a00d6
:100a0c0000000000113a800000022000008060000d
:100a1c000000e000fbff32000080fa00000006003e
:100a2c000000fa004227a80005e1a9000421a80053
:100a3c000441a90021088000f0fc2f000080600018
:100a4c00200888000021ef00f0ff27001008880024
:100a5c0001428000f0ff28000080600000c0a00070
:100a6c00004288000068a9002068a80005e1a800e1
:100a7c000080fa00000006000000fa0011e1a90055
:100a8c001021a90010c1a90081088000f0fc2f00e2
:100a9c00008060000050a000800888000621ef0054
:100aac00c03020006008880011e1a8000080fa0026
:040abc000000060030
:020000040000fa
:100ac000001000000a00000080000000000000008c
:020000040000fa
:0c0ad0000000fa000080fa0000000600a0
:020000040000fa
:0200000401f009
:04000c00f8ffff00fa
:020000040000fa
:0200000401f009
:040010007dffff0071
:020000040000fa
:0200000401f009
:040014007fffff006b
:00000001FF
