:020000040000fa
:080000000002040000000000f2
:020000040000fa
:04000800fa020000f8
:020000040000fa
:04000c0000030000ed
:020000040000fa
:040010001c030000cd
:020000040000fa
:0400140006030000df
:020000040000fa
:040018000c030000d5
:020000040000fa
:04001c0012030000cb
:020000040000fa
:0400200020030000b9
:020000040000fa
:0400240018030000bd
:020000040000fa
:0400280018030000b9
:020000040000fa
:04002c0018030000b5
:020000040000fa
:0400300018030000b1
:020000040000fa
:0400340018030000ad
:020000040000fa
:0400380018030000a9
:020000040000fa
:04003c0018030000a5
:020000040000fa
:0400400018030000a1
:020000040000fa
:04004400180300009d
:020000040000fa
:040048001803000099
:020000040000fa
:04004c001803000095
:020000040000fa
:040050001803000091
:020000040000fa
:04005400180300008d
:020000040000fa
:040058001803000089
:020000040000fa
:04005c001803000085
:020000040000fa
:040060001803000081
:020000040000fa
:04006400180300007d
:020000040000fa
:040068001803000079
:020000040000fa
:04006c001803000075
:020000040000fa
:040070001803000071
:020000040000fa
:04007400180300006d
:020000040000fa
:040078001803000069
:020000040000fa
:04007c001803000065
:020000040000fa
:040080001803000061
:020000040000fa
:04008400180300005d
:020000040000fa
:040088001803000059
:020000040000fa
:04008c001803000055
:020000040000fa
:040090001803000051
:020000040000fa
:04009400180300004d
:020000040000fa
:040098001803000049
:020000040000fa
:04009c001803000045
:020000040000fa
:0400a0001803000041
:020000040000fa
:0400a400180300003d
:020000040000fa
:0400a8001803000039
:020000040000fa
:0400ac001803000035
:020000040000fa
:0400b0001803000031
:020000040000fa
:0400b400180300002d
:020000040000fa
:0400b8001803000029
:020000040000fa
:0400bc001803000025
:020000040000fa
:0400c0001803000021
:020000040000fa
:0400c400180300001d
:020000040000fa
:0400c8001803000019
:020000040000fa
:0400cc001803000015
:020000040000fa
:0400d0001803000011
:020000040000fa
:0400d400180300000d
:020000040000fa
:0400d8001803000009
:020000040000fa
:0400dc001803000005
:020000040000fa
:0400e0001803000001
:020000040000fa
:0400e40018030000fd
:020000040000fa
:0400e80018030000f9
:020000040000fa
:0400ec0018030000f5
:020000040000fa
:0400f00018030000f1
:020000040000fa
:0400f40018030000ed
:020000040000fa
:0400f80018030000e9
:020000040000fa
:0400fc0018030000e5
:020000040000fa
:0401000018030000e0
:020000040000fa
:0401040018030000dc
:020000040000fa
:0401080018030000d8
:020000040000fa
:04010c0018030000d4
:020000040000fa
:0401100018030000d0
:020000040000fa
:0401140018030000cc
:020000040000fa
:0401180018030000c8
:020000040000fa
:04011c0018030000c4
:020000040000fa
:0401200018030000c0
:020000040000fa
:0401240018030000bc
:020000040000fa
:0401280018030000b8
:020000040000fa
:04012c0018030000b4
:020000040000fa
:0401300018030000b0
:020000040000fa
:0401340018030000ac
:020000040000fa
:0401380018030000a8
:020000040000fa
:04013c0018030000a4
:020000040000fa
:0401400018030000a0
:020000040000fa
:04014400180300009c
:020000040000fa
:040148001803000098
:020000040000fa
:04014c001803000094
:020000040000fa
:040150001803000090
:020000040000fa
:04015400180300008c
:020000040000fa
:040158001803000088
:020000040000fa
:04015c001803000084
:020000040000fa
:040160001803000080
:020000040000fa
:04016400180300007c
:020000040000fa
:040168001803000078
:020000040000fa
:04016c001803000074
:020000040000fa
:040170001803000070
:020000040000fa
:04017400180300006c
:020000040000fa
:040178001803000068
:020000040000fa
:04017c001803000064
:020000040000fa
:040180001803000060
:020000040000fa
:04018400180300005c
:020000040000fa
:040188001803000058
:020000040000fa
:04018c001803000054
:020000040000fa
:040190001803000050
:020000040000fa
:04019400180300004c
:020000040000fa
:040198001803000048
:020000040000fa
:04019c001803000044
:020000040000fa
:0401a0001803000040
:020000040000fa
:0401a400180300003c
:020000040000fa
:0401a8001803000038
:020000040000fa
:0401ac001803000034
:020000040000fa
:0401b0001803000030
:020000040000fa
:0401b400180300002c
:020000040000fa
:0401b8001803000028
:020000040000fa
:0401bc001803000024
:020000040000fa
:0401c0001803000020
:020000040000fa
:0401c400180300001c
:020000040000fa
:0401c8001803000018
:020000040000fa
:0401cc001803000014
:020000040000fa
:0401d0001803000010
:020000040000fa
:0401d400180300000c
:020000040000fa
:0401d8001803000008
:020000040000fa
:0401dc001803000004
:020000040000fa
:0401e0001803000000
:020000040000fa
:0401e40018030000fc
:020000040000fa
:0401e80018030000f8
:020000040000fa
:0401ec0018030000f4
:020000040000fa
:0401f00018030000f0
:020000040000fa
:0401f40018030000ec
:020000040000fa
:0401f80018030000e8
:020000040000fa
:0401fc0018030000e4
:020000040000fa
:0402000018030000df
:020000040000fa
:0402040018030000db
:020000040000fa
:0402080018030000d7
:020000040000fa
:04020c0018030000d3
:020000040000fa
:0402100018030000cf
:020000040000fa
:0402140018030000cb
:020000040000fa
:0402180018030000c7
:020000040000fa
:04021c0018030000c3
:020000040000fa
:0402200018030000bf
:020000040000fa
:0402240018030000bb
:020000040000fa
:0402280018030000b7
:020000040000fa
:04022c0018030000b3
:020000040000fa
:0402300018030000af
:020000040000fa
:0402340018030000ab
:020000040000fa
:0402380018030000a7
:020000040000fa
:04023c0018030000a3
:020000040000fa
:04024000180300009f
:020000040000fa
:04024400180300009b
:020000040000fa
:040248001803000097
:020000040000fa
:04024c001803000093
:020000040000fa
:04025000180300008f
:020000040000fa
:04025400180300008b
:020000040000fa
:040258001803000087
:020000040000fa
:04025c001803000083
:020000040000fa
:04026000180300007f
:020000040000fa
:04026400180300007b
:020000040000fa
:100400006f0221000eff2d000e0188000000000089
:10041000000020000000e000020032000001200087
:100420002002880014000700870007000000e00099
:1004300003003a00c0a6200001002000020037009f
:100440000000200001002000810f70000100320038
:100450000f000700000020000000e0000200320052
:100460000000020000000000a209020000000000dd
:100470000040da000000fe00200020000000e00044
:1004800002003200100020009001880000000600e9
:10049000a1028800800478000000eb001f003700f4
:1004a000e284440054a0b4009905ba00e2844400f8
:1004b00054a0b4009906ba00e284440054a0b400e9
:1004c0000006eb00476fde00fd07b200ae018800ba
:1004d000636ce10003003a000ad801000000eb0061
:1004e0000e003700606ce10008003a00004deb00a0
:1004f0000a05e800020039003420ec000af0a000f0
:100500008b05e900f9ff3e00040037006168e10057
:10051000010032000086eb000b00070019c7ba008b
:100520000e04e0001905ba0003003a000a00e000da
:10053000dbff3a0000000600fe07b200ae028800b2
:100540008a047800f5ff37000cd0a300e20f4d00bd
:100550001c00390089027800354dba000a05e80010
:10056000020039003420ec000af0a0008b05e900fd
:100570000f003200254dba000a05e80002003900dc
:100580003420ec000af0a0008b05e90008003200de
:100590000c00e0000600320015cdba000a05e800a4
:1005a000020039003420ec000af0a0008b05e900bd
:1005b0008984e80054a0b4000b00e000e2ff3a0098
:1005c000000006009902ba00055d78008b05e9007d
:1005d000f7ff3200c82ade00055d78008b05e900d0
:1005e000f3ff32000c00e000f1ff320019ddba0029
:1005f000eeff37000000fa00c028a900ffff370017
:100600000000fa00c068a900ffff37000000fa00f0
:10061000c048a900ffff37000000fa00c088a90009
:10062000ffff37000000fa00c0a8a900ffff370055
:100630000000fa00ffff37000000fa00ffff37005c
:100640000000fa00ffff37000000050003f0a200e1
:10065000889fbe008a9fbe008c1f7800f5000700af
:10066000fc0033006450e1004f0032006420e100e0
:100670005200320003826c0007003b000905d000e5
:100680000306d000820f54000c065d000200390002
:100690000200320089017800030678008582550047
:1006a00004003d000003fd008103fd008502ea0017
:1006b0008b854200840f720002003b006000100036
:1006c000e08018006011b8000005eb007a28e10016
:1006d0000a00390006007800c75ddd00f707b200a8
:1006e000878075002d003700828171000a01780033
:1006f000610560008180d1000080d3008502e9009f
:10070000f9ff3b00060440008784480002003b00dc
:1007100060041400e0841c000988a3000700320074
:100720008a81710082817100610164008904d100b5
:100730000884d3008b05e800170037000978a30070
:1007400013003a000b00e000130034008b05e900b1
:100750000804440089844c000a4474000978a3000a
:100760000d003a000b00e000070034008b05e900a3
:100770000804440089844c0001003a000b0020006a
:100780000978a300f7ff32000001eb0002003700f8
:10079000828171000a0178006b0007000cf0a7004d
:1007a00001f0a000b40037006420e10002003a002c
:1007b000838f6c00b40033000801be000200be004d
:1007c000ad003700889fbe008a9fbe008c1f780056
:1007d000980007009f00330003866c006450e1001e
:1007e0002e0032006420e100330032006150e1004d
:1007f0002f0032006120e100310032008585550074
:10080000eb07b000090020000804200005003700b5
:100810000804440089844c000a00310006034300a8
:1008200087834b000001530081815b00f8ff330098
:100830000203be000800a0000804440089844c00a4
:10084000f6ff3900c639dd00830173000100320074
:10085000130020008904d1000884d3000998a30064
:10086000050032000800a7000300a0008904d100a1
:100870000884d3008b05e8008904d1000884d300e4
:100880000001eb000281d2002f00070001f0a1005f
:100890000cf0a70001f0a000770037006420e10011
:1008a000790032000801be000200be00f7ff3700e9
:1008b0006120e100740032006000b800f3ff3700ef
:1008c0000000200001f82700f0ff3700140020008e
:1008d000a40037000001be00410007000470a7001b
:1008e00003f0a10003f8a30013003a006509b1006a
:1008f00010003200090035006928e10002003500cf
:100900000100280000000500000040008180480030
:100910008502e900fcff3a0000000600f88f420063
:10092000050035008100d1000080d3008502e80079
:10093000fcff3a00000006008000eb00000005000c
:100940006011b800a20037008100200061805500ce
:100950000b003d000b00200061fe2f000100e100b4
:100960001d00340082817100610164008904d1009e
:100970000884d3000000e800faff3a00710020006c
:100980006100640003007000020060000900320092
:1009900061044400e0844c000988a5000500320091
:1009a0008b05e8006808e10002003a008904d100e4
:1009b0000884d300f20f20000258e10005003d003a
:1009c000c75ddd00f907b200898075000800780076
:1009d000000006000bf827008b00780000000500df
:1009e000c70ade00f107b200f50fb20008003200be
:1009f000e1cf4200020032000170a0002400050097
:100a0000810f700001003200040805004400050059
:100a1000810f700002003a00140005008502e90011
:100a20000000400081c04800fcff3b000170a000b6
:100a3000240005000004be00e9ff07000003be001b
:100a40000405be000200be00e5ff0700844f7500ec
:100a5000000006000200be006450e1000500360000
:100a60006420e100020036000968a30001003a009a
:100a70000800be000160a0004f0678004f05be00d0
:100a80004f04be0000000600f0ff2f00f1ff27001a
:100a9000f9ff3700889fbe008a9fbe008c1f780038
:100aa000e4ff0700ebff330003866c006450e100b5
:100ab000240032006420e100270032006150e10090
:100ac000220032006120e100210032008b854200cb
:100ad000eb07b1000134b800003ab8000804420046
:100ae00089844a00013ab8000030b800888040008c
:100af00009014a00040033000000400081804800e2
:100b0000020149008b05e900c909dd00830170007d
:100b10000100320013002000c814de004814dd007c
:100b20004709de001200b200c808de000884700029
:100b300085ff070001f0a1000cf0a70001f0a00064
:100b4000cdff37006120e100cfff32000801be0079
:100b50000200be00f7ff37006150e100fcff3a00e1
:100b6000c9ff3700889fbe008a9fbe00841f78009f
:100b7000b0ff07004f00780011003300f0ff2f0096
:100b8000838f6c0006003b00040565000a00a70087
:100b90000800370009f0a600100020000800370008
:100ba000820f5400838f5c00030039001000200086
:100bb00001003e000000200009f0a7000000ea004c
:100bc0004f05be004f04be000000e000000006001c
:100bd000889fbe008a9fbe000082700004027100e0
:100be00004827100260032000004be000200be0034
:100bf0006011b8006b092000950220000182cf002f
:100c00000a0039000541b1000082cf000700390019
:100c10000541b1000982cf00040039000541b1004f
:100c20000882cf00010039000541b10005425200a1
:100c3000120032000a003b008281710061016400f1
:100c40008100d1000080d3008984d3000884d300c0
:100c50008b05e8000442e800f7ff3a000700370080
:100c60000804440089844c0000004800818048004a
:100c70008b05e9000442e900f9ff3a0032ff070062
:0c0c80004f05be004f04be00000006003f
:020000040000fa
:100c8c000400fa00100798000000eb00000f780039
:100c9c0009003700000000000100370000000000d0
:100cac0000408000680060000000e000f9ff3200a6
:100cbc000068a9001e0fe8009e0078001e0090003e
:100ccc00808f5000f5ff39000080fa00000006000c
:100cdc000600fa00200798006000b800008fbe00e4
:100cec006000b800008fbe00040037001200200026
:100cfc00030020001e0f41005e9749002e0090005b
:100d0c006101b8000080800011808000809ab900d9
:100d1c00828bb90086027800050242000010b800f0
:100d2c000102420084007800be0f5000ae8f5800c4
:100d3c00eeff3e000080fa00000006000800fa00fa
:100d4c00889fbe00008fbe002207980033079800d2
:100d5c0002002000832c24002e009000be00900086
:100d6c00d7fe07000000e0001c003a00150ea8009a
:100d7c0002002000832c24001e0078009e009000ae
:100d8c0041ff07000001be002e009000be00900045
:100d9c0089fe070002a22e0003ae24003aff0700d2
:100dac00020020000300240083fe07000200200044
:100dbc000328240080fe07000200200003f8230013
:100dcc001ffe0700c0fe0700000078001008880016
:100ddc0010002000aaff0700610037006011b80066
:100dec002e009000be009000b5fe07000000e00051
:100dfc001c003a00150ea90002002000832c2400d0
:100e0c001e0078009e0090001fff07000001be002e
:100e1c0000002000812c240067fe070002a22e0097
:100e2c0003ae240018ff070002002000030024007a
:100e3c0061fe070002002000032824005efe07006c
:100e4c000200200003f82300fdfd07009efe0700b2
:100e5c0000007800100888001000200088ff0700b0
:100e6c003f003700150ea80002002000832c240040
:100e7c001e0078009e00900003ff07000001be00da
:100e8c002e009000be0090004bfe070002a22e0028
:100e9c0003ae2400fcfe0700020020000300240027
:100eac0045fe0700020020000328240042fe070034
:100ebc000200200003f82300e1fd070082fe07007a
:100ecc000000780010088800100020006cff07005c
:100edc00150ea9001e0178009e0190000000200054
:100eec0001f8230034fe07000004be0002002000bd
:100efc00832c24002e009000be0090002efe0700d4
:100f0c000001be000000200001f82300ccfd07000a
:100f1c000001be000800be00dbfe070002a22e008e
:100f2c0003ae2400d8fe07000200200003002400ba
:100f3c0021fe070002002000032824001efe0700eb
:100f4c000200200003f82300bdfd07005efe070031
:100f5c0000007800100888001000200048ff0700ef
:100f6c004f04be000080fa00000006000000fa00ea
:100f7c00208080000000e800208088002080800015
:100f8c0000017800f1808000d0cc2c000008b80063
:100f9c004408de00800f510002003900150eaa0033
:100fac000430ef000080fa00000006000000fa0098
:100fbc00308080000000e8003080880030808000a5
:100fcc000001780001818000d0cc2c000008b80012
:100fdc004408de00800f510002003900152eaa00d3
:100fec000630ef000080fa00000006000000fa0056
:100ffc00408080000000e800408088004080800035
:10100c000001780011818000d0cc2c000008b800c1
:10101c004408de00800f510002003900154eaa0072
:10102c000830ef000080fa00000006000000fa0013
:10103c00508080000000e8005080880050808000c4
:10104c000001780021818000d0cc2c000008b80071
:10105c004408de00800f510002003900156eaa0012
:10106c000a30ef000080fa00000006000000fa00d1
:10107c001173800000002100008060000000e0007f
:10108c0005003a0010c0b3001af0b700e0808000f1
:10109c006a004000e080880011738000000021008d
:1010ac000080600000f0a7000000ea000000e900ea
:1010bc004f00de00a1012100914078008180fb00ef
:1010cc00810f5000080032001a70ef00e0808000a1
:1010dc00fe0f500003003600e0808000000040004e
:1010ec00f08088001c30ef000080fa000000060041
:1010fc000000fa00117380000000220000806000e4
:10110c000000e00005003a0010c0b30016f0b70074
:10111c00c08080006a004000c0808800117380008d
:10112c00000022000080600000f0a7000000ea0030
:10113c000000e9004f00de006101210091407800c1
:10114c008180fb00810f5000080032001670ef0008
:10115c00c0808000fe0f500003003600c08080006d
:10116c0000004000008188001830ef000080fa0079
:10117c00000006000000fa0011738000000024003b
:10118c00008060000000e00005003a0010c0b300d1
:10119c0012f0b700a08080006a004000a080880098
:1011ac0011738000000024000080600000f0a70094
:1011bc000000ea000000e9004f00de0021012100e0
:1011cc00914078008180fb00810f500008003200b4
:1011dc001270ef00a0808000fe0f5000030036005c
:1011ec00a080800000004000108188001430ef00c7
:1011fc000080fa00000006000000fa001173800065
:10120c0000002800008060000000e00005003a00ab
:10121c0010c0b3000ef0b700808080006a00400060
:10122c00808088001173800000002800008060001e
:10123c0000f0a7000000ea000000e9004f00de000b
:10124c00e1002100914078008180fb00810f50006b
:10125c00080032000e70ef0080808000fe0f5000fe
:10126c000300360080808000000040002081880050
:10127c001030ef000080fa00000006001000fa00a9
:10128c00608080000000e800608088006180800041
:10129c00703e2000808f5000250036003108800001
:1012ac00010f780041088000110798001e0078009b
:1012bc008000eb009ffd07000200200003122400b9
:1012cc00f1fd070020079800310798001e009000e0
:1012dc008000eb0097fd070002f02f00f37724004d
:1012ec00e9fd07000200200003122400e6fd0700c0
:1012fc0040079800510798004e019000de019000c5
:10130c002e009000be009000cefc070002a22e0022
:10131c0003a6240028fd07006007980071079800b9
:10132c000c30ef000821ef000a21ef000621ef003e
:10133c000080fa00000006000200fa00700a20008b
:10134c000100200000808800118088003300070015
:10135c00680007003400070042000700110ea900c6
:10136c00112ea900114ea900116ea900500ea90052
:10137c001f0ea9001f2ea9001f4ea9001f6ea90049
:10138c0061cea80061eea8006bcea8006beea800a1
:10139c000000eb00000f78003135800000f82f00c2
:1013ac00808060000006200001007000303588004d
:1013bc0003003700000000000100370000000000af
:1013cc00540ea90000408000680060000000e0009e
:1013dc00f8ff32000068a9001e0fe8001e0078001c
:1013ec00e90f5000f5ff3600540ea8000000eb008a
:1013fc00000f7800ddfe0700ecfe0700fbfe070087
:10140c000aff070019ff070039ff070059ff070003
:10141c0079ff070099ff0700e9ff37000000fa0089
:10142c000080fa00000006000000fa0005e1a900a7
:10143c000421a9000441a90021088000f0fc2f0020
:10144c00008060000050a000200888000021ef0000
:10145c00800320001008880005e1a8000080fa0035
:10146c00000006000000fa0013e1a90011e1a90038
:10147c001061a8001021a90010c1a80081088000eb
:10148c00f0fc2f0000806000800888000a21ef002b
:10149c000621ef000080eb00700888000080eb0054
:1014ac00600888002142800080ff2f0000806000cf
:1014bc000000a000204288000108a9002108a90012
:0c14cc0011e1a8000080fa0000000600fa
:020000040000fa
:1014d800001000001e000000800000001e10000028
:1014e80008000000820000005802e80003780500a8
:0814f80098080000000000004c
:020000040000fa
:0c1500000000fa000080fa000000060065
:020000040000fa
:0200000401f009
:04000c00f8ffff00fa
:020000040000fa
:0200000401f009
:040010007dffff0071
:020000040000fa
:0200000401f009
:040014007fffff006b
:00000001FF
